:020000042400D6
:1000000000000220990A0024950A00244D9900243A
:10001000950A0024950A0024950A00240000000097
:10002000000000000000000000000000950A00240D
:10003000950A002400000000950A0024D1980024AD
:10004000950A0024950A0024950A0024950A0024A4
:10005000950A0024950A0024950A0024950A002494
:10006000950A0024950A0024950A0024717500243D
:100070007D7500243962002489750024957500245B
:1000800051920024056A0024950A0024950A002450
:10009000950A0024950A0024950A0024950A002454
:1000A000950A0024950A0024950A0024950A002444
:1000B000155E0124215E01242D5E0124396A00248D
:1000C000950A0024456A0024950A002449810024E9
:1000D0005581002485900024B1900024E5900024EF
:1000E000950A0024950A002400000000950A0024C7
:1000F000950A0024950A0024950A0024950A0024F4
:10010000950A0024950A0024395E012461810024A7
:10011000199100244D910024950A0024950A002489
:10012000950A0024950A002485810024B9810024C1
:1001300085920024950A0024950A0024950A00243B
:1001400000000000000000000000000000000000AF
:10015000950A0024950A0024950A00248191002420
:10016000516A0024950A0024E1980024059900248E
:10017000950A002429990024950A0024950A002450
:10018000950A0024950A0024B5910024E9910024E1
:100190006D81002479810024950A0024950A0024A9
:1001A000950A0024950A0024950A0024950A002443
:1001B00091720024950A0024950A0024950A0024CF
:1001C000950A0024950A0024915B01249D5B01247B
:1001D000950A0024A95B0124950A0024950A0024AD
:1001E000950A0024950A0024950A0024950A002403
:1001F000950A0024950A0024950A0024950A0024F3
:10020000950A0024950A0024950A0024950A0024E2
:10021000950A0024950A0024950A0024950A0024D2
:10022000950A0024950A0024950A00240000000085
:10023000950A0024950A002400000000950A002475
:10024000950A0024950A0024950A0024950A0024A2
:10025000950A0024950A0024950A0024950A002492
:10026000950A0024950A0024950A0024950A002482
:10027000950A0024950A00241D9200240000000025
:10028000950A0024950A0024950A00240000000025
:0802900000000000950A0024A3
:1002A00010B5054C237833B9044B13B10448AFF3B0
:1002B00000800123237010BD7008002000000000A2
:1002C00048EA032408B5034B1BB103490348AFF3C5
:1002D000008008BD000000007408002048EA0324E4
:1002E00001F0FF01102A2BDB10F0070F08D010F8E7
:1002F000013B013A8B422DD010F0070F42B3F6D1EB
:10030000F0B441EA012141EA014122F007047FF003
:1003100000070023F0E80256083C85EA010586EA5A
:10032000010685FA47F5A3FA87F586FA47F6A5FA96
:1003300087F68EB9EED1F0BC01F0FF0102F00702A2
:1003400032B110F8013B013A83EA010313B1F8D14D
:100350000020704701387047002D06BF354603382E
:10036000073815F0010F07D1013015F4807F02BF67
:10037000013015F4C03F0130F0BC0138704700BFB8
:1003800010F8012B11F8013B012A28BF9A42F7D03F
:10039000D01A7047034613F8012B002AFBD1181A14
:1003A0000138704781F0004102E000BF83F0004354
:1003B00030B54FEA41044FEA430594EA050F08BF00
:1003C00090EA020F1FBF54EA000C55EA020C7FEAC4
:1003D000645C7FEA655C00F0E2804FEA5454D4EB41
:1003E0005555B8BF6D420CDD2C4480EA020281EA0B
:1003F000030382EA000083EA010180EA020281EA43
:100400000303362D88BF30BD11F0004F4FEA013194
:100410004FF4801C4CEA113102D0404261EB4101A3
:1004200013F0004F4FEA03334CEA133302D0524229
:1004300063EB430394EA050F00F0A780A4F10104E5
:10044000D5F1200E0DDB02FA0EFC22FA05F280181F
:1004500041F1000103FA0EF2801843FA05F3594105
:100460000EE0A5F120050EF1200E012A03FA0EFC84
:1004700028BF4CF0020C43FA05F3C01851EBE371AE
:1004800001F0004507D54FF0000EDCF1000C7EEBCB
:1004900000006EEB0101B1F5801F1BD3B1F5001F09
:1004A0000CD349085FEA30004FEA3C0C04F1010428
:1004B0004FEA445212F5800F80F09A80BCF1004F51
:1004C00008BF5FEA500C50F1000041EB045141EAD3
:1004D000050130BD5FEA4C0C404141EB0101013C9C
:1004E00028BFB1F5801FE9D291F0000F04BF01468B
:1004F0000020B1FA81F308BF2033A3F10B03B3F15D
:1005000020020CDA0C3208DD02F1140CC2F10C02EC
:1005100001FA0CF021FA02F10CE002F11402D8BF4A
:10052000C2F1200C01FA02F120FA0CFCDCBF41EA16
:100530000C019040E41AA2BF01EB0451294330BDE5
:100540006FEA04041F3C1CDA0C340EDC04F11404C2
:10055000C4F1200220FA04F001FA02F340EA030099
:1005600021FA04F345EA030130BDC4F10C04C4F1DF
:10057000200220FA02F001FA04F340EA03002946BF
:1005800030BD21FA04F0294630BD94F0000F83F409
:10059000801306BF81F480110134013D4EE77FEAEC
:1005A000645C18BF7FEA655C29D094EA050F08BF38
:1005B00090EA020F05D054EA000C04BF1946104619
:1005C00030BD91EA030F1EBF0021002030BD5FEA5D
:1005D000545C05D14000494128BF41F0004130BD85
:1005E00014F580043CBF01F5801130BD01F00045D9
:1005F00045F0FE4141F470014FF0000030BD7FEA4C
:10060000645C1ABF194610467FEA655C1CBF0B4646
:10061000024650EA013406BF52EA033591EA030F5D
:1006200041F4002130BD00BF90F0000F04BF002155
:10063000704730B54FF4806404F132044FF0000588
:100640004FF0000150E700BF90F0000F04BF002101
:10065000704730B54FF4806404F1320410F0004567
:1006600048BF40424FF000013EE700BF42004FEA62
:10067000E2014FEA31014FEA02701FBF12F07F43DF
:1006800093F07F4F81F06051704732F07F4208BF96
:10069000704793F07F4F04BF41F40021704730B59D
:1006A0004FF4607401F0004521F000411CE700BFE9
:1006B00050EA010208BF704730B54FF000050AE06C
:1006C00050EA010208BF704730B511F0004502D56D
:1006D000404261EB41014FF4806404F132045FEA6F
:1006E000915C3FF4D8AE4FF003025FEADC0C18BF18
:1006F00003325FEADC0C18BF033202EBDC02C2F10A
:10070000200300FA03FC20FA02F001FA03FE40EA9B
:100710000E0021FA02F11444BDE600BF53B94AB9F4
:10072000002908BF00281CBF4FF0FF314FF0FF30F9
:1007300000F0AEB9ADF1080C6DE904CE00F040F860
:10074000DDF804E0DDE9022304B0704708B5024695
:100750000B4643EC172BB5EEC07BF1EE10FA03D439
:10076000BDE8084000F00CB8B1EE477B51EC170B28
:1007700000F006F8404261EB410108BD00000000B6
:100780009FED0B6B41EC170B9FED0B5B27EE066BA0
:10079000BCEEC66BB8EE464BA4EE457BFCEEC77BC9
:1007A00016EE101A17EE900A704700BFAFF30080E4
:1007B000000000000000F03D000000000000F041DB
:1007C0002DE9F047089D04468E46002B4DD18A4204
:1007D000944669D9B2FA82F252B101FA02F3C2F137
:1007E000200120FA01F10CFA02FC41EA030E9440C8
:1007F0004FEA1C48210CBEFBF8F61FFA8CF708FBE9
:1008000016E341EA034306FB07F199420AD91CEBC0
:10081000030306F1FF3080F01F81994240F21C81F2
:10082000023E63445B1AA4B2B3FBF8F008FB10333A
:1008300044EA034400FB07F7A7420AD91CEB04046F
:1008400000F1FF3380F00A81A74240F2078164443F
:10085000023840EA0640E41B00261DB1D4400023C4
:10086000C5E900433146BDE8F0878B4209D9002D28
:1008700000F0EF800026C5E9000130463146BDE8B2
:10088000F087B3FA83F6002E4AD18B4202D382421C
:1008900000F2F980841A61EB030301209E46002DCB
:1008A000E0D0C5E9004EDDE702B9FFDEB2FA82F220
:1008B000002A40F09280A1EB0C014FEA1C471FFA7E
:1008C0008CFE0126200CB1FBF7F307FB131140EA65
:1008D00001410EFB03F0884208D91CEB010103F132
:1008E000FF3802D2884200F2CB804346091AA4B2F4
:1008F000B1FBF7F007FB101144EA01440EFB00FEC8
:10090000A64508D91CEB040400F1FF3102D2A6452C
:1009100000F2BB800846A4EB0E0440EA03409CE7CB
:10092000C6F12007B34022FA07FC4CEA030C20FA78
:1009300007F401FA06F31C43F9404FEA1C4900FA98
:1009400006F3B1FBF9F8200C1FFA8CFE09FB181115
:1009500040EA014108FB0EF0884202FA06F20BD988
:100960001CEB010108F1FF3A80F08880884240F2D8
:100970008580A8F102086144091AA4B2B1FBF9F01C
:1009800009FB101144EA014100FB0EFE8E4508D917
:100990001CEB010100F1FF346CD28E456AD902389C
:1009A000614440EA0840A0FB0294A1EB0E01A14281
:1009B000C846A64656D353D05DB1B3EB080261EBEF
:1009C0000E0101FA07F722FA06F3F1401F43C5E9C9
:1009D000007100263146BDE8F087C2F12003D840FF
:1009E0000CFA02FC21FA03F3914001434FEA1C4741
:1009F0001FFA8CFEB3FBF7F007FB10360B0C43EA33
:100A0000064300FB0EF69E4204FA02F408D91CEBE2
:100A1000030300F1FF382FD29E422DD902386344E0
:100A20009B1B89B2B3FBF7F607FB163341EA034180
:100A300006FB0EF38B4208D91CEB010106F1FF38CF
:100A400016D28B4214D9023E6144C91A46EA0046C6
:100A500038E72E46284605E70646E3E61846F8E658
:100A60004B45A9D2B9EB020864EB0C0E0138A3E7A1
:100A70004646EAE7204694E74046D1E7D0467BE782
:100A8000023B614432E7304609E76444023842E7FA
:100A9000704700BFFEE700BF0A480B4A904203D0F0
:100AA000121A0A4930F05EFB09480A4A904203D004
:100AB000121A002130F07EFB30F0A6F901F0F4F9B3
:100AC000FEE700BF000000207008002094EA032425
:100AD0007008002044AB0120704700BF704700BF82
:100AE000402070478020704749424FF480621430A4
:100AF000C9B230F05FBB00BF2DE9F04F8DB0144696
:100B00008246884601920021202204A830F052FB40
:100B1000002C5AD0AAF10403DFF8DC9000270293DE
:100B2000A8F104030393BE0004AD0024DDE902BA7A
:100B3000E1B22F4802F014F85BF8043F013433446B
:100B4000042CD3ED007A5AF8043F20EE270A3344F0
:100B500020EE007A83ED000A95ED006BB7EEC77AC0
:100B600037EE067BA5EC027BE2D1B6EE007A0137C8
:100B7000D8E9002333443244D3ED006AD2ED007A41
:100B8000019B77EEA67ABB4267EE877AE9EC017AA1
:100B9000C9D19DED040B06AC164D0CAE9FED107B3C
:100BA00020EE070BB5EE400BF1EE10FA10D4B1EECB
:100BB000C07BB442B7EEC77BA5EC017A02D0B4EC9F
:100BC000020BEBE70DB0BDE8F08F9FED070BE2E7FE
:100BD0002FF02EFCB0EE407BEBE700BFAFF30080C0
:100BE000000000000000803F000000000000000046
:100BF000900800202C0D00202C0B002010B504467E
:100C000040F2144116F0ABF8204610BD1BB9136931
:100C10000BB1D26818477047B9B30144F0B5154617
:100C2000A5B002F12407441E4E1E01E0A6422AD0C0
:100C300014F8011F6A46384609F018FC0028F5D060
:100C4000D5F8C4C090226946D5E93203C31A00F131
:100C5000010E00EBC00048BF63440CF1FF3C9C4513
:100C6000E4D0D5F8C030C5F8C8E003EB001030F090
:100C700079FAD5E931239342A3EB020328BFC5F8E3
:100C8000C830A642D4D125B0F0BD70472DE9F0415F
:100C9000B02482B000F1080600F1100500F114083C
:100CA000002728468DF807400134394605F056FDE7
:100CB000642301220DF107013046E4B207F0AAFCDB
:100CC000394628468DF8077005F048FD0122642357
:100CD0000DF10701304607F09DFC102339462846E8
:100CE0008DF8073005F03AFD642301220DF107016C
:100CF000304607F08FFC0121284605F02FFD8022A9
:100D0000414664233046904407F084FCB82CC7D198
:100D100002B0BDE8F08100BFB9B30144F0B515469B
:100D2000A5B002F10807441E4E1E01E0A6422AD0DB
:100D300014F8011F6A46384609F098FB0028F5D0E0
:100D4000D5F8A8C090226946D5E92B03C31A00F153
:100D5000010E00EBC00048BF63440CF1FF3C9C4512
:100D6000E4D0D5F8A430C5F8ACE003EB001030F0C7
:100D7000F9F9D5E92A239342A3EB020328BFC5F86A
:100D8000AC30A642D4D125B0F0BD70472DE9F04F6C
:100D900089B008AC9DF84870019104E90C000B780B
:100DA000002B00F0AB801A469DF818809DF8193092
:100DB0000646454690460393079B0593A8F12004F9
:100DC000E3B25E2B00F29E8033685E4ADB6893429A
:100DD00040F09B808020B3882B44834200F39280B4
:100DE0003368594A9B68934240F092804020F188D2
:100DF000039A02918B18834200F38480002A00F04A
:100E0000918002FB04F46FF00049059BA144144457
:100E1000B6F804B003EB4909023BCDF8108003EBB0
:100E200044030C469A4639F802CFA5B304F00703F1
:100E30004FF0010EE20859460EFA03FE0BF11403BF
:100E40004FFA8EFE03EBC21200236FEA0E08324403
:100E50000DE07F2906D83F2C04D8107897B14EEAD0
:100E600000001070013301320131AB4213D00CFA93
:100E700003F00004EDD47F29F4D83F2CF2D8107889
:100E8000002FECD0013308EA000001320131AB42FF
:100E900002F8010CEBD1D14504F10104C3D1DDF816
:100EA000108032680BEB05042649D368A4B28B424C
:100EB00034D18020844204D3D36822498B423AD172
:100EC0007F249368204AB480934224D14020029B1F
:100ED000834206D333681C4A9B68934225D13F2343
:100EE0000293029BF380019B1878404507D113F8C9
:100EF000018F0193B8F1000F7FF460AF002009B0BB
:100F0000BDE8F08F4FF00008EDE73046984762E704
:100F1000304698476BE730469847D8E730469847C1
:100F20003268C7E7B6F804B0BBE7304698470138E7
:100F300083B20293D5E7304698470138326884B2CD
:100F4000BFE700BFE50A0024E10A00242DE9F04FC5
:100F500085B0A1F1200504AC9DF83870009104E93A
:100F60000C00EBB25E2B00F29580036880465D4A70
:100F7000DB689DF8084093429DF8096040F094803A
:100F80008020B8F804302344834200F38380D8F8EB
:100F90000030554A9B68934240F088804020B8F862
:100FA000062093190192834274DC002E00F08980A0
:100FB00006FB05F56FF00040039B964628442E443F
:100FC000B8F804A003EB4000023B03EB460B30F8FB
:100FD000026FBCB30EF007034FF0010C4FEADE02C4
:100FE00051460CFA03FC0AF114034FFA8CFC03EB94
:100FF000C21200236FEA0C0942440EE07F2907D891
:10100000BEF13F0F04D815789FB14CEA0505157065
:101010000133013201319C4214D006FA03F52D044C
:10102000ECD47F29F4D8BEF13F0FF1D81578002F0A
:10103000EBD0013309EA0505013201319C4202F887
:10104000015CEAD158450EF1010EC0D1D8F800304C
:1010500054442449DA68A4B28A422DD180208442C3
:101060001CD29B68204AA8F80440934221D140201A
:10107000019B834207D3D8F800301B4A9B689342F8
:1010800029D13F230193DDE90003A8F8063005B01C
:10109000BDE8F08F002005B0BDE8F08FDA68114997
:1010A0008A4211D17F24DCE798476AE74046984797
:1010B00075E740469847DBE740469047D8F8003050
:1010C000CDE7B8F804A0C1E7404690470138D8F80A
:1010D000003084B2C5E740469847013883B2019397
:1010E000D1E700BFE50A0024E10A00242DE9F04F12
:1010F00089B01D46884606901046129C10F8013BA8
:1011000013999DF85060009233B1002210F8013B12
:101110000132002BFAD193B22A78687812FB03F3DC
:1011200002B21BB223EAE373082900F2A681DFE8CA
:1011300011F0010113011F01330141014F0166014B
:101140006F010900A18827880F44B4F90610FF1A1F
:101150000029BFB2C0F2FE806488069804EB6104E7
:10116000C280A4EB52028380078094B24480A64AD6
:10117000D8F8003011460192DA688A4240F08B813B
:101180008020B84205D8DA6801998A4240F09881F7
:101190007F279E4A9B68A8F804709342039240F010
:1011A00087814020A04207D8D8F80030039A9B6876
:1011B000934240F080813F24009BA8F8064093F8BA
:1011C00000B06B782C7804936B680793BBF1000F29
:1011D00000F0AC80ABF12005EBB25E2B00F22C816D
:1011E000D8F80030019ADB68934240F028818020D3
:1011F000B8F8043023449842C0F21E81D8F8003079
:10120000039A9B68934240F01D814020B8F8061075
:10121000049A02918B189842C0F20E81002A00F0C5
:101220001C8102FB05F56FF0004E079BAE44154490
:10123000CDF814B003EB4E0E023BB8F804A003EB5C
:1012400045030D469B463EF8027FA4B305F0070315
:101250004FF0010CEA0851460CFA03FC0AF11403A2
:101260004FFA8CFC03EBC21200236FEA0C094244D4
:101270000DE07F2906D83F2D04D8107896B14CEAAE
:10128000000010700133013201319C4213D007FA83
:1012900003F00004EDD47F29F4D83F2DF2D8107864
:1012A000002EECD0013309EA0000013201319C42EA
:1012B00002F8010CEBD1F34505F10105C3D1DDF8CE
:1012C00014B0D8F800200AEB04050199D368ADB238
:1012D0008B4240F0BD808020854205D3D3680199C0
:1012E0008B4240F0C3807F259368039AA8F804508E
:1012F000934240F0AA804020029B834208D3D8F852
:101300000030039A9B68934240F0AA803F230293E7
:10131000029BA8F80630009A13785B4506D112F8B4
:1013200001BF0092BBF1000F7FF454AF069809B0E3
:10133000BDE8F08FB4F9041027880029B8BF013147
:1013400007EB6107B4F90610A7EB63070029BFB2EA
:10135000BFF602AF0131FFE6B4F900700699B4F9A7
:1013600002400F80BFB24C80A4B28B80CA80FEE6E0
:10137000B4F9041027880029B4F90240B8BF01313C
:1013800007EB610706998B80A7EB63034C80A4B23F
:101390009FB2CA800F80EAE6A1882788B4F902408C
:1013A0000F4406998B80FB1A4C80A4B29FB2CA806E
:1013B0000F80DCE6E78861883944B4F90070081AC8
:1013C000069984B20F808B80BFB2CA804C80CEE673
:1013D000B4F9041027880029B8BF013107EB610771
:1013E000A7EB6307B4F802C0BFB2E488069964446F
:1013F0008B80201ACA800F8084B24C80B7E6278881
:10140000A1880F44FF1AEDE7E50A0024E10A002451
:10141000B4F90610B4F90070002964880698B8BFC2
:101420000131C28004EB610407808380BFB2A4EB6A
:10143000520294B244809AE64FF0000B6BE74046AC
:101440009847D5E640469847E0E64046984753E738
:1014500040469847D8F800203EE7B8F804A030E7A7
:1014600040469847013883B2029351E74046984777
:101470000138D8F8002085B236E7D8F800300024CB
:10148000069A1349148054809480D480DA680191BC
:101490008A4205D0274640469047D8F8003070E68B
:1014A0009B680C4AA8F80440934203923FF484AE30
:1014B0004046984776E640469847013884B27BE636
:1014C000404690470138D8F8003087B261E600BF47
:1014D000E50A0024E10A00247F291ED83F2A1CD8EF
:1014E0006BB1D3084FF0010C02F0070201EBC313FC
:1014F0000CFA02F2C1180B7D1A430A757047D30823
:101500004FF0010C02F0070201EBC3130CFA02FCCE
:10151000C1180A7D22EA0C020A7570472DE9F04FC6
:1015200083B05C1A0C9E002C9DF83490A6EB020848
:10153000B8BF6442B8F1000FB8BFC8F100088B42D1
:101540008CBF4FF0010A4FF0FF3A9642A4EB080C13
:1015500051D84FF0FF357F2B019512D83F2E10D870
:10156000F50806F0070E012703EBC5150544B9F190
:10157000000F47D007FA0EF795F814E047EA0E0778
:101580002F75964201D18B4229D0C8F100077F29DF
:1015900014D83F2A12D8D50802F0070B4FF0010EDD
:1015A00001EBC5150544B9F1000F1BD00EFA0BFE77
:1015B00095F814B04EEA0B0E85F814E0B7EB4C0F1B
:1015C0004FEA4C0502DAACEB080C5144AC4202DDA8
:1015D000019DA4442A449942D9D19642D7D103B05F
:1015E000BDE8F08F0EFA0BFB95F814E02EEA0B0E17
:1015F00085F814E0E2E701257F2B0195C5D83F2E41
:10160000AED9C2E707FA0EFE2F7D964227EA0E07F3
:101610002F75B8D0B9E700BF2DE9F04F2DED068B3F
:1016200083B01F4680460D469DF850301646019304
:10163000139B002BC0F22182129A134406EE103A3B
:10164000DDED127AB8EEC66B9FEDCD4BB8EEE77BC1
:101650009FEDCD5B27EE047B26EE046B87EE050B3A
:1016600086EE05ABF7EEC08BB0EE680A2EF0DCFC20
:1016700007EE907AB7EECAABF8EE679AB0EE408A02
:10168000B0EE680A2EF0CCFD60EE698AB0EE4A0A30
:101690002EF0CAFCB0EE409AB0EE4A0A2EF0C0FD21
:1016A00020EE690A29EE888A29EE899A70EE687A16
:1016B000F0EE006A39EE487A67EEA77AE7EE077A2D
:1016C000F4EEE67AF1EE10FA06D5139BB42B40F354
:1016D00096804FF0010901E04FF0000901247842A3
:1016E0004FF0000C0095E31B214627462246A340FD
:1016F000B9F1000F6AD1424206EE90CACCF1000166
:1017000007EE102AB8EEE66A07EE901A06EE900A87
:10171000B8EEC77A139A66EE084AF8EEE77AB42A6A
:1017200027EE284AF8EEE66A67EE885A74EEC43A65
:1017300026EEA85A26EE096A66EE806A67EE897A76
:1017400027EE007AF5EEC03A40F3F280F1EE10FA9F
:1017500000F17F8176EE473A74EEC54AF5EEC03A65
:10176000F1EE10FAF5EEC04ACCBF01220022F1EEF4
:1017700010FA00F1778136EE666A35EEC55AB5EE9D
:10178000C06AF1EE10FAB5EEC05ACCBF01210021BB
:10179000F1EE10FA00F16F8177EEE66AF5EEC06ABD
:1017A000F1EE10FACCBF0127002775EEC45AF5EE12
:1017B000C05AF1EE10FA00F1478177EEC77AF5EEE4
:1017C000C07AF1EE10FACCBF01240024002A40F0C8
:1017D0008A80002964D1BFB9C4BB9C4558DB0CF199
:1017E000010C03EB4C0E1CEB000F0EF1010E00F090
:1017F000C08098424FDB734600287FF779AF03B073
:10180000BDEC068BBDE8F08F009DA6EB0C0E00EB47
:10181000050ABAF17F0FDFD8BEF13F0FDCD84FEADF
:10182000DE0B019D0AEBCB1A002D00F0B1800EF00B
:10183000070BC2444FF0010E0EFA0BFE9AF814B0DB
:101840004EEA0B0E8AF814E0002CC6D0009DA6EBE1
:101850000C0EA5EB000ABAF17F0FBED8BEF13F0F08
:10186000BBD84FEADE0B019D0AEBCB1A002D00F02E
:10187000AE800EF0070BC2444FF0010E9C450EFAED
:101880000BFE9AF814B04EEA0B0E8AF814E0A6DAB2
:1018900098429E46AFDA01300EEB40030133ABE7CE
:1018A000009D0CEB060E00EB050ABAF17F0F92D8F3
:1018B000BEF13F0F8FD84FEADE0B019D0AEBCB1A2A
:1018C000002D73D00EF0070BC2444FF0010E0EFA3C
:1018D0000BFE9AF814B04EEA0B0E8AF814E0002FB3
:1018E0003FF47AAF90E7009D0CEB060EA5EB000AE3
:1018F000BAF17F0F3FF66DAFBEF13F0F3FF669AF14
:101900004FEADE0B019D0AEBCB1A002D6DD00EF0D5
:10191000070BC2444FF0010E0EFA0BFE9AF814B0FA
:101920004EEA0B0E8AF814E000293FF454AFB7E7F3
:10193000F1EE10FA7ED44A4674EEC54AF5EEC04A7E
:10194000F1EE10FA6CD4002135EEC55AB5EEC05A4E
:10195000F1EE10FA5AD4002775EEC45AF5EEC05ACB
:10196000F1EE10FA3FF529AF0024002A3FF431AF21
:10197000B9E798428FDB00233BE700BFAFF300805D
:101980007A008BFCFA2109400000000000806640CC
:10199000C2444FF0010B0EF0070E0BFA0EFE9AF840
:1019A00014B02BEA0E0E8AF814E015E7C2444FF08B
:1019B000010B0EF0070E0BFA0EFE9AF814B02BEA8C
:1019C0000E0E8AF814E0002F3FF406AF1CE7C24465
:1019D0004FF0010B0EF0070E0BFA0EFE9AF814B042
:1019E0002BEA0E0E8AF814E0F7E6C2444FF0010B22
:1019F0000EF0070E0BFA0EFE9AF814B02BEA0E0E3C
:101A00008AF814E000293FF4E6AE49E777EEE66A8B
:101A1000F5EEC06AF1EE10FACCBF012700279BE774
:101A200036EE666AB5EEC06AF1EE10FACCBF01215F
:101A3000002189E776EE473AF5EEC03AF1EE10FA6A
:101A4000CCBF0122002277E70124002A3FF4C1AE77
:101A500049E774EEC54A0122F5EEC04AF1EE10FAEC
:101A60007FF589AE35EEC55A0121B5EEC05AF1EECB
:101A700010FA7FF591AE012797E6DDE912231344B2
:101A800006EE102A1293139B5B421393D8E500BF16
:101A90002DE9F04F87B09DF84850109C2E460195D7
:101AA0009DF844509EB399422ED89946A24228D818
:101AB0007F29164694BF0023012308E09CF8148078
:101AC0004EEA080E8CF814E00136B44219D33F2ECA
:101AD000FAD8002BF8D14FEAD60C06F0070E4FF0DB
:101AE000010801EBCC1C08FA0EFE8444002DE5D160
:101AF0009CF814B001362BEA0E0AB4428CF814A0FC
:101B0000E5D201318945D1D207B0BDE8F08FA3EB12
:101B10000108B8F1000FB8BFC8F100089942C0F041
:101B20004E817F2B4FF0FF3A94BF002601263F2ABB
:101B3000009694BF002701270297A6B99FB9D6083F
:101B400002F0070C012703EBC6160644002D00F037
:101B5000948107FA0CF796F814C047EA0C0737751A
:101B6000002602960096994200F0978146469446D8
:101B70008E46BEF17F0F16D8BCF13F0F13D84FEA47
:101B8000DC070CF0070B4FF001090EEBC7170744F9
:101B9000002D00F0398109FA0BF997F814B049EAE1
:101BA0000B0987F81490770018BFD644B84502DDBA
:101BB00046440CF1FF3C7345DBD16245D9D1002688
:101BC0000496A4EB0209009FB9F1000FB8BFC9F158
:101BD00000093F2C94BF00260126A242C9F100084B
:101BE0000396C0F02381002F40F05081002E40F07A
:101BF0004D814FF0FF360096E60803EBC61606440B
:101C0000002D00F01E814FF0010C04F007070CFAC4
:101C100007F796F814C047EA0C07377500260396B5
:101C2000A24200F03D81C44616461F4605927F2F12
:101C300015D83F2E13D84FEAD60E06F0070B4FF0FB
:101C4000010A07EBCE1E8644002D00F0E6800AFA5A
:101C50000BFA9EF814B04AEA0B0A8EF814A0B8EBFF
:101C60004C0F4FEA4C0E02DAACEB090C013FBEF10F
:101C7000000F01D0009A1644BB42D8D1B442D6D14D
:101C8000059AA1EB030EBEF1000FB8BFCEF1000E16
:101C90007F2994BF4FF0000A4FF0010A99428CBF90
:101CA0004FF001094FF0FF39BAF1000F13D1039E35
:101CB0008EB9E60801EBC6160644002D00F0D3806D
:101CC0004FF0010C04F007070CFA07F796F814C060
:101CD00047EA0C073775049E26BB774626467F2BBE
:101CE00014D83F2E12D84FEAD60C06F0070B4FF04F
:101CF000010803EBCC1C8444002D73D008FA0BF8C8
:101D00009CF814B048EA0B088CF814805FEA470C82
:101D100018BF4B44E64501DD7744013E9942DED1D0
:101D2000B442DCD1A2EB040EBEF1000FB8BFCEF17D
:101D3000000EA2428CBF4FF001084FF0FF38CEF1E9
:101D4000000CBAF1000F0ED1029B63B9D30802F068
:101D50000707012601EBC3130344002D7CD0BE40CE
:101D60001F7D3E431E75019B002B7FF4CDAE664662
:101D70000B467F2B12D83F2C10D8E70804F0070A37
:101D80004FF0010903EBC7170744A5B309FA0AF995
:101D900097F814A049EA0A0987F81490BCEB460F9B
:101DA0004FEA460702DAA6EB0E06013B07B14444B0
:101DB0009942DED1A242DCD107B0BDE8F08F3F2AC4
:101DC0004FF0010A94BF002601267F2B029694BF94
:101DD000002701270097002E7FF4C8AE002F3FF4A4
:101DE000AEAEC3E608FA0BFB9CF8148028EA0B0899
:101DF0008CF814808AE709FA0AFA97F8149029EA0D
:101E00000A0987F81490C9E709FA0BFB97F81490B0
:101E100029EA0B0987F81490C5E60AFA0BFB9EF82D
:101E200014A02AEA0B0A8EF814A018E797BB8EBB01
:101E300001260096E60803EBC6160644002D7FF443
:101E4000E2AE012704F0070C039507FA0CFC377D7E
:101E500027EA0C073775E3E606FA07F71E7D26EA40
:101E600007061E757FE7012704F0070C07FA0CFC34
:101E7000377D27EA0C0737752DE707FA0CFC377D0D
:101E8000029527EA0C07009537756CE64FF0FF3690
:101E90000096C5E601260096C5E60126049690E662
:101EA00001260196EDE600BF2DE98048634F85B01D
:101EB000002107F11C0007F50D6802F0CDF9384646
:101EC00001F0F0FF802107F11C0007F50C6902F01A
:101ED000E7F8032107F11C0007F5104502F0C4F8EC
:101EE000384600F01BFE384600F00CFC4FF47A70C8
:101EF00007F09EFD524907F11C0002F0B1F80022E4
:101F00003846114601F00EFC4E4B14214046C7F8EE
:101F1000E038C7F8DC9807F0ADFC4B4B4046D7F8EB
:101F2000D828D7F8D418CDF8008007F0CBFA43486A
:101F300000F0F4FD414801F0BBFC444807F04CFBC5
:101F4000002863D0424803F0ABFE002852D0D7F8F7
:101F50008809D7F88449D7F88C39C11A0A1912EAC6
:101F6000210238BF0A46AAB39842FCD001339C42F2
:101F700098BF1B1BC7F88C39EFE7D5F8CC2A024471
:101F8000002AD4D09C452BD0D5F8C8AA4FF0900B8E
:101F9000D5F8CCEA03220AEB01131AF806A074451F
:101FA00003A91E7A5B7AC5F8D44AA4EB0E0428482C
:101FB00006F07F0628BFC5F8D44ABAF1010F03F036
:101FC0007F0309D18DF80CB08DF80D608DF80E30BF
:101FD00003F070FED5F8D0CAD5F8D43AACEB0300C4
:101FE00003EBC301002803F1010402464FEA011686
:101FF000C6DAC2E7174808F0F1FA154803F054FEB4
:10200000154A1649101D03F041FEA0E7144808F0D8
:10201000E5FA0C4B14210D48C7F8E038C7F8DC98F6
:1020200007F028FC084BD7F8D828D7F8D418CDF8F3
:102030000080064807F046FA84E700BF90080020B9
:10204000F90A0024190C00240D0C00246011002052
:10205000B8A20020BCA20020B4A20020190D0024C8
:10206000741100202DE9F8434848494C14F0B4FE9F
:10207000484A494904F11C07444814F06BFE474D97
:10208000002305F10C0905F16006EB6105F1780EFE
:102090002B63AC46EB63F046AB65A5F85C3094E887
:1020A000070085E8070004F10C0234340FCA89E800
:1020B0000F000FCF0FC697E8030086E803000FCC90
:1020C000AEE80F000FCCAEE80F0094E80F008EE8EA
:1020D0000F000CF1180C00240B22FF23C445CCF890
:1020E000D0418CF8CC218CF8CD31CCE97544F0D1BD
:1020F0002B4E21464FF400722A482FF05BF82A4BF2
:10210000C5F89C4406F22440F460C5F8B444C6E91E
:102110000144C5F8AC3408F095F9244B40F20F7235
:10212000234940F20110C3F8C42AC3F8C01AC5F805
:10213000781903F51041C5F8D048C5F88849A5F8C5
:102140007C2903F6D822C5F88C49C3F8284AC3F87D
:10215000D04AC3F8D44A81F86C4B4FF44074C3F8AA
:10216000C82AC5F88409C3F8CC0A06F2F440C3F8BB
:10217000244A0823C5F88009A6F29C40C1F8683BB0
:10218000044A0C49BDE8F84314F0E4BD8C08002073
:102190007C8F03240000002041700124900800205F
:1021A0002C0D00202C0B0020BC90032490980020C4
:1021B0000080707FD90A00242DE9F04F824689B053
:1021C00007F034FC01250AF59033C3F8700B0122A7
:1021D000D30802F00701012405EBC31304FA01F050
:1021E00022445344342A93F8C01421EA000183F8AE
:1021F000C014EDD125447F2DE9D100230AF52772C3
:10220000A14618260193049206E0019B09F10109F9
:1022100026467E3301932B46049A9FED617AF2ECB9
:10222000017A67EE877A0492FDEEE77A17EE902A3C
:10223000D2F1180400F1AD80312C40F3AB80322490
:10224000019AB9F1010F4FEAD21505F10105DCD071
:10225000EF1AA4EB060E19463246002FB8BF7F4294
:10226000BEF1000FB8BFCEF1000E9D428CBF012021
:102270004FF0FF30A6420290A7EB0E000590C0F091
:102280008B804FF0FF3003904FEAD40C4FF0010BDE
:1022900004F007089D4205EBCC1C0BFA08F8D44467
:1022A0009CF8C0B448EA0B088CF8C08401D1A6425F
:1022B00028D0CEF1000805984FF0010CD30802F0A9
:1022C00007067F2901EBC31300FA0CFB0CFA06F694
:1022D00008D83F2A534405D893F8C0C446EA0C06F0
:1022E00083F8C064B8EB400F03DA029BA0EB0E004A
:1022F00019445F4502DD039B38441A448D42DBD10B
:102300009442D9D1B9F1800F7FF47FAF0AF2B4477C
:102310000AF2BC460AF59864B0254FF00008304632
:102320008DF81F500135414604F018FA642301224C
:102330000DF11F013846EDB206F06CF9414630460A
:102340008DF81F8004F00AFA012264230DF11F01A9
:10235000384606F05FF91023414630468DF81F30AD
:1023600004F0FCF9642301220DF11F01384606F048
:1023700051F90121304604F0F1F98022214664230D
:102380003846144406F046F9B82DC6D109B0BDE868
:10239000F08F0024013453E70120039074E700BF5D
:1023A00000001643F0B5A5B005461220002401F048
:1023B00041FEADF80C000222039909A805F134068C
:1023C00003F0ACFC0F2001F035FEADF81000022246
:1023D00004990DF1360005F11C0703F09FFC152050
:1023E00001F028FEADF814000222059912A805F5A7
:1023F000927503F093FC162001F01CFEADF8180056
:10240000022206990DF15A0003F088FC102001F019
:1024100011FEADF81C00022207991BA803F07EFCF8
:10242000142001F007FEADF82000022208990DF1FA
:102430007E0003F073FC0423062209A9304603F052
:1024400081FCE1B2304603F0A1FE0146013438467A
:10245000019101F041FE2846DFED070A0023012229
:102460000199203503F096F9062CEAD1304603F0A5
:1024700077FE25B0F0BD00BF6F12033B10B50446D8
:1024800020202DED028B84B09FED1C8A01F0D2FD3F
:102490000346B0EE480A04F51770ADF80030009915
:1024A00003F0CEF9172001F0C5FD0346B0EE480A4F
:1024B00004F51B70ADF80430019903F0C1F9112047
:1024C00001F0B8FD0346B0EE480A04F51F70ADF800
:1024D0000830029903F0B4F9132001F0ABFD034674
:1024E000B0EE480A04F52370ADF80C30039904B03F
:1024F000BDEC028BBDE8104003F0A2B900007A44A5
:102500002DE9F04395B004464FF0000901AD04F504
:102510000D68284607F096FF04F50C6C0DF1140EBB
:1025200095E80F008CE80F008EE80F00012309AD3D
:10253000D4F8C8680F93129347F61223D4F8CC78D6
:1025400013930223CDE910939CE80F0085E80F0058
:10255000BDF828300E90C4F8D468C4F8D878ADF827
:102560003630BDF82A30ADF8343027B13A46494606
:1025700030462EF01FFE0DA9404606F039FF49F601
:10258000202504F6E40004F5104608F027F80120A1
:1025900001F050FD25440123A6F8200A2846A6F89C
:1025A000223A03F0F1FF284649F62425002104F0E1
:1025B000D5F840F201332544A6F8243A281DD6F870
:1025C000241A03F039FB05F1080008F007F815B0EC
:1025D000BDE8F0830B4600214FF480629B022DE999
:1025E000F04F824687B000F598608B4602930390C7
:1025F0002EF0E0FD4FF01E13CAF8B0340BF59863CF
:102600004FF00009019309F007023B4801240BEB4E
:10261000C9114FEAD903944000EBE1010198072268
:1026200064B200EBC3130298E543085C534440FADC
:1026300002F1013A013311F0010F13F8011C14BF2C
:102640002143294003F8011C511CF0D12B4B2C4A8B
:1026500003FB09F3B2EB730F0CD209F10109B9F1D5
:10266000400FD0D10BF1080BBBF1800FC6D107B0E2
:10267000BDE8F08F0AF2B4460AF2BC45DDF80C80E2
:10268000B024002128468DF8174001340F4604F08D
:1026900065F8642301220DF11701304605F0BAFFF9
:1026A000394628468DF8177004F058F80122642343
:1026B0000DF117013046E4B205F0ACFF10233946A6
:1026C00028468DF8173004F049F8642301220DF1F3
:1026D0001701304605F09EFF0121284604F03EF820
:1026E000414664238022304608F1800805F092FFBD
:1026F000B82CC6D1B1E700BF00910324ABAAAAAAA7
:10270000AAAAAA2A0021FFF765BF00BF2DE9F04F52
:1027100000F590338DB04A0109930692D3F8682BE7
:102720004B1C0391C3EB431302EB41159A1A079319
:102730009542944618D82E460121CB0801F0070790
:1027400001247F2E06EBC313214404FA07F403444B
:1027500005D893F8C07427EA040483F8C0443429E8
:10276000EBD10136B242E7D29DF80C30F7EE007A99
:102770009FEDC97AA2EB050A00EB4313BAF1000FF3
:10278000D3ED4C6AB8BFCAF1000A954277EEE67AFB
:10279000F0EEE77A67EE877AFDEEE77A17EE903A89
:1027A00003F1010780F08E817F2A00F2B4444FF0DC
:1027B000010B94BF002301233F2F049394BF0021FA
:1027C0000121059113B9002900F08C81D0463E46C5
:1027D000AE46F10806F007034FF00109BEF17F0F86
:1027E0000EEBC11109FA03F308D83F2E014405D8B6
:1027F00091F8C09443EA090381F8C0345FEA4803C2
:1028000018BFDE449A4501DDD044013E7245E0D157
:10281000B742DED100230893C7F13303332F83EA95
:10282000E371A1EBE3710B46B4BF01234FF0FF331B
:10283000C1F1000A01910293049B43B902F5407370
:10284000034493F8C01441F0080183F8C014332FF7
:1028500029D05646394696464FF0010BCB0801F079
:102860000708BEF17F0F0EEBC31306FA0BF90BFA44
:1028700008F808D83F29034405D893F8C0B448EABB
:102880000B0883F8C084BAEB460F03DA019B0EF104
:10289000FF3EF61AB9F1000F01D0029B19447245B0
:1028A000DAD13329D8D1A5EB020895428CBF012299
:1028B0004FF0FF32B8F1000FB8BFC8F100087F2D0C
:1028C00008D805F54073034493F8C01441F008019B
:1028D00083F8C014089B0BBBC6463326F30806F0EA
:1028E00007090121BCF17F0F0CEBC31301FA09F1B9
:1028F00008D83F2E034405D893F8C09441EA090153
:1029000083F8C0145FEA4E0318BF9444984501DD74
:10291000C644013E6545E1D1332EDFD117EE903A32
:10292000A3F1320CBCF1000FB8BFCCF1000C332F77
:10293000CCF1000600F3B2807F2D4FF0FF3A03D8B0
:10294000059B002B00F0B080332F26D0B1462946DE
:1029500033224FF0010BD30802F0070E7F2901EB61
:10296000C31306FA0BF80BFA0EFE08D83F2A0344ED
:1029700005D893F8C0B44EEA0B0E83F8C0E4B9EB67
:10298000460F02DA0139A6EB0C06B8F1000F00D0B1
:1029900052448D42DDD19742DBD1039BF1EE046AB4
:1029A000FFEE007A9FED3C7A03F59373069D079A3C
:1029B00000EB830393ED016A099BE6EE267AD3F8D8
:1029C000683B1D44A2EB030C6545F0EEE77A67EE29
:1029D000877AFDEEE77A17EE907A07F1010718D8AB
:1029E000332F13DC3A46D30802F0070601217F2D6E
:1029F00005EBC3130A4401FA06F1034404D893F823
:102A0000C064314383F8C014342AECD10135AC459D
:102A1000E6D200F2BC4704F10C0604F20C49B025E2
:102A20004FF0000838468DF82F500135414603F02D
:102A300095FE642301220DF12F012046EDB205F031
:102A4000E9FD414638468DF82F8003F087FE0122CC
:102A500064230DF12F01204605F0DCFD10234146D3
:102A600038468DF82F3003F079FE642301220DF1F2
:102A70002F01204605F0CEFD0121384603F06EFE01
:102A80008022314664231644204605F0C3FDB1453B
:102A9000C6D10DB0BDE8F08F00004C427F2D38D874
:102AA000059BB3BB4FF0010AFB0807F007010122A9
:102AB00005EBC3138A40034493F8C0140A4383F818
:102AC000C02441E77F2A00F2B4444FF0FF3B94BF9B
:102AD000002301233F2F049394BF0021012105917E
:102AE0008BB981B9FB08012107F0070602EBC3137C
:102AF00001FA06F6034493F8C014314383F8C01476
:102B00000023CDE9043395427FF460AE012308939E
:102B100082E6B1464FF0010A19E700BF70B50546DD
:102B200000F5927400F5F2762046203402F064FE3F
:102B3000A642F9D105F1F80001F03EFA05F517704B
:102B400002F098FE05F51B7002F094FE05F51F706B
:102B500002F090FE05F52370BDE8704002F08ABED9
:102B600000EB411191ED4C0A704700BF2DE9F04197
:102B70000746A2B01C303F4D01F0B2FA01284FF0D9
:102B800000016DD02B880122ADF84230AB88CDE931
:102B90001612ADF844302B89002401264FF00308AB
:102BA000ADF83E3009A9AB8968460E94ADF83C30CB
:102BB0002B8A0994ADF84030AB8A0094ADF82830E8
:102BC0002B8BADF82A301023CDE91446CDE90B64E8
:102BD0008DF83430CDE9128603F040FF264B009982
:102BE00001A8DA6822F47022DA60DA6842F4A022DE
:102BF000DA60019401F0D6FBAB8B18A92A8C03A8EC
:102C0000ADF866304FF48073ADF86A20ADF86430EB
:102C10004FF40073ADF86C40ADF868301896CDE90C
:102C20001E64CDE92046CDE90344CDE91C8604F0BD
:102C30002BFD0EA904A84FF07C5404F025FD302193
:102C40004FF07E52049B78180591089205A9039ACB
:102C5000CDF81880079402F0CBFC22B0BDE8F081DB
:102C60002A88AB8816901791ADF84220ADF8443011
:102C700091E700BFE08F0324000402582DE9F04FD4
:102C8000D0F8806000F2AC43876F8DB0D0F884201C
:102C900007EE903AA6EB070AC36F04460492BAF116
:102CA000000F30460393B8BFCAF1000AB7425CD3A5
:102CB0007F2E04F2B4454FF0FF3B94BF0021012169
:102CC0003F2B069194BF00230123089309B9002BE1
:102CD0005ED0B74274D0D046DDF80CC0BE464FEA95
:102CE000DC030CF007014FF00109BEF17F0F0EEB82
:102CF000C31309FA01F109D8BCF13F0F234405D8E9
:102D000093F8C09441EA090183F8C0145FEA4803CC
:102D100018BFDE449A4502DDD0440CF1FF3C7645F5
:102D2000DDD1039B6345DAD100230993DDE903314B
:102D3000CB1A83EAE37CACEBE37C039B8B42CDF8BC
:102D400014C040D33F2963460699CCF1000A94BFD2
:102D5000002301230793002940F0F781002B40F066
:102D6000F4814FF0FF3306933FE0039B04F2B44538
:102D70004FF0010B3F2B94BF002301237F2E0893BC
:102D800094BF002101210691002BA4D10029A2D1DA
:102D90000399B7424FEAD10301F0070C4FF001014C
:102DA00006EBC31301FA0CF1234493F8C0C441EAC3
:102DB0000C0183F8C0144FF00003089306938AD1E6
:102DC00001230993B2E7059B0699C3F1000A049B0E
:102DD0003F2B94BF002301230793002940F0B281C9
:102DE000002B40F0AF810123069304994FF0010CB2
:102DF000CB0801F0070106EBC3130CFA01F12344E1
:102E000093F8C0C441EA0C0183F8C014002307936F
:102E1000DDE903318B4200F0A081D6460399B44628
:102E20004FF0010BCB0801F00708BCF17F0F0CEB52
:102E3000C3130EFA0BF90BFA08F808D83F292344FC
:102E400005D893F8C0B448EA0B0883F8C084BAEBFD
:102E50004E0F04DA059B0CF1FF3CAEEB030EB9F10B
:102E6000000F01D0069B19446645D9D1049B8B42C3
:102E7000D6D14FF0000BA7EB0608B7428CBF012656
:102E80004FF0FF36079BB8F1000FB8BFC8F100083C
:102E90007F2F94BF4FF0000A4FF0010A9BB9BAF19F
:102EA000000F10D104994FF0010CCB0801F007017D
:102EB00007EBC3130CFA01F1234493F8C0C441EAB1
:102EC0000C0183F8C014099B33BBC646DDF810C063
:102ED0004FEADC030CF007014FF001097F2800EBFB
:102EE000C31309FA01F109D8BCF13F0F234405D8F7
:102EF00093F8C09441EA090183F8C0145FEA4E03D5
:102F000018BF8019984502DDC6440CF1FF3C87428A
:102F1000DED1049B6345DBD1DDE90331A3EB010E78
:102F20008B428CBF4FF001084FF0FF38BEF1000F0D
:102F3000B8BFCEF1000ECEF1000CBAF1000F0FD1E8
:102F4000089969B91946DB0807EBC31301F00700BC
:102F500001212344814093F8C004014383F8C01445
:102F6000BBF1000F25D1604639460126D30802F097
:102F7000070A7F2900FA06F901EBC31306FA0AF6DD
:102F800008D83F2A234405D893F8C0A446EA0A0685
:102F900083F8C064BCEB400F02DA0139A0EB0E00ED
:102FA000B9F1000F00D042448F42DED1039B93421F
:102FB000DBD127460026DFF8AC8117EE909AB7F8F0
:102FC00064004FF0010CB7F8602008373F2894F8F0
:102FD0005C10634B28BF3F2031447F2A6644A4F82D
:102FE000B20428BF7F22A3FB01030229A4F8B02466
:102FF00023F0010202DD02EB5303C91ACDF800C031
:10300000484654F8211098E80C00FDF7BFFE032E47
:10301000D5D194F83F2504F2BF4304F23E5142F06B
:10302000010284F83F2513F8012F42F00102994272
:103030001A70F8D194F83F28002342F0100284F867
:103040003F281A0103F00700012142F07F020B44E0
:1030500081402244342B92F8C00441EA000182F8F6
:10306000C014EED194F8C02704F5046104F2C176CF
:1030700042F0100284F8C02711F8010D40F0100052
:103080008E420870F8D194F8C0140620164641F01C
:10309000010184F8C01403E004EBC01292F8C0648C
:1030A00003F00702012104EBC010013B01FA02F119
:1030B00041EA060280F8C0244FEAD300ECD104F2C2
:1030C000BC4405F10C0705F20C49B0264FF000088E
:1030D00020468DF82F600136414603F03FFB642304
:1030E00001220DF12F012846F6B205F093FA414670
:1030F00020468DF82F8003F031FB012264230DF16F
:103100002F01284605F086FA1023414620468DF807
:103110002F3003F023FB642301220DF12F012846F9
:1031200005F078FA0121204603F018FB8022394689
:1031300064231744284605F06DFAB945C6D10DB091
:10314000BDE8F08F0123069367E64FF0FF33069347
:10315000DDE903318B427FF460AE4FF0010B8AE66C
:10316000ABAAAAAA6C0300202DE9F041044600F5A1
:10317000986084B04FF48062002180462EF01AF8E7
:10318000B4F86420B4F8603004F2B4463F2A94F8EE
:103190005C10294804F2BC4528BF3F227F2B54F81D
:1031A000211028BF7F23A4F8B224A4F8B03401234F
:1031B000009390E80C0004F2AC40B024FDF7E6FD6B
:1031C000002728468DF80F400134394603F0C6FA2F
:1031D000642301220DF10F013046E4B205F01AFA22
:1031E000394628468DF80F7003F0B8FA012264239F
:1031F0000DF10F01304605F00DFA1023394628462F
:103200008DF80F3003F0AAFA642301220DF10F01AB
:10321000304605F0FFF90121284603F09FFA80228D
:10322000414664233046904405F0F4F9B82CC7D1E8
:1032300004B0BDE8F08100BF6C03002000F2AC4395
:103240002DE9F04F012405462DED028B08EE103AD2
:103250008FB00122D308012102F0070004EBC31351
:103260000A4401FA00F02B44342A93F8C01421EAEE
:10327000000183F8C014EDD101347F2CE9D105F1B0
:103280000C030322CDE905530023CDE90232039854
:1032900005210124324BA5F8B2040698A5F8B01414
:1032A00050F8041B0CCB069018EE100A0094FDF7A2
:1032B0006DFD95F85D30029A934253D0039B029ABC
:1032C00005990A33013210319BB2042A029205910A
:1032D0000393DCD105F2B44705F2BC4605F59864CA
:1032E000B0254FF0000830468DF837500135414683
:1032F00003F034FA642301220DF137013846EDB2B0
:1033000005F088F9414630468DF8378003F026FAFB
:10331000012264230DF13701384605F07BF91023B3
:10332000414630468DF8373003F018FA6423012205
:103330000DF13701384605F06DF90121304603F0F3
:103340000DFA8022214664233846144405F062F9C0
:10335000B82DC6D10FB0BDEC028BBDE8F08F00BF19
:103360006C030020059BD3F8B060D3F8A870D3F8A5
:10337000B4C03046A6EB0709D3F8AC306246B9F1C9
:10338000000F0493B8BFC9F10009B742C0F03E81F5
:103390007F2E4FF0FF3B94BF002101213F2B08916E
:1033A00094BF00230123099391B98BB90499012497
:1033B000CB0801F0070106EBC31304FA01F12B441B
:1033C00093F8C044214383F8C0140023CDE90833A7
:1033D000B74200F04381C846049CBE46E30804F0AF
:1033E00007014FF0010ABEF17F0F0EEBC3130AFA7B
:1033F00001F108D83F2C2B4405D893F8C0A441EA2A
:103400000A0183F8C0145FEA480318BFDE449945F7
:1034100001DDC844013C7645E0D1049BA342DDD1E7
:1034200000230B930499ACEB0103614583EAE37439
:10343000A4EBE37423460794C0F0F780BCF13F0F80
:103440000899C4F1000A94BF002301230A930029BC
:1034500040F0FA80002B40F0F7804FF0FF330893E4
:103460004FEADC0301240CF0070106EBC31304FA56
:1034700001F12B4493F8C044214383F8C014002386
:103480000A93049B634500F0EC80D64604993446C9
:103490004FF00109CB0801F007087F2C04EBC313A0
:1034A0000EFA09FB09FA08F808D83F292B4405D879
:1034B00093F8C09448EA090883F8C084BAEB4E0F29
:1034C00003DA079B013CAEEB030EBBF1000F01D00A
:1034D000089B1944A642DBD18C45D9D14FF0000B93
:1034E000A7EB0608B7428CBF01264FF0FF360A9BB8
:1034F000B8F1000FB8BFC8F100087F2F94BF4FF09C
:10350000000A4FF0010A8BB9BAF1000F0ED14FEA51
:10351000DC0301240CF0070107EBC31304FA01F1EB
:103520002B4493F8C044214383F8C0140B9B0BBB7E
:10353000C6466446E30804F007014FF001097F28FE
:1035400000EBC31309FA01F108D83F2C2B4405D82E
:1035500093F8C09441EA090183F8C0145FEA4E036E
:1035600018BF8019984501DDC644013C8742E1D16E
:10357000A445DFD10499099BA1EB0C0861458CBFE0
:103580004FF0010C4FF0FF3CB8F1000FB8BFC8F18D
:103590000008C8F1000E83B9BAF1000F0DD1CB08B5
:1035A000012001F0070107EBC31300FA01F12B44DE
:1035B00093F8C004014383F8C014BBF1000F7FF4FB
:1035C0007DAE704639460124D30802F007097F29F1
:1035D00000FA04F601EBC31304FA09F408D83F2AF1
:1035E0002B4405D893F8C09444EA090483F8C044F6
:1035F000BEEB400F02DA0139A0EB080006B16244CD
:103600008F42E0D1049B9342DDD157E604997F2E8F
:1036100094BF002301233F29089394BF0021012177
:103620000991C3B9B9B9A346C0E6079BBCF13F0FE6
:103630000899C3F1000A94BF002301230A9339B902
:1036400033B9012308930BE74FF0FF33089318E7D2
:103650000123089319E74FF0010BBCE601230B93FC
:10366000E0E64FF0010B3BE790F85C302DE9F041CC
:10367000074682B0002B46D0022B01D1FFF7DEFDBA
:1036800007F2B44607F2BC45B02407F598674FF03F
:10369000000828468DF807400134414603F05EF8E3
:1036A000642301220DF107013046E4B204F0B2FFB9
:1036B000414628468DF8078003F050F80122642324
:1036C0000DF10701304604F0A5FF102341462846BE
:1036D0008DF8073003F042F8642301220DF1070151
:1036E000304604F097FF0121284603F037F8802286
:1036F000394664233046174404F08CFFB82CC6D1F9
:1037000002B0BDE8F08106F091F907F59033D3F8E7
:10371000702BD3F8743B801A9842B1D93846FEF723
:103720004BFDADE790F85C30194402292DE9F041DA
:10373000074682B0144603DC002957DBC9B200E01B
:10374000002107F5986887F85C104FF4806200212B
:1037500040462DF02FFD3846002C44D0FFF78EFA5E
:10376000384607F2B44607F2BC45B024FFF77CFFA9
:10377000002728468DF807400134394602F0EEFF55
:10378000642301220DF107013046E4B204F042FF48
:10379000394628468DF8077002F0E0FF01226423C5
:1037A0000DF10701304604F035FF10233946284655
:1037B0008DF8073002F0D2FF642301220DF10701DA
:1037C000304604F027FF0121284602F0C7FF80227F
:1037D000414664233046904404F01CFFB82CC7D106
:1037E00002B0BDE8F081FFF7BFFCB9E70321A8E70D
:1037F0002DE9F041012184B005462A4CFEF7EAFE8E
:103800000120294B05F2B447C5F8B04405F2BC4687
:10381000B02426490CCB009005F2AC4005F5986524
:10382000FDF7B4FA4FF0000830468DF80F40013430
:10383000414602F093FF642301220DF10F01384647
:10384000E4B204F0E7FE414630468DF80F8002F006
:1038500085FF012264230DF10F01384604F0DAFEE2
:103860001023414630468DF80F3002F077FF642375
:1038700001220DF10F01384604F0CCFE0121304643
:1038800002F06CFF8022294664233846154404F078
:10389000C1FEB82CC6D1032004B0BDE8F04106F04B
:1038A000CFB800BF140037006C030020F090032451
:1038B0002DE9F04390F80A3183B00446FF2B13D072
:1038C00090F85C30012B00F0C780022B00F0E980FB
:1038D000002B00F0B18004F5903393F86C2B002A94
:1038E00040D103B0BDE8F08306F0A0F807EE900ADF
:1038F000D4ED436AF8EE677A9FED8B7A77EEE67A3D
:10390000F4EEC77AF1EE10FA09DD04F5903595F87A
:103910006C3B002B00F0B98094F8FC3073BB94F83A
:103920005C30012B00F09880022B00F0CF80002B40
:1039300000F0828094F80A31FF2BCCD106F076F8A3
:1039400007EE900AD4ED436AF8EE677A9FED767A37
:1039500077EEE67AF4EEC77AF1EE10FABBD403B054
:10396000BDE8F0830022204683F86C2BFFF7FCFBB8
:10397000204603B0BDE8F043FFF776BED4F81C3113
:10398000002BCCD094F85C201344022B00F3AB80C6
:10399000002BC0F2BE80DBB204F598604FF4806269
:1039A000002184F85C30814604F2B4472DF002FC1B
:1039B00004F2BC462046B025FFF760F92046FFF729
:1039C00053FE4FF0000830468DF807500135414650
:1039D00002F0C4FE642301220DF107013846EDB266
:1039E00004F018FE414630468DF8078002F0B6FE1E
:1039F000012264230DF10701384604F00BFE102369
:103A0000414630468DF8073002F0A8FE64230122BB
:103A10000DF10701384604F0FDFD0121304602F0AA
:103A20009DFE494664238022384609F1800904F04E
:103A3000F1FDB82DC5D172E705F0F8FF04F590331C
:103A4000D3F8702BD3F8743B801A98427FF672AF8C
:103A50002046FEF7B1FB6DE704F5903605F0E6FF72
:103A6000D6F8702BD6F8743B801A98427FF662AF76
:103A7000002505F0DBFFC6F8700B2946013520460E
:103A8000FEF744FE042DF8D154E72046FFF7F6F880
:103A9000012385F86C3B94F8FC30002B3FF43FAFDA
:103AA0006CE794F8FC30002B3FF415AFD4F81C21E0
:103AB000002A3FF43FAF04F5903393F86C1BA1B19B
:103AC00094F80A21FF2A7FF44DAF37E794F80A31C2
:103AD000FF2BE6D194F85D30032B12D094F8FC3024
:103AE000002BE3D12AE7002356E7012A94F85D3042
:103AF00011D093B11344204684F85D30FFF79EFB4C
:103B000018E72046FFF774FE94F8FC30002BCDD167
:103B100010E7032340E7022BECD994F80A31FF2B7E
:103B20007FF4DFAE0AE700BF0000964384B02DE9C2
:103B3000F04182B00125064604460DF12408857245
:103B4000274688E80E00BDF84C3026F8083F30467E
:103B500002F01AFDBDF84E30A57127F8043F384633
:103B600002F012FD4146204604F0CCFC002138460C
:103B700002F0F4FD0A2005F05BFF2946384602F00A
:103B8000EDFD0A2005F054FFAE23304600218DF8EC
:103B9000073002F0E3FD2A460DF1070164232046B9
:103BA00004F038FDD523304600218DF8073002F0AF
:103BB000D5FD2A460DF107016423204604F02AFDB5
:103BC0008023304600218DF8073002F0C7FD2A46D9
:103BD0000DF107016423204604F01CFDA8233046A4
:103BE00000218DF8073002F0B9FD2A460DF10701DA
:103BF0006423204604F00EFD3F23304600218DF85B
:103C0000073002F0ABFD2A460DF107016423204680
:103C100004F000FDDA23304600218DF8073002F071
:103C20009DFD2A460DF107016423204604F0F2FCB5
:103C30001223304600218DF8073002F08FFD2A460E
:103C40000DF107016423204604F0E4FC0021D32396
:103C500030460F468DF8073002F080FD2A46642377
:103C60000DF10701204604F0D5FC394630468DF8A9
:103C7000077002F073FD2A460DF107016423204608
:103C800004F0C8FC4023394630468DF8073002F076
:103C900065FD2A460DF107016423204604F0BAFCB5
:103CA000A623394630468DF8073002F057FD2A46E4
:103CB0000DF107016423204604F0ACFCA42339462F
:103CC00030468DF8073002F049FD2A460DF1070114
:103CD0006423204604F09EFC8D23394630468DF83F
:103CE000073002F03BFD2A460DF107016423204610
:103CF00004F090FC1423394630468DF8073002F06A
:103D00002DFD2A460DF107016423204604F082FCB4
:103D1000A123394630468DF8073002F01FFD2A46B0
:103D20000DF107016423204604F074FCC8233946D2
:103D300030468DF8073002F011FD2A460DF10701DB
:103D40006423204604F066FC8123394630468DF812
:103D5000073002F003FD2A460DF1070164232046D7
:103D600004F058FC8F23394630468DF8073002F0B6
:103D7000F5FC2A460DF107016423204604F04AFCB5
:103D8000D923394630468DF8073002F0E7FC2A4641
:103D90000DF107016423204604F03CFC252339463D
:103DA00030468DF8073002F0D9FC2A460DF10701A4
:103DB0006423204604F02EFCDB23394630468DF880
:103DC000073002F0CBFC2A460DF1070164232046A0
:103DD00004F020FC3423394630468DF8073002F0D9
:103DE000BDFC2A460DF107016423204604F012FCB5
:103DF000AF23394630468DF8073002F0AFFC64231C
:103E00002A460DF10701204604F004FC02B0BDE88B
:103E1000F04104B0704700BFF0B540F606329FB0E5
:103E20001F4B0646092016AD6C46CDE9082300F06D
:103E300001F903461F20ADF8483000F0FBF80222DC
:103E40000B2100230DF1200EADF822100121ADF859
:103E50004A000DF14C0C0A936746CDE91022082266
:103E6000CDE90E33CDE90B310D92BEE80F00ACE881
:103E70000F00BEE80F00ACE80F009EE807008CE8DA
:103E800007000FCD0FC495E80F0084E80F0006F27D
:103E9000B44097E80E00FFF749FE1FB0F0BD00BF29
:103EA0000105060A30B5054685B0FEF77BFA2846BF
:103EB00005F59034FEF7E2FA1123C4F8743B05F0DF
:103EC000B5FD2B460122C4F8700BC3F8AC200124C9
:103ED0000A323F21C3F8A8401033332AC3E928121D
:103EE000F3D12846FFF798FF062000F0A3F8034619
:103EF0000520ADF8043000F09DF803460420ADF82D
:103F0000083000F097F8ADF80C0005F1F8009FEDCF
:103F1000080A039BDDE9011200F01EF82846FEF7AF
:103F200025FE284605B0BDE83040FEF7E9BA00BFDF
:103F30000000000010B5054C204612F04DFF204651
:103F4000034A0449BDE8104012F004BF08340120C0
:103F5000000000204170012430B585B004460025E2
:103F6000ADF80C10ADF80820ADF8043005F05EFD9A
:103F7000BDF80C204FF48073206004F118002283F8
:103F8000BDF808206383E383A283257102F0FCFA65
:103F900004F11C0002F0F8FA9FED060A019904F101
:103FA000080001F04DFC4FF6FF736562238405B0F5
:103FB00030BD00BF00000000F8B5044605F036FD36
:103FC000002623682671834205D104F10800BDE86C
:103FD000F84001F04FBC012794F82050206004F114
:103FE0001800BD40277102F0ABFB6DB2284394F876
:103FF0002150BD4084F8200004F11C0002F0A0FB19
:1040000094F820306DB2666203F003032843022B5C
:10401000C0B284F8210009D000F003000228D4D1F6
:10402000002BD2D14FF0FF336362CEE78307CCD1B0
:104030006762CAE7202882B009D8084B03EB400228
:1040400013F81030507843EA002002B07047012383
:104050000C2043EA002002B0704700BF00990324FF
:10406000143001F063BB00BF38B500F114050446FD
:104070002DED028B284601F015FB284601F00EFBC2
:104080002846B0EE408A01F0F7FAD0ED007AF8EE5B
:10409000677A88EE277ABDEC028B84ED0E7A38BD04
:1040A00038B500F1140504462DED028B284601F0C9
:1040B000E7FA284601F0F2FA2846B0EE408A01F00D
:1040C000DBFAD0ED007AF8EE677A88EE277ABDEC5D
:1040D000028B84ED0E7A38BD90ED0E0A704700BF5A
:1040E00010B540F203338EB000244FF60B7240F24D
:1040F0000341ADF8083009A80123ADF81020ADF850
:1041000024202246ADF80C100094029907940C94D8
:10411000CDE90544CDE90A4402F03AF904A80123A7
:1041200022460399009402F033F909A802F016FA26
:1041300010B901200EB010BD04A802F00FFAA04281
:104140000CBF022020460EB010BD00BF2DE9F0418B
:1041500003239AB0012700240646CDE914373B4BD0
:10416000CDE9104340F20453CDE91647ADF848308D
:10417000FFF7B6FFB842054625D0022845D040F6E5
:104180000132334B0DF12C081894ADF82C200B980C
:104190001997CDF84A3000F0E3F810A906F13C0079
:1041A00003F072FA302003224FF07E5341460D9304
:1041B0000E93CDE90B02F26B06F1140001F0E0F969
:1041C0001AB0BDE8F0811023214A06A906908DF8A7
:1041D00028300DF12C081F4BCDF84A20079302948C
:1041E000CDE91804CDE9080402A802F037FC082341
:1041F000029A03A94046ADF80C508DF80E40049584
:1042000005930B9400F0A2F9C7E700200121104BA1
:104210000DF12C083A460094CDF84A304FF60B7356
:104220000C94ADF82C302346CDE9180140F601314D
:104230004046ADF818100699CDE90D4402F0A8F8F3
:104240002146404602F096F9A7E700BF04020404A5
:10425000040604030704010B2DE9F04704462DED85
:10426000028B82B000294DD0012140F201120023BF
:104270000091ADF804208DF80630364A0127364B00
:1042800004F10409354904F12908626040F2027220
:10429000A36040F60663E16004F1250AA4F8252036
:1042A000A4F82930278284F8277084F82B7005F051
:1042B000A7FD054605F00AFC6946064650BB4DB30E
:1042C00004F130008DF8067005F022FD072D3CD179
:1042D00004F114052046FFF739FF284601F0DEF906
:1042E0002846B0EE408A01F0C7F9D0ED007AF8EE2A
:1042F000677A88EE277A84ED0E7A02B0BDEC028BE5
:10430000BDE8F08740F2011300918DF80610ADF87A
:104310000430B2E704F1300005F0FAFC072D11D0AB
:104320004946204602F030FE0EB9002DD0D150464D
:1043300002F02AF9404602F027F904F1120000F0D9
:104340002FFAC5E7002EF2D1C2E74946204602F017
:104350001BFEBDE70508050905070506050A060653
:1043600010B584B003460124ADF8040003A8ADF8ED
:104370000C30ADF80E4002F007F9214603A802F018
:10438000EDF9204605F054FB002103A802F0E6F900
:10439000204605F04DFB214603A802F0DFF904B0EA
:1043A00010BD00BFF0B58C2387B0016000220371FF
:1043B0000124FA26194605AB8DF8142002964022F6
:1043C000009323460194054602F006FC002840F0C5
:1043D0009B809DF814300DF117074022284603F00A
:1043E0007F030097CDE901468DF814308DF8173022
:1043F0002346297902F016FC002840F0858004202D
:1044000005F016FB05AB4022284600932346CDE974
:104410000146297902F0E0FB002875D19DF814309F
:1044200040220097284603F0BF03CDE901468DF8EE
:1044300014308DF817302346297902F0F3FB002859
:1044400062D1042005F0F4FA0DF115034322284649
:1044500000932346CDE90146297902F0BDFB0028EF
:1044600052D10DF116034822284600932346CDE988
:104470000146297902F0B0FB002845D19DF815309E
:1044800043220097284643F001038DF815308DF83C
:1044900017309DF8163043F00103CDE901468DF841
:1044A00016302346297902F0BDFB68BB9DF8163013
:1044B0004822009728468DF817302346CDE901465B
:1044C000297902F0AFFBF8B905AB402228460093EA
:1044D0002346CDE90146297902F07EFBA0B99DF87B
:1044E000142023460194284602F0CF040296009738
:1044F000402229798DF814408DF8174002F092FB84
:10450000003818BF012000E0012007B0F0BD00BF57
:1045100010B5C2F3002384B00C46017C8DF80D2049
:1045200043EA4402FA2402238DF80C2003AA0094E3
:1045300002F02AFB18B10124204604B010BD044645
:104540000A2005F075FA204604B010BD034670B588
:1045500043F8042B044684B007C983E80700A37915
:1045600083B91A210B461E22FA2523742046ADF882
:104570000C20022303AA009502F006FB28B10120BB
:1045800004B070BD1B210B46EDE70A2005F050FA80
:104590004FF4B85200950223ADF80C20204603AA30
:1045A000217C02F0F1FA0028E9D10A2005F040FA56
:1045B00041F2027200950223ADF80C20204603AAB6
:1045C000217C02F0E1FA0028D9D10A2005F030FA66
:1045D000042200950223ADF80C20204603AA217C7A
:1045E00002F0D2FA0028CAD10A2005F021FA0622E8
:1045F00000950223ADF80C20204603AA217C02F08E
:10460000C3FA0028BBD10A2005F012FA41F20822B1
:1046100000950223ADF80C20204603AA217C02F06D
:10462000B3FA0028ABD10A20064605F001FA00953E
:10463000022303AA217C2046ADF80C6002F0A4FA04
:1046400000289CD1304605F0F3F9009522790C231F
:104650002046002A8DF80C3003AA4FF0020314BF45
:10466000622142218DF80D10217C02F08DFA002884
:1046700085D1304605F0DCF92279D4E902310B43CB
:10468000DBB20AB943F0400362790AB143F0200378
:104690000E22FA258DF80D302046009502238DF864
:1046A0000C2003AA217C02F06FFA00287FF467AF88
:1046B0000A2005F0BDF9102200950223ADF80C2068
:1046C000204603AA217C02F05FFA00287FF457AF4E
:1046D0000A2005F0ADF9122100950223ADF80C1067
:1046E00003AA217C204602F04FFA00287FF447AF4E
:1046F0000A2005F09DF9012209212046FFF708FF55
:10470000003818BF01203BE7F0B5102387B0234CD9
:10471000012200250126002702A920460195CDE9A6
:1047200002234FF48052CDE904670CF0A3FE64200D
:1047300005F0C4FF02A94FF480522046CDE904677A
:1047400002261027CDE902670CF094FE0322102305
:1047500002A92046CDE9022300230422CDE9042347
:104760004FF480520CF086FE40F23223042202A95C
:10477000019310232046CDE90223019A01230592DB
:104780004FF4805204930CF075FE40F6060120466B
:104790000CF090FE284607B0F0BD00BF1434012095
:1047A0001C4B00221C494FF0400C30B5054689B027
:1047B0000220596007219A601A620124DA620A22F3
:1047C0004FF4006EDC6006922022CDE90001042047
:1047D0000821CDE9020103201021CDE904010820C0
:1047E0006946C3E904024FF4C072181DC3E906C24A
:1047F0004FF48052C3E909E20CF012FE38B92846A2
:10480000FFF782FF003818BF012009B030BD2046F5
:1048100009B030BD1034012040410052614A0021EE
:10482000D0B513688EB00A91002B40F0B9805E4B72
:1048300001214FF683700C2411600221D3F8D4209B
:104840000026032742F48052C3F8D420D3F8D420A2
:1048500002F480520092009AD3F8E02042F0100255
:10486000C3F8E020D3F8E02002F010020192019A90
:10487000D3F8E02042F04002C3F8E020D3F8E02073
:1048800002F040020292029AD3F8E02042F00802BD
:10489000C3F8E020D3F8E02002F008020392039A64
:1048A000D3F8E02042F48072C3F8E020D3F8E0208F
:1048B00002F480720492049AD3F8E02042F080025D
:1048C000C3F8E020D3F8E02002F080020592059AB8
:1048D000D3F8E02042F02002C3F8E020D3F8E02033
:1048E00002F020020692069AD3F8E02042F0040279
:1048F000C3F8E020D3F8E0300C9403F004030793EE
:104900000323079A0B93CDE9080108A9274807F06C
:104910006DFD48F23712022308A925480C94CDE911
:104920000823CDE90A6707F061FD4CF20372022308
:1049300008A920480C94CDE90823CDE90A6707F0BF
:1049400055FD40F2FF62022308A91B480C94CDE9F3
:104950000823CDE90A6707F049FD4FF60C720223E0
:1049600008A916480C94CDE90823CDE90A6707F099
:104970003DFD4FF63F02022308A911480C94CDE9F2
:104980000823CDE90A6707F031FD2022022308A998
:104990000A480C94CDE90A67CDE9082307F026FD03
:1049A0000EB0D0BD0C340120004402580010025853
:1049B00000180258000C025800200258001C02582F
:1049C000001402582DE9F04FDFF8108406460D461A
:1049D000144608F118002DED028B89B000AF02F0EB
:1049E0004BFFD8F8183073B3D8F81C30D8F80490BF
:1049F000002B43690BBF4FF0080A4FF0100A4FF02D
:104A0000020B4FF0040BB9F1000F2AD0A200EA46C6
:104A1000012B02F1070222F00702ADEB020D6846FE
:104A2000ADEB020D694600F03F81022B00F0D6800D
:104A3000002B6FD02246C847D5462437BD46BDEC73
:104A4000028BBDE8F08FD8F81C30002BF5D0D8F8D9
:104A500004904FF0080A4FF0020B4369B9F1000FC0
:104A6000D4D1FB61D8F80030BB61002BE5D0D5482C
:104A700002F074FF6B46BBF1020F786108EE103A4A
:104A8000FB6900F083816A465146A2EBC402954659
:104A90006200EA46B2FBFBF2AAEBC40085460AEBD1
:104AA0008200EE46F861ADEB010DF8690EEB820C69
:104AB000C7F810C0EC46ADEB010D00EB8201CCF85D
:104AC0000400CCF8081001EB82013869E946CCF803
:104AD0000C1000EB8201CCF800A001EB8202C9E9C6
:104AE00000E0C9E90212012B00F06483022B00F000
:104AF0006C82002B00F08081620849466046BB69E9
:104B0000984718EE103A24379D46BD46BDEC028BFF
:104B1000BDE8F08F002C8DD01A46D8ED0C6A9FEDC1
:104B2000B27A8446331D36F922E00CF1080C07EE08
:104B300090EA33F922E00232F8EEE77A944267EE27
:104B4000877A67EEA67A4CED027A07EE90EAF8EEE5
:104B5000E77A67EE877A67EEA67A4CED017AE2D8BB
:104B6000F9612246C847984ED8ED0D6A0020F969D0
:104B70002B1D9FED9E7A9FED9E6ADFED9E5A22E0EF
:104B8000F4EEC67AF1EE10FAC0F2C88447F6FE726F
:104B9000D1ED017A45F8202066EEA77AF4EEC77AC7
:104BA000F1EE10FA40F2F080F4EEC67AF1EE10FA6F
:104BB000C0F2D58447F6FE7243F820200230083157
:104BC00084427FF639AFD1ED007A66EEA77AF4EE33
:104BD000C77AF1EE10FAD3D83246D9E7002C3FF469
:104BE00029AFD8ED0C6A84469FED787A0022331DF8
:104BF0008E4656F822100CF1080C07EE901A53F866
:104C000022100232F8EEE77A944267EE877A67EE76
:104C1000A67A4CED027A07EE901AF8EEE77A67EE84
:104C2000877A67EEA67A4CED017AE2D87146224681
:104C3000C7F81CE0C847664ED8ED0D6A0020F96938
:104C40002B1D9FED6A7A9FED6A6ADFF894C120E020
:104C5000F4EEC67AF1EE10FAC0F279843246D1ED64
:104C6000017A45F8202066EEA77AF4EEC77AF1EED5
:104C700010FA40F28780F4EEC67AF1EE10FAC0F234
:104C80005E84324643F820200230083184427FF6A9
:104C9000D3AED1ED007A66EEA77AF4EEC77AF1EEE4
:104CA00010FAD5D86246DAE7002C3FF4C3AED8ED4F
:104CB0000C6A86469FED477A4FF0000C331D56F87C
:104CC0002C200EF1080E82F40002A2F5000207EE7D
:104CD000902A53F82C200CF1020CF8EEE77A82F4BB
:104CE00000026445A2F5000267EE877A67EEA67AB5
:104CF0004EED027A07EE902AF8EEE77A67EE877AB1
:104D000067EEA67A4EED017AD9D8F9612246C847F6
:104D1000314ED8ED0D6A0020F9692B1D9FED337AD5
:104D20009FED336ADFF8BCC01FE0F4EEC67AF1EE07
:104D300010FAC0F2FC833246D1ED017A45F820200A
:104D400066EEA77AF4EEC77AF1EE10FA18D9F4EE0F
:104D5000C67AF1EE10FAC0F2DA83324643F8202028
:104D60000230083184427FF667AED1ED007A66EEFC
:104D7000A77AF4EEC77AF1EE10FAD6D86246DBE7EE
:104D80006246EBE762467DE7324615E7A100D6466C
:104D90006208073121F00701ADEB010DEA46ADEBEA
:104DA000010D6946ADEB0E0D0AEB8200EC46ADEB52
:104DB0000E0D01EB8202F861E946CCE900A0C9E9D9
:104DC000001290E6643401200280FFFF00000030F2
:104DD0000082FF7F0000003482FF7F004834012002
:104DE000007E00807E0080FF0000003804FF7FBF4F
:104DF00004FF7F3F00FEFF46002C00F0C982BBF19C
:104E0000020FD8F8242000F0FA827969C7F80490DC
:104E100002EB810E5FED0C5A8A00DCF808100EF1EF
:104E200004007A611A46DCF80C303B61331DD7F878
:104E300010903D61FD69C7E902CB8C46834636F987
:104E40002210D8ED0C7A06EE101A33F9221006EE75
:104E5000901A3EF92210B8EEC66A07EE101AF8EE64
:104E6000E66A3BF92210B8EEC77A26EE256A66EEAE
:104E7000A56A27EE257A26EE276A66EEA76A27EE50
:104E8000277A07EE901A51080232F8EEE77A0AEB19
:104E90008100944280ED006A05EB810067EEA57AFF
:104EA000C0ED006A0CEB810009EB810180ED007A16
:104EB00098ED0C7A67EE877AC1ED007ABFD8D7F803
:104EC00004903D69D7E902CB60466208BB69494658
:104ED0009847D8F82C307A69D8ED0D6A1A441FED3E
:104EE0003D7A1FED3D6A2B1D904602F1040A5FEDED
:104EF0003F5A0022A84ED9E900EC51E0F4EEC67A00
:104F0000F1EE10FAC0F2C78247F6FE7045F82200B3
:104F10000CEB0100D0ED007A66EEA77AF4EEC77ACA
:104F2000F1EE10FA4BD9F4EEC67AF1EE10FAC0F2B7
:104F3000BA8247F6FE70BBF1020F43F822002BD075
:104F4000D9F808000844D0ED007A66EEA77AF4EEAE
:104F5000C77AF1EE10FA36D9F4EEC67AF1EE10FA0D
:104F6000C0F2CD8247F6FE7048F82200D9F80C0056
:104F70000144D1ED007A66EEA77AF4EEC77AF1EE3D
:104F800010FA1ED9F4EEC67AF1EE10FAC0F2AF8232
:104F900047F6FE714AF82210023294427FF6B1AD14
:104FA00051080EEB81008900D0ED007A66EEA77AF9
:104FB000F4EEC77AF1EE10FAA0D83046A6E73046F4
:104FC000B9E73146E6E73046CEE7002C00F0E08155
:104FD000BBF1020FD8F8243000F0E1817A69DCF8E7
:104FE000081003EB820EC7F804909300DFED6B5AB4
:104FF0000EF1040000227B61DCF80C303B61331DB4
:10500000D7F810903D61FD69C7E902CB8C46834615
:1050100056F82210D8ED0C7A07EE101A53F8221029
:10502000B8EEC76A07EE101A5EF82210F8EEC76AEB
:1050300007EE101A26EE256A5BF82210B8EEC77A42
:1050400066EEA56A26EE276A27EE257A66EEA76A3F
:1050500027EE277A07EE901A51080232F8EEE77A27
:105060000AEB8100944280ED006A05EB810067EE57
:10507000A57AC0ED006A0CEB810009EB810180ED9F
:10508000007A98ED0C7A67EE877AC1ED007ABFD886
:10509000D7F804903D69D7E902CB60466208BB6946
:1050A00049469847D8F82C307A69D8ED0D6A1A44E9
:1050B0009FED3E7A9FED3E6A131D9246DFF8E4C0F5
:1050C0000022FB612B1D364ED9E9008E4EE0F4EE36
:1050D000C67AF1EE10FAC0F2FC81304645F82200A3
:1050E0000EEB0100D0ED007A66EEA77AF4EEC77AF7
:1050F000F1EE10FA49D9F4EEC67AF1EE10FAC0F2E8
:10510000EF813046BBF1020F43F822002AD0D9F8D4
:1051100008000844D0ED007A66EEA77AF4EEC77A6C
:10512000F1EE10FA35D9F4EEC67AF1EE10FAC0F2CB
:10513000C98130464AF82200D9F80C000144D1ED6B
:10514000007A66EEA77AF4EEC77AF1EE10FA1ED96D
:10515000F4EEC67AF1EE10FAC0F2AD813146F8698C
:1051600040F82210023294427FF6CBAC510808EB93
:1051700081008900D0ED007A66EEA77AF4EEC77A56
:10518000F1EE10FAA3D86046A8E76046BAE7614698
:10519000E5E76046CEE700BF0280FFFF0000003079
:1051A0000082FF7F007E00800000003404FF7FBF8C
:1051B00004FF7F3F002C00F0EB807A690021D8F8D3
:1051C0002430C7F8109003EB820ED7F81C909300A0
:1051D000FD610EF104021FED0C6A7B61331D154663
:1051E00056F821204808D8ED0C6ABBF1020F82F472
:1051F0000002A2F5000207EE902A53F8212082F463
:105200000002B8EEE77AA2F5000227EE067A07EE72
:10521000902A0AEB8002F8EEE77A27EE267A67EE0C
:10522000867A82ED007A09EB80024FEA800067EE11
:10523000A67AC2ED007A27D05EF8212082F400021F
:10524000A2F5000207EE902A55F8212082F4000210
:10525000B8EEE77AA2F5000227EE067A07EE902A6A
:10526000DCF80820F8EEE77A024427EE267A67EEAB
:10527000867A82ED007A98ED0C7ADCF80C2067EEE5
:10528000877A0244C2ED007A02318C42A8D8D7F85E
:10529000109060466208BB694946FD699847D8F896
:1052A0002C307A69D8ED0D6A1A441FED407A1FED53
:1052B000406A131D9246DFF8C4C20022FB612B1D19
:1052C000AB4ED9E9008E4EE0F4EEC67AF1EE10FA5C
:1052D000C0F2C580304645F822000EEB0100D0ED4B
:1052E000007A66EEA77AF4EEC77AF1EE10FA49D9A1
:1052F000F4EEC67AF1EE10FAC0F2BF803046BBF190
:10530000020F43F822002AD0D9F808000844D0ED53
:10531000007A66EEA77AF4EEC77AF1EE10FA35D984
:10532000F4EEC67AF1EE10FAC0F2AE8030464AF8DA
:105330002200D9F80C000144D1ED007A66EEA77A7C
:10534000F4EEC77AF1EE10FA1ED9F4EEC67AF1EE59
:1053500010FAC0F28B803146F86940F82210023210
:1053600094427FF6CEAB510808EB81008900D0ED66
:10537000007A66EEA77AF4EEC77AF1EE10FAA3D8B7
:105380006046A8E76046BAE76146E5E76046CEE7D3
:10539000224649466046BB699847FFF7B2BBC7F84B
:1053A00010B0002298ED0C6A331DDFED726AD7F859
:1053B0001CB0786956F8221007EE901A53F82210A4
:1053C000B8EEE77A07EE901A51080232F8EEE77A63
:1053D00027EE267A0AEB810E94420BEB810167EEF1
:1053E000A67A27EE067A67EE867A8EED007AC1ED10
:1053F000007ADFD88300D7F810B07B614DE61A46FB
:10540000C7F810B098ED0C6A331DDFED5B6AD7F872
:105410001CB0786936F9221007EE101A33F9221001
:1054200007EE901AB8EEC77A51080232F8EEE77A22
:1054300027EE267A0AEB810E94420BEB810167EE90
:10544000A67A27EE067A67EE867A8EED007AC1EDAF
:10545000007ADFD88300D7F810B07B6134E5F0EE36
:10546000675AFEEEE45A15EE900A34E7F0EE675AFA
:10547000FEEEE45A15EE901A6EE7F0EE675AFEEE75
:10548000E45A15EE900A3AE7F0EE675AFEEEE45A57
:1054900015EE900A4BE767EEA57AFDEEE77A17EE78
:1054A000900A00B232E567EEA57AFDEEE77A17EED4
:1054B000900A00B23FE5F0EE675AFEEEE05A15EEB4
:1054C000901A4CE6F0EE675AFEEEE05A15EE900A9E
:1054D00030E6F0EE675AFEEEE05A15EE900AFDE572
:1054E000F0EE675AFEEEE05A15EE900A0AE667EE15
:1054F000A57AFDEEE77A17EE901A09B24AE567EE53
:10550000A57AFDEEE77A17EE900A00B22CE5F0EEF0
:10551000675AFEEEE45A15EE902A1FE467EEA57A6C
:10552000FDEEE77A17EE902A12B2FFF731BBF0EEEC
:10553000675AFEEEE45A15EE902AFFF7FDBBF0EE37
:10554000675AFEEEE05A15EE902AFFF79BBBF0EE8D
:10555000675AFEEEE05A15EE902AFFF780BB67EE21
:10556000A57AFDEEE77A17EE902A12B2FFF724BB78
:1055700082FF7F0000000030000000387E0080FFC6
:1055800030B5184C154685B0046004F1080EEC46A1
:105590000FC98EE80F00D4ED047AF5EEC07A8CE8DE
:1055A0000F00F1EE10FA1ADDB7EE006A94ED057AFD
:1055B00027EE277AC6EE276A84ED0D7AC4ED0C6AD1
:1055C0006DB1204640F8185F02F056F906490369AC
:1055D0000020064A2162A262E36005B030BD0120CE
:1055E00005B030BD483401200020003000000030FC
:1055F000F0B51C4C16461F4689B0046004F108053E
:10560000EE460DF1100C0FC985E80F00D4ED047AB9
:10561000F5EEC07A8EE80F00F1EE10FA8CE80F007C
:1056200017DDB7EE006A94ED057A27EE277AC6EE0D
:10563000276A84ED0D7AC4ED0C6A56B1204640F815
:10564000186F02F019F908490369084A2162A26239
:10565000E360074A0020074BE7616262E36209B03A
:10566000F0BD00BF483401200020003000000030B1
:10567000003000300010003000680830704700BF74
:10568000B1F5807F03680A4628BF4FF48072B1F5F8
:10569000807F9A6094BF0020012070470068183016
:1056A00002F04AB970B504688AB0A369E160CBB171
:1056B00004F11805284602F0DFF88446EE46E66855
:1056C000BCE80F00AEE80F00BCE80F00AEE80F002A
:1056D0009CE803008EE8030069462846049601F022
:1056E000D3FFF8B9E069D8B104F11C05284602F0EF
:1056F000C3F88446EE46E468BCE80F00AEE80F004D
:10570000BCE80F00AEE80F009CE803008EE8030041
:1057100069462846049401F0B7FF003818BF0120FD
:105720000AB070BD01200AB070BD00BF30B504687A
:1057300083B00D46E3694BB1A3680020E26A616A59
:105740009B00009004F11C0002F098F8A368074841
:10575000A26A9B00216A009004F1180002F08EF802
:105760000020C4E9005003B030BD00BFC54900248B
:1057700010B4074B4FF07E513024002203201961F2
:105780009C60D8605DF8044B5961C3E906227047FC
:1057900048340120F6EE007A9FED166A20EE207A5A
:1057A0000160F7EE006A80ED036A80ED020A27EEE1
:1057B000277AC6EE877AF4EEE67AF1EE10FA11DD7A
:1057C000F0EE667A4FF07E514FF0000C0276002228
:1057D000C0ED017AC0F814C0016143768276C0ED55
:1057E000070A7047F4EEC67AF1EE10FAEAD5F0EE49
:1057F000467AE7E7000000000268037E128807EEA1
:10580000902AFBEEC87A1BB1B7EE007A77EE677A82
:10581000D0ED056A90ED047A77EEE67A437E67EE86
:10582000877A0BB1F1EE677A90ED030A90ED017A79
:1058300077EEC07AA7EE270A80ED030A704700BF13
:1058400070B5044682B0C1F30726CDB2ADF804109E
:1058500004F0ECF84FF480724FF001232060A01D9B
:10586000A571A280E671A36002B0BDE8704000F0AF
:105870008BBE00BF38B5044604F0D8F80022236878
:105880002271834210D00122A57AE37A95402060EC
:105890002271A01D6DB243B900F052FF40B22843FF
:1058A000C0B27F28A0720AD038BD00F049FFB0FA1C
:1058B00080F040092843C0B27F28A072F4D104F0E0
:1058C000B5F807EE900AF8EE677AC4ED037A38BDB2
:1058D000704700BFF0B50B7803F0F004F02C28D02F
:1058E00003F0E004C02C14D1022A11D1D0F81428FE
:1058F0001B09841884F814340B7884F815340023B9
:10590000497884F81614043284F81734C0F814283F
:10591000F0BD032AFCD1D0F814281B09841884F8A0
:1059200014340B7884F815344B7884F816348B785B
:10593000E9E7F22B2DD003F0FD04F12C13D1022A5C
:10594000E6D1D0F814380025C418043384F81424A0
:105950000A7884F815244A7884F8175484F81624B1
:10596000C0F81438F0BDF32B32D9012AD0D1D0F8C9
:10597000143805250024C218043382F81454097819
:1059800082F8164482F8174482F81514C0F81438C7
:10599000F0BD032ABCD1D0F81438C418043384F8FD
:1059A00014240D7884F815544D7884F816548D78A5
:1059B00084F81754C0F814380B7803F0FD04F12C68
:1059C000A6D0F32BA4D80025D0F81448AE4624E086
:1059D000032AF8D9D0F814388C460325C0F10407FF
:1059E0000344042683F81464AE469CF800400CF18E
:1059F000030C83F815441CF8024C83F81644FC1879
:105A00001CF8015C043383F813540EF10305C0F84D
:105A10001448AA42E6D85FFA8EF5131D7245A3EB2F
:105A2000050300EB040585F8143404F10105C0F802
:105A3000145817D904F2154302F1FF3C0EF1FF345C
:105A40008C4403440C441049091A14F8016F03F8FC
:105A5000016B644501EB0306C0F81468F5D1A5EBB2
:105A60000E051544AE073FF453AF05F21443064943
:105A700000240344091A03F8014BCA189507FAD108
:105A8000C0F81428F0BD00BFECFBFFFF2DE9F0418A
:105A9000064690F80280F2B1002015460F46441CDD
:105AA000A54216D939180B4602E00134A54210D997
:105AB00013F901CFBCF1000FF7DAA04209D0221A86
:105AC0003046FFF707FFA54205D92046441CA542F2
:105AD000E8D82D1A27D1737806F214443046D6F848
