:020000040800F2
:1000000000000220110A00080D0A000845910008AE
:100010000D0A00080D0A00080D0A00080000000083
:100020000000000000000000000000000D0A0008B1
:100030000D0A0008000000000D0A0008C990000821
:100040000D0A00080D0A00080D0A00080D0A000834
:100050000D0A00080D0A00080D0A00080D0A000824
:100060000D0A00080D0A00080D0A0008216E00089C
:100070002D6E0008E55C0008396E0008456E00082A
:10008000898C0008B96200080D0A00080D0A0008F2
:100090000D0A00080D0A00080D0A00080D0A0008E4
:1000A0000D0A00080D0A00080D0A00080D0A0008D4
:1000B000914801089D480108A9480108ED6200081F
:1000C0000D0A0008F96200080D0A0008F979000815
:1000D000057A0008BD8A0008ED8A0008218B000817
:1000E0000D0A00080D0A0008000000000D0A0008B3
:1000F0000D0A00080D0A00080D0A00080D0A000884
:100100000D0A00080D0A0008B5480108117A000818
:10011000558B0008898B00080D0A00080D0A00089D
:100120000D0A00080D0A0008357A0008697A0008EF
:10013000BD8C00080D0A00080D0A00080D0A000811
:1001400000000000000000000000000000000000AF
:100150000D0A00080D0A00080D0A0008BD8B0008F2
:10016000056300080D0A0008D9900008FD900008FA
:100170000D0A0008219100080D0A00080D0A000868
:100180000D0A00080D0A0008F18B0008218C0008F8
:100190001D7A0008297A00080D0A00080D0A0008D7
:1001A0000D0A00080D0A00080D0A00080D0A0008D3
:1001B000416B00080D0A00080D0A00080D0A00082E
:1001C0000D0A00080D0A00080D0A00080D0A0008B3
:1001D0000D0A00080D0A00080D0A00080D0A0008A3
:1001E0000D0A00080D0A00080D0A00080D0A000893
:1001F0000D0A00080D0A00080D0A00080D0A000883
:100200000D0A00080D0A00080D0A00080D0A000872
:100210000D0A00080D0A00080D0A00080D0A000862
:100220000D0A00080D0A00080D0A00080000000071
:100230000D0A00080D0A0008000000000D0A000861
:100240000D0A00080D0A00080D0A00080D0A000832
:100250000D0A00080D0A00080D0A00080D0A000822
:100260000D0A00080D0A00080D0A00080D0A000812
:100270000D0A00080D0A0008558C00080000000057
:100280000D0A00080D0A00080D0A00080000000011
:08029000000000000D0A000847
:1002A00010B5054C237833B9044B13B10448AFF3B0
:1002B00000800123237010BD5805002400000000B9
:1002C000ACA0010808B5034B1BB103490348AFF3C9
:1002D000008008BD000000005C050024ACA00108FF
:1002E000034613F8012B002AFBD1181A0138704776
:1002F00001F0FF01102A2BDB10F0070F08D010F8D7
:10030000013B013A8B422DD010F0070F42B3F6D1DA
:10031000F0B441EA012141EA014122F007047FF0F3
:1003200000070023F0E80256083C85EA010586EA4A
:10033000010685FA47F5A3FA87F586FA47F6A5FA86
:1003400087F68EB9EED1F0BC01F0FF0102F0070292
:1003500032B110F8013B013A83EA010313B1F8D13D
:100360000020704701387047002D06BF354603381E
:10037000073815F0010F07D1013015F4807F02BF57
:10038000013015F4C03F0130F0BC0138704700BFA8
:1003900081F0004102E000BF83F0004330B54FEA36
:1003A00041044FEA430594EA050F08BF90EA020FA3
:1003B0001FBF54EA000C55EA020C7FEA645C7FEA36
:1003C000655C00F0E2804FEA5454D4EB5555B8BF59
:1003D0006D420CDD2C4480EA020281EA030382EACA
:1003E000000083EA010180EA020281EA0303362D5C
:1003F00088BF30BD11F0004F4FEA01314FF4801C2F
:100400004CEA113102D0404261EB410113F0004F40
:100410004FEA03334CEA133302D0524263EB4303F7
:1004200094EA050F00F0A780A4F10104D5F1200E95
:100430000DDB02FA0EFC22FA05F2801841F10001F0
:1004400003FA0EF2801843FA05F359410EE0A5F1C4
:1004500020050EF1200E012A03FA0EFC28BF4CF0F5
:10046000020C43FA05F3C01851EBE37101F00045AB
:1004700007D54FF0000EDCF1000C7EEB00006EEBB8
:100480000101B1F5801F1BD3B1F5001F0CD3490842
:100490005FEA30004FEA3C0C04F101044FEA445299
:1004A00012F5800F80F09A80BCF1004F08BF5FEA20
:1004B000500C50F1000041EB045141EA050130BD00
:1004C0005FEA4C0C404141EB0101013C28BFB1F512
:1004D000801FE9D291F0000F04BF01460020B1FA5D
:1004E00081F308BF2033A3F10B03B3F120020CDA30
:1004F0000C3208DD02F1140CC2F10C0201FA0CF00E
:1005000021FA02F10CE002F11402D8BFC2F1200C72
:1005100001FA02F120FA0CFCDCBF41EA0C01904028
:10052000E41AA2BF01EB0451294330BD6FEA040471
:100530001F3C1CDA0C340EDC04F11404C4F120025C
:1005400020FA04F001FA02F340EA030021FA04F36E
:1005500045EA030130BDC4F10C04C4F1200220FAC5
:1005600002F001FA04F340EA0300294630BD21FA03
:1005700004F0294630BD94F0000F83F4801306BFC9
:1005800081F480110134013D4EE77FEA645C18BFBD
:100590007FEA655C29D094EA050F08BF90EA020F54
:1005A00005D054EA000C04BF1946104630BD91EA4C
:1005B000030F1EBF0021002030BD5FEA545C05D14F
:1005C0004000494128BF41F0004130BD14F580048E
:1005D0003CBF01F5801130BD01F0004545F0FE4102
:1005E00041F470014FF0000030BD7FEA645C1ABF37
:1005F000194610467FEA655C1CBF0B46024650EA6E
:10060000013406BF52EA033591EA030F41F4002199
:1006100030BD00BF90F0000F04BF0021704730B51F
:100620004FF4806404F132044FF000054FF00001F4
:1006300050E700BF90F0000F04BF0021704730B5B5
:100640004FF4806404F1320410F0004548BF40428A
:100650004FF000013EE700BF42004FEAE2014FEADF
:1006600031014FEA02701FBF12F07F4393F07F4FBA
:1006700081F06051704732F07F4208BF704793F0BD
:100680007F4F04BF41F40021704730B54FF46074D0
:1006900001F0004521F000411CE700BF50EA0102D3
:1006A00008BF704730B54FF000050AE050EA01027C
:1006B00008BF704730B511F0004502D5404261EBEC
:1006C00041014FF4806404F132045FEA915C3FF42D
:1006D000D8AE4FF003025FEADC0C18BF03325FEACA
:1006E000DC0C18BF033202EBDC02C2F1200300FA7B
:1006F00003FC20FA02F001FA03FE40EA0E0021FAA0
:1007000002F11444BDE600BF53B94AB9002908BF3D
:1007100000281CBF4FF0FF314FF0FF3000F074B9DC
:10072000ADF1080C6DE904CE00F006F8DDF804E048
:10073000DDE9022304B070472DE9F047089D044627
:100740008E46002B4DD18A42944669D9B2FA82F284
:1007500052B101FA02F3C2F1200120FA01F10CFAC0
:1007600002FC41EA030E94404FEA1C48210CBEFBF8
:10077000F8F61FFA8CF708FB16E341EA034306FB81
:1007800007F199420AD91CEB030306F1FF3080F010
:100790001F81994240F21C81023E63445B1AA4B25D
:1007A000B3FBF8F008FB103344EA034400FB07F7FF
:1007B000A7420AD91CEB040400F1FF3380F00A8140
:1007C000A74240F207816444023840EA0640E41B35
:1007D00000261DB1D4400023C5E900433146BDE8E1
:1007E000F0878B4209D9002D00F0EF800026C5E983
:1007F000000130463146BDE8F087B3FA83F6002E9B
:100800004AD18B4202D3824200F2F980841A61EB12
:10081000030301209E46002DE0D0C5E9004EDDE730
:1008200002B9FFDEB2FA82F2002A40F09280A1EB18
:100830000C014FEA1C471FFA8CFE0126200CB1FB6D
:10084000F7F307FB131140EA01410EFB03F0884266
:1008500008D91CEB010103F1FF3802D2884200F2F3
:10086000CB804346091AA4B2B1FBF7F007FB101185
:1008700044EA01440EFB00FEA64508D91CEB040423
:1008800000F1FF3102D2A64500F2BB800846A4EB7E
:100890000E0440EA03409CE7C6F12007B34022FA69
:1008A00007FC4CEA030C20FA07F401FA06F31C4398
:1008B000F9404FEA1C4900FA06F3B1FBF9F8200CA5
:1008C0001FFA8CFE09FB181140EA014108FB0EF0EB
:1008D000884202FA06F20BD91CEB010108F1FF3A3B
:1008E00080F08880884240F28580A8F10208614447
:1008F000091AA4B2B1FBF9F009FB101144EA014155
:1009000000FB0EFE8E4508D91CEB010100F1FF34FF
:100910006CD28E456AD90238614440EA0840A0FB97
:100920000294A1EB0E01A142C846A64656D353D06D
:100930005DB1B3EB080261EB0E0101FA07F722FA91
:1009400006F3F1401F43C5E9007100263146BDE8BA
:10095000F087C2F12003D8400CFA02FC21FA03F31D
:10096000914001434FEA1C471FFA8CFEB3FBF7F09E
:1009700007FB10360B0C43EA064300FB0EF69E42C3
:1009800004FA02F408D91CEB030300F1FF382FD25C
:100990009E422DD9023863449B1B89B2B3FBF7F604
:1009A00007FB163341EA034106FB0EF38B4208D9DD
:1009B0001CEB010106F1FF3816D28B4214D9023E1E
:1009C0006144C91A46EA004638E72E46284605E73C
:1009D0000646E3E61846F8E64B45A9D2B9EB02080D
:1009E00064EB0C0E0138A3E74646EAE7204694E79D
:1009F0004046D1E7D0467BE7023B614432E73046D0
:100A000009E76444023842E7704700BFFEE700BFD1
:100A10000B480C4A904203D0121A0B4915F0ECF91E
:100A20000A480B4A904203D0121A002115F0F2F93D
:100A300008F0CEFD15F0ACF901F08AFBFEE700BF2F
:100A40000000002454050024DCA0010858050024FF
:100A5000D8D40024704700BF704700BF704700BF64
:100A6000402070478020704749424FF48062143024
:100A7000C9B215F0CFB900BF2DE9F04F8BB0924647
:100A800088462022002102A8CDF804A015F0C2F962
:100A90005346002B53D0D8F800400027DFF8C89009
:100AA0004FEA870BC24602AD0AAE2D485C4414F0F3
:100AB000B9FA5AF8043B84ED000A5B4493ED007ADE
:100AC00027EE077A95ED006BB7EEC77A37EE067B17
:100AD000A5EC027BB54202D0DAF80040E5E7D8E9A0
:100AE0000042B6EE007A01375A44A344019BD2ED8E
:100AF000007ADBED006ABB4277EEA67A67EE877A72
:100B0000E9EC017ACCD19DED020B04AC154D0AAE97
:100B10009FED0F7B20EE070BB5EE400BF1EE10FAC8
:100B200010D4B1EEC07BB442B7EEC77BA5EC017A1E
:100B300002D0B4EC020BEBE70BB0BDE8F08F9FEDF9
:100B4000060BE2E715F034F8B0EE407BEBE700BFB0
:100B5000000000000000803F0000000000000000D6
:100B6000A49E0024B4090024B407002410B5044650
:100B700040F2144114F049FC204610BD2DE9F0412B
:100B8000B02482B000F1080600F1100500F114084D
:100B9000002728468DF807400134394605F038FA19
:100BA000642301220DF107013046E4B207F088F911
:100BB000394628468DF8077005F02AFA0122642389
:100BC0000DF10701304607F07BF91023394628461E
:100BD0008DF8073005F01CFA642301220DF107019E
:100BE000304607F06DF90121284605F011FA802200
:100BF000414664233046904407F062F9B82CC7D1CF
:100C000002B0BDE8F08100BF2DE9F04F89B008AC1B
:100C10009DF84870019104E90C000B78002B00F05E
:100C2000AB801A469DF818809DF819300646454657
:100C300090460393079B0593A8F12004E3B25E2B33
:100C400000F29E8033685E4ADB68934240F09B80EE
:100C50008020B3882B44834200F392803368594A42
:100C60009B68934240F092804020F188039A029161
:100C70008B18834200F38480002A00F0918002FBED
:100C800004F46FF00049059BA1441444B6F804B085
:100C900003EB4909023BCDF8108003EB44030C46FB
:100CA0009A4639F802CFA5B304F007034FF0010EBE
:100CB000E20859460EFA03FE0BF114034FFA8EFEBA
:100CC00003EBC21200236FEA0E0832440DE07F29C5
:100CD00006D83F2C04D8107897B14EEA0000107067
:100CE000013301320131AB4213D00CFA03F000049E
:100CF000EDD47F29F4D83F2CF2D81078002FECD017
:100D0000013308EA000001320131AB4202F8010C64
:100D1000EBD1D14504F10104C3D1DDF81080326874
:100D20000BEB05042649D368A4B28B4234D1802052
:100D3000844204D3D36822498B423AD17F249368FA
:100D4000204AB480934224D14020029B834206D3A0
:100D500033681C4A9B68934225D13F230293029B30
:100D6000F380019B1878404507D113F8018F019358
:100D7000B8F1000F7FF460AF002009B0BDE8F08F3C
:100D80004FF00008EDE73046984762E73046984755
:100D90006BE730469847D8E7304698473268C7E750
:100DA000B6F804B0BBE730469847013883B20293E7
:100DB000D5E7304698470138326884B2BFE700BFB4
:100DC000650A0008610A00082DE9F04F85B0A1F11D
:100DD000200504AC9DF83870009104E90C00EBB2DA
:100DE0005E2B00F29580036880465D4ADB689DF8C3
:100DF000084093429DF8096040F094808020B8F844
:100E000004302344834200F38380D8F80030554AED
:100E10009B68934240F088804020B8F806209319E0
:100E20000192834274DC002E00F0898006FB05F5F8
:100E30006FF00040039B964628442E44B8F804A067
:100E400003EB4000023B03EB460B30F8026FBCB3F0
:100E50000EF007034FF0010C4FEADE0251460CFA88
:100E600003FC0AF114034FFA8CFC03EBC2120023BB
:100E70006FEA0C0942440EE07F2907D8BEF13F0F0C
:100E800004D815789FB14CEA05051570013301327D
:100E900001319C4214D006FA03F52D04ECD47F29CD
:100EA000F4D8BEF13F0FF1D81578002FEBD0013305
:100EB00009EA0505013201319C4202F8015CEAD1E0
:100EC00058450EF1010EC0D1D8F8003054442449E1
:100ED000DA68A4B28A422DD1802084421CD29B6859
:100EE000204AA8F80440934221D14020019B83422C
:100EF00007D3D8F800301B4A9B68934229D13F237F
:100F00000193DDE90003A8F8063005B0BDE8F08FD5
:100F1000002005B0BDE8F08FDA6811498A4211D18E
:100F20007F24DCE798476AE74046984775E74046E4
:100F30009847DBE740469047D8F80030CDE7B8F84F
:100F400004A0C1E7404690470138D8F8003084B289
:100F5000C5E740469847013883B20193D1E700BF07
:100F6000650A0008610A00082DE9F04F89B01D46A6
:100F7000884606901046129C10F8013B13999DF884
:100F80005060009233B1002210F8013B0132002B77
:100F9000FAD193B22A78687812FB03F302B21BB23B
:100FA00023EAE373082900F2A681DFE811F00101CA
:100FB00013011F01330141014F0166016F01090057
:100FC000A18827880F44B4F90610FF1A0029BFB280
:100FD000C0F2FE806488069804EB6104C280A4EB32
:100FE00052028380078094B24480A64AD8F8003029
:100FF00011460192DA688A4240F08B818020B84223
:1010000005D8DA6801998A4240F098817F279E4A84
:101010009B68A8F804709342039240F087814020B7
:10102000A04207D8D8F80030039A9B68934240F05A
:1010300080813F24009BA8F8064093F800B06B78AD
:101040002C7804936B680793BBF1000F00F0AC8021
:10105000ABF12005EBB25E2B00F22C81D8F800300A
:10106000019ADB68934240F028818020B8F8043070
:1010700023449842C0F21E81D8F80030039A9B683E
:10108000934240F01D814020B8F80610049A029166
:101090008B189842C0F20E81002A00F01C8102FBDE
:1010A00005F56FF0004E079BAE441544CDF814B023
:1010B00003EB4E0E023BB8F804A003EB45030D46CC
:1010C0009B463EF8027FA4B305F007034FF0010CE6
:1010D000EA0851460CFA03FC0AF114034FFA8CFC9F
:1010E00003EBC21200236FEA0C0942440DE07F2992
:1010F00006D83F2D04D8107896B14CEA0000107045
:101100000133013201319C4213D007FA03F000048D
:10111000EDD47F29F4D83F2DF2D81078002EECD0F2
:10112000013309EA0000013201319C4202F8010C4E
:10113000EBD1F34505F10105C3D1DDF814B0D8F8C2
:1011400000200AEB04050199D368ADB28B4240F050
:10115000BD808020854205D3D36801998B4240F041
:10116000C3807F259368039AA8F80450934240F007
:10117000AA804020029B834208D3D8F80030039A0B
:101180009B68934240F0AA803F230293029BA8F8F9
:101190000630009A13785B4506D112F801BF009221
:1011A000BBF1000F7FF454AF069809B0BDE8F08F93
:1011B000B4F9041027880029B8BF013107EB610793
:1011C000B4F90610A7EB63070029BFB2BFF602AF60
:1011D0000131FFE6B4F900700699B4F902400F80BE
:1011E000BFB24C80A4B28B80CA80FEE6B4F9041072
:1011F00027880029B4F90240B8BF013107EB610725
:1012000006998B80A7EB63034C80A4B29FB2CA807F
:101210000F80EAE6A1882788B4F902400F440699B6
:101220008B80FB1A4C80A4B29FB2CA800F80DCE690
:10123000E78861883944B4F90070081A069984B2C5
:101240000F808B80BFB2CA804C80CEE6B4F9041008
:1012500027880029B8BF013107EB6107A7EB6307B7
:10126000B4F802C0BFB2E488069964448B80201AA7
:10127000CA800F8084B24C80B7E62788A1880F44CB
:10128000FF1AEDE7650A0008610A0008B4F90610C4
:10129000B4F90070002964880698B8BF0131C28093
:1012A00004EB610407808380BFB2A4EB520294B2C6
:1012B00044809AE64FF0000B6BE740469847D5E62E
:1012C00040469847E0E64046984753E740469847EF
:1012D000D8F800203EE7B8F804A030E74046984729
:1012E000013883B2029351E7404698470138D8F855
:1012F000002085B236E7D8F800300024069A13495A
:10130000148054809480D480DA6801918A4205D098
:10131000274640469047D8F8003070E69B680C4A54
:10132000A8F80440934203923FF484AE40469847A5
:1013300076E640469847013884B27BE640469047BF
:101340000138D8F8003087B261E600BF650A0008AE
:10135000610A00087F291ED83F2A1CD86BB1D30828
:101360004FF0010C02F0070201EBC3130CFA02F27A
:10137000C1180B7D1A430A757047D3084FF0010C52
:1013800002F0070201EBC3130CFA02FCC1180A7D3C
:1013900022EA0C020A7570472DE9F04F83B05C1AFF
:1013A0000C9E002C9DF83490A6EB0208B8BF644256
:1013B000B8F1000FB8BFC8F100088B428CBF4FF0E6
:1013C000010A4FF0FF3A9642A4EB080C51D84FF0B7
:1013D000FF357F2B019512D83F2E10D8F50806F067
:1013E000070E012703EBC5150544B9F1000F47D0DF
:1013F00007FA0EF795F814E047EA0E072F759642A4
:1014000001D18B4229D0C8F100077F2914D83F2A87
:1014100012D8D50802F0070B4FF0010E01EBC515ED
:101420000544B9F1000F1BD00EFA0BFE95F814B06D
:101430004EEA0B0E85F814E0B7EB4C0F4FEA4C0563
:1014400002DAACEB080C5144AC4202DD019DA4442D
:101450002A449942D9D19642D7D103B0BDE8F08F42
:101460000EFA0BFB95F814E02EEA0B0E85F814E04B
:10147000E2E701257F2B0195C5D83F2EAED9C2E703
:1014800007FA0EFE2F7D964227EA0E072F75B8D079
:10149000B9E700BF000000002DE9F04F2DED068BED
:1014A00083B01F4680460D469DF850301646019386
:1014B000139B002BC0F22182129A134406EE103ABD
:1014C000DDED127AB8EEC66B9FEDCD4BB8EEE77B43
:1014D0009FEDCD5B27EE047B26EE046B87EE050BBC
:1014E00086EE05ABF7EEC08BB0EE680A13F094FF02
:1014F00007EE907AB7EECAABF8EE679AB0EE408A84
:10150000B0EE680A14F04CFA60EE698AB0EE4A0A4E
:1015100013F082FFB0EE409AB0EE4A0A14F040FA9F
:1015200020EE690A29EE888A29EE899A70EE687A97
:10153000F0EE006A39EE487A67EEA77AE7EE077AAE
:10154000F4EEE67AF1EE10FA06D5139BB42B40F3D5
:1015500096804FF0010901E04FF000090124784224
:101560004FF0000C0095E31B214627462246A3407E
:10157000B9F1000F6AD1424206EE90CACCF10001E7
:1015800007EE102AB8EEE66A07EE901A06EE900A09
:10159000B8EEC77A139A66EE084AF8EEE77AB42AEC
:1015A00027EE284AF8EEE66A67EE885A74EEC43AE7
:1015B00026EEA85A26EE096A66EE806A67EE897AF8
:1015C00027EE007AF5EEC03A40F3F280F1EE10FA21
:1015D00000F17F8176EE473A74EEC54AF5EEC03AE7
:1015E000F1EE10FAF5EEC04ACCBF01220022F1EE76
:1015F00010FA00F1778136EE666A35EEC55AB5EE1F
:10160000C06AF1EE10FAB5EEC05ACCBF012100213C
:10161000F1EE10FA00F16F8177EEE66AF5EEC06A3E
:10162000F1EE10FACCBF0127002775EEC45AF5EE93
:10163000C05AF1EE10FA00F1478177EEC77AF5EE65
:10164000C07AF1EE10FACCBF01240024002A40F049
:101650008A80002964D1BFB9C4BB9C4558DB0CF11A
:10166000010C03EB4C0E1CEB000F0EF1010E00F011
:10167000C08098424FDB734600287FF779AF03B0F4
:10168000BDEC068BBDE8F08F009DA6EB0C0E00EBC9
:10169000050ABAF17F0FDFD8BEF13F0FDCD84FEA61
:1016A000DE0B019D0AEBCB1A002D00F0B1800EF08D
:1016B000070BC2444FF0010E0EFA0BFE9AF814B05D
:1016C0004EEA0B0E8AF814E0002CC6D0009DA6EB63
:1016D0000C0EA5EB000ABAF17F0FBED8BEF13F0F8A
:1016E000BBD84FEADE0B019D0AEBCB1A002D00F0B0
:1016F000AE800EF0070BC2444FF0010E9C450EFA6F
:101700000BFE9AF814B04EEA0B0E8AF814E0A6DA33
:1017100098429E46AFDA01300EEB40030133ABE74F
:10172000009D0CEB060E00EB050ABAF17F0F92D874
:10173000BEF13F0F8FD84FEADE0B019D0AEBCB1AAB
:10174000002D73D00EF0070BC2444FF0010E0EFABD
:101750000BFE9AF814B04EEA0B0E8AF814E0002F34
:101760003FF47AAF90E7009D0CEB060EA5EB000A64
:10177000BAF17F0F3FF66DAFBEF13F0F3FF669AF95
:101780004FEADE0B019D0AEBCB1A002D6DD00EF057
:10179000070BC2444FF0010E0EFA0BFE9AF814B07C
:1017A0004EEA0B0E8AF814E000293FF454AFB7E775
:1017B000F1EE10FA7ED44A4674EEC54AF5EEC04A00
:1017C000F1EE10FA6CD4002135EEC55AB5EEC05AD0
:1017D000F1EE10FA5AD4002775EEC45AF5EEC05A4D
:1017E000F1EE10FA3FF529AF0024002A3FF431AFA3
:1017F000B9E798428FDB00233BE700BFAFF30080DF
:101800007A008BFCFA21094000000000008066404D
:10181000C2444FF0010B0EF0070E0BFA0EFE9AF8C1
:1018200014B02BEA0E0E8AF814E015E7C2444FF00C
:10183000010B0EF0070E0BFA0EFE9AF814B02BEA0D
:101840000E0E8AF814E0002F3FF406AF1CE7C244E6
:101850004FF0010B0EF0070E0BFA0EFE9AF814B0C3
:101860002BEA0E0E8AF814E0F7E6C2444FF0010BA3
:101870000EF0070E0BFA0EFE9AF814B02BEA0E0EBD
:101880008AF814E000293FF4E6AE49E777EEE66A0D
:10189000F5EEC06AF1EE10FACCBF012700279BE7F6
:1018A00036EE666AB5EEC06AF1EE10FACCBF0121E1
:1018B000002189E776EE473AF5EEC03AF1EE10FAEC
:1018C000CCBF0122002277E70124002A3FF4C1AEF9
:1018D00049E774EEC54A0122F5EEC04AF1EE10FA6E
:1018E0007FF589AE35EEC55A0121B5EEC05AF1EE4D
:1018F00010FA7FF591AE012797E6DDE91223134434
:1019000006EE102A1293139B5B421393D8E500BF97
:101910002DE9F04F87B09DF84850109C2E46019558
:101920009DF844509EB399422ED89946A24228D899
:101930007F29164694BF0023012308E09CF81480F9
:101940004EEA080E8CF814E00136B44219D33F2E4B
:10195000FAD8002BF8D14FEAD60C06F0070E4FF05C
:10196000010801EBCC1C08FA0EFE8444002DE5D1E1
:101970009CF814B001362BEA0E0AB4428CF814A07D
:10198000E5D201318945D1D207B0BDE8F08FA3EB94
:101990000108B8F1000FB8BFC8F100089942C0F0C3
:1019A0004E817F2B4FF0FF3A94BF002601263F2A3D
:1019B000009694BF002701270297A6B99FB9D608C1
:1019C00002F0070C012703EBC6160644002D00F0B9
:1019D000948107FA0CF796F814C047EA0C0737759C
:1019E000002602960096994200F09781464694465A
:1019F0008E46BEF17F0F16D8BCF13F0F13D84FEAC9
:101A0000DC070CF0070B4FF001090EEBC71707447A
:101A1000002D00F0398109FA0BF997F814B049EA62
:101A20000B0987F81490770018BFD644B84502DD3B
:101A300046440CF1FF3C7345DBD16245D9D1002609
:101A40000496A4EB0209009FB9F1000FB8BFC9F1D9
:101A500000093F2C94BF00260126A242C9F10008CC
:101A60000396C0F02381002F40F05081002E40F0FB
:101A70004D814FF0FF360096E60803EBC61606448C
:101A8000002D00F01E814FF0010C04F007070CFA46
:101A900007F796F814C047EA0C0737750026039637
:101AA000A24200F03D81C44616461F4605927F2F94
:101AB00015D83F2E13D84FEAD60E06F0070B4FF07D
:101AC000010A07EBCE1E8644002D00F0E6800AFADC
:101AD0000BFA9EF814B04AEA0B0A8EF814A0B8EB81
:101AE0004C0F4FEA4C0E02DAACEB090C013FBEF191
:101AF000000F01D0009A1644BB42D8D1B442D6D1CF
:101B0000059AA1EB030EBEF1000FB8BFCEF1000E97
:101B10007F2994BF4FF0000A4FF0010A99428CBF11
:101B20004FF001094FF0FF39BAF1000F13D1039EB6
:101B30008EB9E60801EBC6160644002D00F0D380EE
:101B40004FF0010C04F007070CFA07F796F814C0E1
:101B500047EA0C073775049E26BB774626467F2B3F
:101B600014D83F2E12D84FEAD60C06F0070B4FF0D0
:101B7000010803EBCC1C8444002D73D008FA0BF849
:101B80009CF814B048EA0B088CF814805FEA470C04
:101B900018BF4B44E64501DD7744013E9942DED152
:101BA000B442DCD1A2EB040EBEF1000FB8BFCEF1FF
:101BB000000EA2428CBF4FF001084FF0FF38CEF16B
:101BC000000CBAF1000F0ED1029B63B9D30802F0EA
:101BD0000707012601EBC3130344002D7CD0BE4050
:101BE0001F7D3E431E75019B002B7FF4CDAE6646E4
:101BF0000B467F2B12D83F2C10D8E70804F0070AB9
:101C00004FF0010903EBC7170744A5B309FA0AF916
:101C100097F814A049EA0A0987F81490BCEB460F1C
:101C20004FEA460702DAA6EB0E06013B07B1444431
:101C30009942DED1A242DCD107B0BDE8F08F3F2A45
:101C40004FF0010A94BF002601267F2B029694BF15
:101C5000002701270097002E7FF4C8AE002F3FF425
:101C6000AEAEC3E608FA0BFB9CF8148028EA0B081A
:101C70008CF814808AE709FA0AFA97F8149029EA8E
:101C80000A0987F81490C9E709FA0BFB97F8149032
:101C900029EA0B0987F81490C5E60AFA0BFB9EF8AF
:101CA00014A02AEA0B0A8EF814A018E797BB8EBB83
:101CB00001260096E60803EBC6160644002D7FF4C5
:101CC000E2AE012704F0070C039507FA0CFC377D00
:101CD00027EA0C073775E3E606FA07F71E7D26EAC2
:101CE00007061E757FE7012704F0070C07FA0CFCB6
:101CF000377D27EA0C0737752DE707FA0CFC377D8F
:101D0000029527EA0C07009537756CE64FF0FF3611
:101D10000096C5E601260096C5E60126049690E6E3
:101D200001260196EDE600BF2DE9F843314E044649
:101D3000002506F10C0304F10C0906F11C0804F15E
:101D40005C0706F1340E04F1740C96E8070084E891
:101D500007000FCB89E80F00B8E80F00E5612563A5
:101D6000E563A4F858500FC798E8030087E803001C
:101D7000BEE80F00ACE80F00BEE80F00ACE80F00B3
:101D80009EE80F008CE80F0029464FF4007204F51E
:101D9000107014F03FF8184A04F51043C4F840548A
:101DA000C4F850242046B6F86420C4F84454C4F85B
:101DB0004854C4F84C54C4F85854C4F864584FF606
:101DC0000F04B6F86810A3F810290C4AA3F81219EA
:101DD0000721C3F818290822C3F80C59C3F814596D
:101DE00083F82459A3F81C4983F81E19C3F8202945
:101DF000BDE8F8837C8701089488010880707FF033
:101E000084B038B504AC84E80F009DF810307BB383
:101E1000012B29D19DF81830F2EE080A9FED187AAF
:101E2000B0EE000A07EE903A9DF81950154CF8EE06
:101E3000677A77EEC77AC7EEA00A13F01DFCDFEDD4
:101E4000127A204620EE270A84ED020A13F0CCFA1B
:101E500007EE905ADFED0D6A84ED080AF8EEE77A96
:101E600087EEA67A84ED017ABDE8384004B0704769
:101E7000044B00225A60BDE8384004B0704700BFF0
:101E800000008A42A49E00240000DC430000FE42C1
:101E90002DE9F04100F51044C8B0054694F8B4307F
:101EA0001942037918D0032B1CD00022027194F838
:101EB000B8300B40C36094F8B5300B401B09092BB8
:101EC000037206D80120072B287184F8A43000F093
:101ED000E88048B0BDE8F081032BFAD8DFE803F0D2
:101EE0008D115802F72900F0C38095F9922095F8DA
:101EF0009230002AEDDBEA180133917485F89230B4
:101F0000E7E794F8B68001EA080885F8108094F8AD
:101F1000A4703B1F012B06D995F8933003F0FD0305
:101F2000012B40F0BB8000236E46902205F1080192
:101F300030462B7113F060FFD4F89830D4F89C2011
:101F4000013B9B1ADBB2002BF6D0902231460DEB01
:101F5000020013F051FFD4F89C6024A9902206EBF4
:101F6000C600013605EB0010F6B2983013F044FFBE
:101F7000C4F89C60B8F1770FABD9032FA9D109231E
:101F8000A8F178012B7284F8A43085F89510A0E7A9
:101F900094F8B6301940697494F8A430012B02D13A
:101FA000002900F08C806E46902205F10801304631
:101FB00013F022FFD4F89830D4F89C20013B9B1AF0
:101FC000DBB2002BF6D0902231460DEB020013F06D
:101FD00013FFD4F89C6024A9902206EBC6000136BA
:101FE00005EB0010F6B2983013F006FF0023C4F89A
:101FF0009C602B7148B0BDE8F08194F8A4302B723E
:10200000043B94F8B620012B01EA0201297405D99A
:1020100095F8933003F0FD03012B3CD100236E466D
:10202000902205F1080130462B7113F0E5FED4F83B
:102030009830D4F89C20013B9B1ADBB2002BF6D0E1
:10204000902231460DEB020013F0D6FED4F89C60CE
:1020500024A9902206EBC600013605EB0010F6B26B
:10206000983013F0C9FEC4F89C6048B0BDE8F08118
:1020700000236E46902205F1080130462B7113F0C3
:10208000BBFED4F89830D4F89C20013B9B1ADBB2FD
:10209000002BF6D0D4E702232B711AE702232B7111
:1020A00068E711F00800EA6036D101F0070385F80F
:1020B00093303BB9032285F892302A7109E7002357
:1020C0002B7270E74B077FF504AF6E4628719022A4
:1020D00005F10801304613F08FFED4F89830D4F89B
:1020E0009C20013B9B1ADBB2002BF6D0902231469C
:1020F0000DEB020013F080FED4F89C6024A990221E
:1021000006EBC60005EB0010983013F075FE731C4B
:10211000DBB2C4F89C30DCE608236E462B723046F6
:1021200084F8A43094F8BA302A719022194085F8C6
:10213000941005F1080113F05FFED4F89830D4F83C
:102140009C20013B9B1ADBB2002BF6D0CEE700BFF0
:1021500080B50021C4B0444801F0B0FF434801F00D
:10216000A7FE434C434A4FF07C53434820AE4349BB
:10217000626100229FED420AA06120466360E36035
:102180002161E26184ED020A13F02EF940F201129E
:10219000062384ED080A8021A28523703248394C39
:1021A00001F004FF0321304801F0E4FEA4F51040E3
:1021B00000F000FDA4F5104000F0F0FA4FF47A7042
:1021C00007F032F830492848A4F5104701F0CEFE58
:1021D00000223846114601F01DFB04F6141006F0EB
:1021E0001DFE224800F0E6FC204801F0D5FB07F078
:1021F00019F8054607E0C4F8045906F0FBFD01464E
:102200002248FFF745FE224806F08CFE0346204890
:10221000002BF0D1D4F80039D4F8FC289B1ADBB29B
:10222000002BDED0D4F80039D4F8FC289B1ADBB29E
:10223000002BF7D0D4F8FC589022304605EBC501AE
:10224000013507EB0111EDB201F6FC0113F0D4FDED
:1022500024A980226846C4F8FC5813F0CDFD96E806
:102260000F00FFF7CDFDD5E790050024740500248D
:10227000A49E002400803B473EC3AE37DB0F49409D
:102280000000C84274950024790A0008D80D002483
:10229000889E002410B5084C2046FFF745FD0749ED
:1022A000074A204613F0ACF8054A06490648BDE83F
:1022B000104013F0A5B800BF74050024590A0008A7
:1022C00000000024550A0008A49E00242DE9F04FC8
:1022D000824689B006F0A6FF01250AF51043C3F82F
:1022E00028090122D30802F00701012405EBC313DA
:1022F00004FA01F022445344342A93F8641421EA86
:10230000000183F86414EDD125447F2DE9D1002329
:102310000AF51072A14618260193049206E0019B6B
:1023200009F1010926467E3301932B46049A9FED5D
:10233000617AF2EC017A67EE877A0492FDEEE77A31
:1023400017EE902AD2F1180400F1AD80312C40F341
:10235000AB803224019AB9F1010F4FEAD21505F191
:102360000105DCD0EF1AA4EB060E19463246002F09
:10237000B8BF7F42BEF1000FB8BFCEF1000E9D4244
:102380008CBF01204FF0FF30A6420290A7EB0E0059
:102390000590C0F08B804FF0FF3003904FEAD40CD3
:1023A0004FF0010B04F007089D4205EBCC1C0BFA23
:1023B00008F8D4449CF864B448EA0B088CF86484A8
:1023C00001D1A64228D0CEF1000805984FF0010CAB
:1023D000D30802F007067F2901EBC31300FA0CFBB8
:1023E0000CFA06F608D83F2A534405D893F864C47B
:1023F00046EA0C0683F86464B8EB400F03DA029BEC
:10240000A0EB0E0019445F4502DD039B38441A44DB
:102410008D42DBD19442D9D1B9F1800F7FF47FAFE7
:102420000AF58B670AF58C660AF26444B0254FF012
:10243000000830468DF81F500135414603F0E8FD95
:10244000642301220DF11F013846EDB205F038FD7D
:10245000414630468DF81F8003F0DAFD01226423E7
:102460000DF11F01384605F02BFD10234146304683
:102470008DF81F3003F0CCFD642301220DF11F0104
:10248000384605F01DFD0121304603F0C1FD8022D4
:10249000214664233846144405F012FDB82DC6D1F8
:1024A00009B0BDE8F08F0024013453E70120039008
:1024B00074E700BF00001643F0B50546A3B0122034
:1024C000002401F03DFD034608A805F13406ADF8EF
:1024D000083005F11C07029905F58E7503F0A4F983
:1024E0000F2001F02DFD03460DF13100ADF80C3049
:1024F000039903F099F9152001F022FD03460DF12F
:102500004200ADF81030049903F08EF9162001F066
:1025100017FD03460DF15300ADF81430059903F093
:1025200083F9102001F00CFD034619A8ADF818300E
:10253000069903F079F9142001F002FD03460DF12C
:102540007500ADF81C30079903F06EF904230622DC
:1025500008A9304603F076F9E1B2304603F06CFB8F
:10256000014601343846019101F03CFD2846DFED7B
:10257000070A002301220199203503F049F8062CAF
:10258000EAD1304603F042FB23B0F0BD6F12033BAB
:1025900010B5044620202DED028B84B09FED1C8ADF
:1025A00001F0CEFC0346B0EE480A04F50070ADF829
:1025B0000030009903F0F0F8172001F0C1FC034649
:1025C000B0EE480A04F50470ADF80430019903F048
:1025D000E3F8112001F0B4FC0346B0EE480A04F51C
:1025E0000870ADF80830029903F0D6F8132001F016
:1025F000A7FC0346B0EE480A04F50C70ADF80C30A9
:10260000039904B0BDEC028BBDE8104003F0C4B8E0
:1026100000007A4470B5012388B000250446069373
:1026200049F6141004F510460E4A0F492044C6F826
:102630001029019101A9C6F80C590495CDE902535E
:1026400047F6122307930223059306F05DFB0A2346
:10265000C6F80059C6F8FC5884F8685884F86C38F5
:1026600008B070BD01070106010601070B460021F5
:102670004FF480629B022DE9F04F824687B000F252
:1026800064408B460293039013F0C4FB4FF01E137B
:10269000CAF854340BF264434FF00009019309F077
:1026A00007023B4801240BEBC9114FEAD9039440C0
:1026B00000EBE1010198072264B200EBC31302981A
:1026C000E543085C534440FA02F1013A013311F04A
:1026D000010F13F8011C14BF2143294003F8011C0A
:1026E000511CF0D12B4B2C4A03FB09F3B2EB730FB7
:1026F0000CD209F10109B9F1400FD0D10BF1080B4F
:10270000BBF1800FC6D107B0BDE8F08F0AF58B662C
:102710000AF58C65DDF80C80B024002128468DF880
:10272000174001340F4603F073FC642301220DF1BE
:102730001701304605F0C4FB394628468DF817705E
:1027400003F066FC012264230DF117013046E4B268
:1027500005F0B6FB1023394628468DF8173003F0F4
:1027600057FC642301220DF11701304605F0A8FB48
:102770000121284603F04CFC414664238022304668
:1027800008F1800805F09CFBB82CC6D1B1E700BF6A
:10279000D8880108ABAAAAAAAAAAAA2A0021FFF7E8
:1027A00065BF00BF2DE9F04F00F510438DB04A0121
:1027B00009930692D3F820294B1C0391C3EB4313D2
:1027C00002EB41159A1A07939542944618D82E4663
:1027D0000121CB0801F0070701247F2E06EBC3136C
:1027E000214404FA07F4034405D893F8647427EAF3
:1027F000040483F864443429EBD10136B242E7D2B1
:102800009DF80C30F7EE007A9FEDC97AA2EB050A2D
:1028100000EB4313BAF1000FD3ED4A6AB8BFCAF117
:10282000000A954277EEE67AF0EEE77A67EE877A6D
:10283000FDEEE77A17EE903A03F1010780F08E8102
:102840007F2A00F58B644FF0010B94BF0023012316
:102850003F2F049394BF00210121059113B9002952
:1028600000F08C81D0463E46AE46F10806F00703E4
:102870004FF00109BEF17F0F0EEBC11109FA03F30E
:1028800008D83F2E014405D891F8649443EA09031F
:1028900081F864345FEA480318BFDE449A4501DDDD
:1028A000D044013E7245E0D1B742DED10023089307
:1028B000C7F13303332F83EAE371A1EBE3710B46D6
:1028C000B4BF01234FF0FF33C1F1000A019102931D
:1028D000049B43B902F54073034493F8641441F038
:1028E000080183F86414332F29D05646394696469A
:1028F0004FF0010BCB0801F00708BEF17F0F0EEB84
:10290000C31306FA0BF90BFA08F808D83F29034459
:1029100005D893F864B448EA0B0883F86484BAEBEA
:10292000460F03DA019B0EF1FF3EF61AB9F1000FD4
:1029300001D0029B19447245DAD13329D8D1A5EBD5
:10294000020895428CBF01224FF0FF32B8F1000F10
:10295000B8BFC8F100087F2D08D805F540730344BF
:1029600093F8641441F0080183F86414089B0BBBCE
:10297000C6463326F30806F007090121BCF17F0F94
:102980000CEBC31301FA09F108D83F2E034405D814
:1029900093F8649441EA090183F864145FEA4E03F2
:1029A00018BF9444984501DDC644013E6545E1D118
:1029B000332EDFD117EE903AA3F1320CBCF1000FA9
:1029C000B8BFCCF1000C332FCCF1000600F3B2807D
:1029D0007F2D4FF0FF3A03D8059B002B00F0B0800D
:1029E000332F26D0B146294633224FF0010BD308AE
:1029F00002F0070E7F2901EBC31306FA0BF80BFA5E
:102A00000EFE08D83F2A034405D893F864B44EEA72
:102A10000B0E83F864E4B9EB460F02DA0139A6EB3A
:102A20000C06B8F1000F00D052448D42DDD1974220
:102A3000DBD1039BF1EE046AFFEE007A9FED3C7A56
:102A400003F58873069D079A00EB830393ED006AF4
:102A5000099BE6EE267AD3F820391D44A2EB030C3D
:102A60006545F0EEE77A67EE877AFDEEE77A17EED6
:102A7000907A07F1010718D8332F13DC3A46D308B0
:102A800002F0070601217F2D05EBC3130A4401FA6A
:102A900006F1034404D893F86464314383F8641462
:102AA000342AECD10135AC45E6D200F58C6704F14F
:102AB0000C0604F20C49B0254FF0000838468DF89A
:102AC0002F500135414603F0A3FA642301220DF192
:102AD0002F012046EDB205F0F3F9414638468DF856
:102AE0002F8003F095FA012264230DF12F01204677
:102AF00005F0E6F91023414638468DF82F3003F0F3
:102B000087FA642301220DF12F01204605F0D8F940
:102B10000121384603F07CFA8022314664231644B2
:102B2000204605F0CDF9B145C6D10DB0BDE8F08F16
:102B300000004C427F2D38D8059BB3BB4FF0010AF3
:102B4000FB0807F00701012205EBC3138A40034489
:102B500093F864140A4383F8642441E77F2A00F55C
:102B60008B644FF0FF3B94BF002301233F2F04935E
:102B700094BF0021012105918BB981B9FB08012186
:102B800007F0070602EBC31301FA06F6034493F8B5
:102B90006414314383F864140023CDE9043395426F
:102BA0007FF460AE0123089382E6B1464FF0010A3C
:102BB00019E700BF70B5054600F58E7400F5EE7696
:102BC0002046203402F056FDB442F9D105F1F4005C
:102BD00002F0A4FD05F5007002F0F8FD05F50470A3
:102BE00002F0F4FD05F5087002F0F0FD05F50C703B
:102BF000BDE8704002F0EABD2DE9F0410746A2B001
:102C00001C303F4D01F0D2FA01284FF000016DD089
:102C10002B880122ADF84230AB88CDE91612ADF811
:102C200044302B89002401264FF00308ADF83E30D4
:102C300009A9AB8968460E94ADF83C302B8A0994FB
:102C4000ADF84030AB8A0094ADF828302B8BADF84E
:102C50002A301023CDE91446CDE90B648DF83430C9
:102C6000CDE9128603F054FB264B009901A8DA68DF
:102C700022F47022DA60DA6842F4A022DA60019469
:102C800001F0CEFAAB8B18A92A8C03A8ADF86630F8
:102C90004FF48073ADF86A20ADF864304FF40073E0
:102CA000ADF86C40ADF868301896CDE91E64CDE9FA
:102CB0002046CDE90344CDE91C8604F03DF90EA978
:102CC00004A84FF07C5404F037F930214FF07E52C5
:102CD000049B78180591089205A9039ACDF81880ED
:102CE000079402F0C3FB22B0BDE8F0812A88AB88CC
:102CF00016901791ADF84220ADF8443091E700BF2F
:102D0000E8870108000402582DE9F04390F858E0E4
:102D1000044600F58A6585B000EB0E13586FD3F8B2
:102D20008060D3E91EC840451ED8B44519D87F2815
:102D3000634694BF00270127DA0803F00709012141
:102D40003F2B00EBC2120B4401FA09F107D82244D1
:102D50002FB992F8649441EA090182F864149E4202
:102D6000EAD201308045E0D227460026DFF8848190
:102D7000B7F85C90BEEB060EB7F860C0284618BFE7
:102D80004FF0010EB9F17F0F54F8261006F101063D
:102D900028BF4FF07F09BCF13F0F07F1080728BF9C
:102DA0004FF03F0CA4F8549498E80C00A4F856C4D3
:102DB000CDF800E0FDF728FF032E02D094F858E08C
:102DC000D6E794F8E32404F58B6604F2644104F238
:102DD000634342F0010204F2E24084F8E32413F872
:102DE000012F42F0010298421A70F8D194F8E327BB
:102DF000002342F0100284F8E3271A0103F00705CC
:102E0000012042F07F020344A8402244342B92F870
:102E1000645440EA050082F86404EED194F8642713
:102E200004F2E47042F0100704F2657284F86477EB
:102E300010F8015D45F0100582420570F8D194F854
:102E40006424062042F0010284F8642403E004EBC9
:102E5000C01292F8647403F00705012204EBC0105D
:102E6000013B02FA05F242EA070280F864244FEAC5
:102E7000D300ECD104F58C648846B02500272046A9
:102E80008DF80F500135394603F0C2F86423012252
:102E90000DF10F013046EDB205F012F8394620462B
:102EA0008DF80F7003F0B4F8012264230DF10F01C7
:102EB000304605F005F81023394620468DF80F30CE
:102EC00003F0A6F8642301220DF10F01304604F04F
:102ED000F7FF0121204603F09BF88022414664233E
:102EE0003046904404F0ECFFB82DC7D105B0BDE8E2
:102EF000F08300BF740300242DE9F04F04464FF423
:102F00008062002100F2644004F58A632DED028B9B
:102F10008DB008EE103A12F07DFF94F8583004EBB3
:102F20000312D2E91D73D2E91F620393A6EB0709CE
:102F300030460492B9F1000FB8BFC9F10009B74299
:102F4000C0F0BB817F2E04F58B654FF0FF3B94BF33
:102F5000002101213F2B069194BF002301230893F8
:102F600099B993B90399CB0801F0070C012106EB3D
:102F7000C31301FA0CF1234493F864C441EA0C0131
:102F800083F86414002308930693B74200F0C881C5
:102F9000C846DDF80CC0BE464FEADC030CF0070162
:102FA0004FF0010ABEF17F0F0EEBC3130AFA01F1D5
:102FB00009D8BCF13F0F234405D893F864A441EA33
:102FC0000A0183F864145FEA480318BFDE44994598
:102FD00002DDC8440CF1FF3C7645DDD1039B63451F
:102FE000DAD100230993DDE90331CB1A83EAE37CCC
:102FF000ACEBE37C039B8B42CDF814C0C0F0738133
:103000003F2963460699CCF1000A94BF00230123AF
:103010000793002940F07981002B40F076814FF032
:10302000FF33069304994FF0010CCB0801F0070120
:1030300006EBC3130CFA01F1234493F864C441EA8C
:103040000C0183F8641400230793DDE903318B42FC
:1030500000F06381D6460399B4464FF0010BCB08CC
:1030600001F00708BCF17F0F0CEBC3130EFA0BF94C
:103070000BFA08F808D83F29234405D893F864B41C
:1030800048EA0B0883F86484BAEB4E0F04DA059B18
:103090000CF1FF3CAEEB030EB9F1000F01D0069B23
:1030A00019446645D9D1049B8B42D6D14FF0000B11
:1030B000A7EB060EB7428CBF01264FF0FF36079BE9
:1030C000BEF1000FB8BFCEF1000E7F2F94BF4FF0BE
:1030D000000A4FF0010A9BB9BAF1000F10D1049910
:1030E0004FF0010CCB0801F0070107EBC3130CFAFA
:1030F00001F1234493F864C441EA0C0183F8641499
:10310000099B33BBF046DDF810C04FEADC030CF03E
:1031100007014FF001097F2800EBC31309FA01F101
:1031200009D8BCF13F0F234405D893F8649441EAD1
:10313000090183F864145FEA480318BF80199E45AB
:1031400002DDF0440CF1FF3C8742DED1049B634575
:10315000DBD1DDE90331A3EB010E8B428CBF4FF0D5
:1031600001084FF0FF380899BEF1000FB8BFCEF14B
:10317000000ECEF1000C81B9BAF1000F0DD1194645
:10318000DB0807EBC31301F0070001212344814052
:1031900093F86404014383F86414BBF1000F25D154
:1031A000604639460126D30802F0070A7F2900FA53
:1031B00006F901EBC31306FA0AF608D83F2A23449E
:1031C00005D893F864A446EA0A0683F86464BCEB65
:1031D000400F02DA0139A0EB0E00B9F1000F00D068
:1031E00042448F42DED1039B9342DBD12646A4F1B9
:1031F000040804F118094C4F18EE10AAB6F85C0048
:103200000123B6F8601008367F28009328BF7F207E
:103210003F2928BF3F21A4F854045046A4F856146F
:1032200058F8041F97E80C00FDF7EEFCB145E5D116
:1032300004F58C6405F10C0705F20C49B0264FF03B
:10324000000820468DF82F600136414602F0E0FE6E
:10325000642301220DF12F012846F6B204F030FE5E
:10326000414620468DF82F8002F0D2FE01226423D1
:103270000DF12F01284604F023FE1023414620467D
:103280008DF82F3002F0C4FE642301220DF12F01CE
:10329000284604F015FE0121204602F0B9FE8022E6
:1032A000394664231744284604F00AFE4F45C6D128
:1032B0000DB0BDEC028BBDE8F08F039B04F58B6570
:1032C0004FF0010B3F2B94BF002301237F2E089367
:1032D00094BF002101210691002B7FF459AE0029F3
:1032E0003FF440AE54E6049B05993F2BC1F1000A20
:1032F00094BF00230123079323B9069B13B901232D
:1033000006938FE601230693A4E64FF0FF3306935E
:10331000DDE903318B427FF49DAE4FF0010BC7E630
:10332000012309935FE600BF7403002400F58A635C
:103330002DE9F04F012405462DED028B08EE103AE1
:103340008FB00122D308012102F0070004EBC31360
:103350000A4401FA00F02B44342A93F8641421EA59
:10336000000183F86414EDD101347F2CE9D105F11B
:103370000C030322CDE905530023CDE90232039863
:1033800005210124324BA5F856040698A5F85414DB
:1033900050F8041B0CCB069018EE100A0094FDF7B1
:1033A00033FC95F85930029A934253D0039B029A0A
:1033B00005990A33013210319BB2042A0292059119
:1033C0000393DCD105F58B6705F58C6605F2644443
:1033D000B0254FF0000830468DF837500135414692
:1033E00002F016FE642301220DF137013846EDB2DA
:1033F00004F066FD414630468DF8378002F008FE45
:10340000012264230DF13701384604F059FD1023E1
:10341000414630468DF8373002F0FAFD6423012230
:103420000DF13701384604F04BFD0121304602F022
:10343000EFFD8022214664233846144404F040FD09
:10344000B82DC6D10FB0BDEC028BBDE8F08F00BF28
:1034500074030024059BD3F8AC60D3F8A470D3F8B0
:10346000B0C03046A6EB0709D3F8A8306246B9F1E0
:10347000000F0493B8BFC9F10009B742C0F03E8104
:103480007F2E4FF0FF3B94BF002101213F2B08917D
:1034900094BF00230123099391B98BB904990124A6
:1034A000CB0801F0070106EBC31304FA01F12B442A
:1034B00093F86444214383F864140023CDE908336E
:1034C000B74200F04381C846049CBE46E30804F0BE
:1034D00007014FF0010ABEF17F0F0EEBC3130AFA8A
:1034E00001F108D83F2C2B4405D893F864A441EA95
:1034F0000A0183F864145FEA480318BFDE44994563
:1035000001DDC844013C7645E0D1049BA342DDD1F6
:1035100000230B930499ACEB0103614583EAE37448
:10352000A4EBE37423460794C0F0F780BCF13F0F8F
:103530000899C4F1000A94BF002301230A930029CB
:1035400040F0FA80002B40F0F7804FF0FF330893F3
:103550004FEADC0301240CF0070106EBC31304FA65
:1035600001F12B4493F86444214383F8641400234D
:103570000A93049B634500F0EC80D64604993446D8
:103580004FF00109CB0801F007087F2C04EBC313AF
:103590000EFA09FB09FA08F808D83F292B4405D888
:1035A00093F8649448EA090883F86484BAEB4E0FF0
:1035B00003DA079B013CAEEB030EBBF1000F01D019
:1035C000089B1944A642DBD18C45D9D14FF0000BA2
:1035D000A7EB0608B7428CBF01264FF0FF360A9BC7
:1035E000B8F1000FB8BFC8F100087F2F94BF4FF0AB
:1035F000000A4FF0010A8BB9BAF1000F0ED14FEA61
:10360000DC0301240CF0070107EBC31304FA01F1FA
:103610002B4493F86444214383F864140B9B0BBB45
:10362000C6466446E30804F007014FF001097F280D
:1036300000EBC31309FA01F108D83F2C2B4405D83D
:1036400093F8649441EA090183F864145FEA4E0335
:1036500018BF8019984501DDC644013C8742E1D17D
:10366000A445DFD10499099BA1EB0C0861458CBFEF
:103670004FF0010C4FF0FF3CB8F1000FB8BFC8F19C
:103680000008C8F1000E83B9BAF1000F0DD1CB08C4
:10369000012001F0070107EBC31300FA01F12B44ED
:1036A00093F86404014383F86414BBF1000F7FF4C2
:1036B0007DAE704639460124D30802F007097F2900
:1036C00000FA04F601EBC31304FA09F408D83F2A00
:1036D0002B4405D893F8649444EA090483F86444BD
:1036E000BEEB400F02DA0139A0EB080006B16244DC
:1036F0008F42E0D1049B9342DDD157E604997F2E9F
:1037000094BF002301233F29089394BF0021012186
:103710000991C3B9B9B9A346C0E6079BBCF13F0FF5
:103720000899C3F1000A94BF002301230A9339B911
:1037300033B9012308930BE74FF0FF33089318E7E1
:103740000123089319E74FF0010BBCE601230B930B
:10375000E0E64FF0010B3BE790F858302DE9F041DF
:10376000074682B0002B46D0022B01D1FFF7DEFDC9
:1037700007F58B6607F58C65B02407F264474FF0B8
:10378000000828468DF807400134414602F040FC0D
:10379000642301220DF107013046E4B204F090FBEE
:1037A000414628468DF8078002F032FC012264234E
:1037B0000DF10701304604F083FB102341462846F3
:1037C0008DF8073002F024FC642301220DF107017B
:1037D000304604F075FB0121284602F019FC8022D6
:1037E000394664233046174404F06AFBB82CC6D12E
:1037F00002B0BDE8F08105F015FD07F51043D3F8E0
:103800002829D3F82C39801A9842B1D93846FEF7C6
:103810005DFDADE7012990F858302DE9F0410746EC
:1038200082B0144654D0002B54D107F264484FF4B0
:1038300080620021404612F0EDFA3846002C44D058
:10384000FFF762FA384607F58B6607F58C65B024FA
:10385000FFF782FF002728468DF8074001343946DC
:1038600002F0D6FB642301220DF107013046E4B2D9
:1038700004F026FB394628468DF8077002F0C8FB95
:10388000012264230DF10701304604F019FB1023D7
:10389000394628468DF8073002F0BAFB642301222E
:1038A0000DF10701304604F00BFB0121284602F020
:1038B000AFFB8022414664233046904404F000FB75
:1038C000B82CC7D102B0BDE8F081FFF715FBB9E70E
:1038D000012BAAD80B4487F85830A6E72DE9F04110
:1038E000012184B00546294CFEF7C0FE0120284B7B
:1038F00005F58B67C5F8544405F58C66B024254959
:103900000CCB009005F58A6005F26445FDF77CF963
:103910004FF0000830468DF80F400134414602F068
:1039200077FB642301220DF10F013846E4B204F065
:10393000C7FA414630468DF80F8002F069FB01223C
:1039400064230DF10F01384604F0BAFA1023414602
:1039500030468DF80F3002F05BFB642301220DF13D
:103960000F01384604F0ACFA0121304602F050FB5A
:103970008022294664233846154404F0A1FAB82C65
:10398000C6D104B0BDE8F04105F050BC14003700CA
:1039900074030024C888010870B590F80631044605
:1039A000FF2B0ED090F85830012B5FD0022B00F087
:1039B0009F80002B4BD004F5104393F82429DABBE9
:1039C00070BD05F02FFC07EE900AD4ED426AF8EEC8
:1039D000677A9FED587A77EEE67AF4EEC77AF1EEE1
:1039E00010FA0CDD04F5104595F82439002B55D05C
:1039F00094F8F8301BB1D4F81811002959D194F873
:103A00005830012B32D0022B58D003B394F8063132
:103A1000FF2BD0D105F006FC07EE900AD4ED426AE8
:103A2000F8EE677A9FED437A77EEE67AF4EEC77A9E
:103A3000F1EE10FABFD470BD0022204683F824298D
:103A4000FFF75AFA2046BDE87040FFF785BE05F043
:103A5000E9FB04F51043D3F82829D3F82C39801A50
:103A60009842D3D92046FEF731FCCFE704F5104643
:103A700005F0D8FBD6F82829D6F82C39801A9842B8
:103A8000C4D9002505F0CEFBC6F828092946013522
:103A90002046FEF787FE042DF8D1B7E72046FFF752
:103AA00033F9012385F8243994F8F830002BA6D097
:103AB000A1E701222046FFF7ADFEA0E794F806310A
:103AC000FF2B15D194F85930032B23D094F8F830FC
:103AD000002B9FD0D4F81821002A97D004F510436A
:103AE00093F8241951B194F80621FF2AA4D191E743
:103AF00094F8F830002B3FF45EAFEBE7012A94F81E
:103B000059300FD083B11344204684F85930FFF761
:103B10000DFC7BE72046FFF7E1FE94F8F830002B20
:103B2000D8D173E7022BEED994F80631FF2B3FF47E
:103B300071AF70BD0000964384B02DE9F04182B0B2
:103B40000125064604460DF124088572274688E8BB
:103B50000E00BDF84C3026F8083F304602F06EF9F2
:103B6000BDF84E30A57127F8043F384602F066F9DB
:103B70004146204604F01EF90021384602F048FA7A
:103B80000A2005F051FB2946384602F041FA0A2086
:103B900005F04AFBAE23304600218DF8073002F0D5
:103BA00037FA2A460DF107016423204604F088F90C
:103BB000D523304600218DF8073002F029FA2A4635
:103BC0000DF107016423204604F07AF98023304682
:103BD00000218DF8073002F01BFA2A460DF107018B
:103BE0006423204604F06CF9A823304600218DF8A8
:103BF000073002F00DFA2A460DF107016423204632
:103C000004F05EF93F23304600218DF8073002F0C2
:103C1000FFF92A460DF107016423204604F050F90C
:103C2000DA23304600218DF8073002F0F1F92A46F8
:103C30000DF107016423204604F042F912233046B7
:103C400000218DF8073002F0E3F92A460DF1070153
:103C50006423204604F034F90021D32330460F4674
:103C60008DF8073002F0D4F92A4664230DF10701DC
:103C7000204604F025F9394630468DF8077002F0E9
:103C8000C7F92A460DF107016423204604F018F90C
:103C90004023394630468DF8073002F0B9F92A46FC
:103CA0000DF107016423204604F00AF9A6233946E2
:103CB00030468DF8073002F0ABF92A460DF10701C6
:103CC0006423204604F0FCF8A423394630468DF8DE
:103CD000073002F09DF92A460DF1070164232046C2
:103CE00004F0EEF88D23394630468DF8073002F0A7
:103CF0008FF92A460DF107016423204604F0E0F80D
:103D00001423394630468DF8073002F081F92A46EF
:103D10000DF107016423204604F0D2F8A1233946AF
:103D200030468DF8073002F073F92A460DF107018D
:103D30006423204604F0C4F8C823394630468DF881
:103D4000073002F065F92A460DF107016423204689
:103D500004F0B6F88123394630468DF8073002F07A
:103D600057F92A460DF107016423204604F0A8F80C
:103D70008F23394630468DF8073002F049F92A463C
:103D80000DF107016423204604F09AF8D92339463F
:103D900030468DF8073002F03BF92A460DF1070155
:103DA0006423204604F08CF82523394630468DF8EC
:103DB000073002F02DF92A460DF107016423204651
:103DC00004F07EF8DB23394630468DF8073002F0E8
:103DD0001FF92A460DF107016423204604F070F80C
:103DE0003423394630468DF8073002F011F92A465F
:103DF0000DF107016423204604F062F8AF23394631
:103E000030468DF8073002F003F964232A460DF19D
:103E10000701204604F054F802B0BDE8F04104B0B8
:103E2000704700BFF0B540F606329FB01F4B064604
:103E3000092016AD6C46CDE9082300F081F8034651
:103E40001F20ADF8483000F07BF802220B21002340
:103E50000DF1200EADF822100121ADF84A000DF150
:103E60004C0C0A936746CDE910220822CDE90E33A7
:103E7000CDE90B310D92BEE80F00ACE80F00BEE8B3
:103E80000F00ACE80F009EE807008CE807000FCD9C
:103E90000FC495E80F0084E80F0006F58B6097E8E3
:103EA0000E00FFF749FE1FB0F0BD00BF0105060A76
:103EB00030B5054685B0FEF7FFFA284605F51044F3
:103EC000FEF766FB1123C4F82C3905F0ABF92B463D
:103ED0000122C4F82809C3F8A82001240A323F218E
:103EE000C3F8A4401033332AC3E92712F3D128467C
:103EF000FFF798FF062000F023F803460520ADF8F1
:103F0000043000F01DF803460420ADF8083000F03E
:103F100017F8ADF80C0005F1F4009FED080A039BBB
:103F2000DDE9011201F0CAFB2846FEF765FE2846CE
:103F300005B0BDE83040FEF76DBB00BF00000000DB
:103F4000202882B009D8084B03EB400213F8103048
:103F5000507843EA002002B0704701230C2043EA66
:103F6000002002B0704700BFD8900108143001F063
:103F70001BBB00BF38B500F1140504462DED028BC4
:103F8000284601F0CDFA284601F0C6FA2846B0EEE0
:103F9000408A01F0AFFAD0ED007AF8EE677A88EE49
:103FA000277ABDEC028B84ED0E7A38BD38B500F16E
:103FB000140504462DED028B284601F09FFA284691
:103FC00001F0AAFA2846B0EE408A01F093FAD0ED4B
:103FD000007AF8EE677A88EE277ABDEC028B84EDE2
:103FE0000E7A38BD90ED0E0A704700BFF0B503237E
:103FF00099B000270125129306462C4B09A8159568
:10400000CDE90E7340F20453ADF84030284BCDE9B2
:104010001357099301F012FF09A801F0EBFF0028E4
:1040200036D1244B04AF04460090CDF84230102323
:10403000394604958DF820301F4BCDE91650CDE957
:1040400006506846059302F063F90823009A01A917
:1040500009A8ADF804508DF8064009940295039321
:1040600000F0B2F900230EA938463024049302F080
:1040700063FF03224FF07E5309A906F114000B934E
:104080000C93CDE90942049A01F0B8F919B0F0BDDA
:1040900040F60132074B169704AFADF8242009987B
:1040A000CDF84230179500F099F8DBE704020404DC
:1040B00003030001040604030704010B2DE9F04388
:1040C00004462DED028B83B0002948D0012140F237
:1040D000011200230091ADF804208DF80630304A1B
:1040E0000126304B271D304904F12908626040F257
:1040F0000272A36040F60663E16004F1250926829E
:10410000A4F8252084F82760A4F8293084F82B60CF
:1041100005F014FA6946054648B304F130008DF8FD
:10412000066005F069F9072D34D104F11405204625
:10413000FFF75CFF284601F0EFF92846B0EE408A11
:1041400001F0D8F9D0ED007AF8EE677A88EE277A98
:1041500084ED0E7A03B0BDEC028BBDE8F08340F233
:10416000011300918DF80610ADF80430B7E704F1A3
:10417000300005F041F93946204602F05DFB484623
:1041800001F05CFE404601F059FE04F1120000F01F
:1041900045FACAE73946204602F04EFBC5E700BFA4
:1041A0000508050905070506050A06060A4B4FF42A
:1041B000807200B583B01B8801A8ADF80620ADF869
:1041C000043001F03BFE01A801F014FFB0FA80F0CA
:1041D000400903B05DF804FB0C88010810B584B0F9
:1041E00003460124ADF8040003A8ADF80C30ADF887
:1041F0000E4001F023FE214603A801F009FF2046EE
:1042000005F012F8002103A801F002FF204605F096
:104210000BF8214603A801F0FBFE04B010BD00BF5F
:10422000F0B58C2387B00160002203710124FA26C7
:10423000194605AB8DF814200296402200932346C0
:104240000194054602F022F9002840F09B809DF879
:1042500014300DF117074022284603F07F03009722
:10426000CDE901468DF814308DF8173023462979B1
:1042700002F032F9002840F08580042004F0D4FFD9
:1042800005AB4022284600932346CDE90146297913
:1042900002F0FCF8002875D19DF8143040220097F8
:1042A000284603F0BF03CDE901468DF814308DF8A0
:1042B00017302346297902F00FF9002862D1042033
:1042C00004F0B2FF0DF11503432228460093234664
:1042D000CDE90146297902F0D9F8002852D10DF133
:1042E00016034822284600932346CDE90146297942
:1042F00002F0CCF8002845D19DF8153043220097F4
:10430000284643F001038DF815308DF817309DF8DD
:10431000163043F00103CDE901468DF816302346EF
:10432000297902F0D9F868BB9DF816304822009729
:1043300028468DF817302346CDE90146297902F049
:10434000CBF8F8B905AB4022284600932346CDE9C7
:104350000146297902F09AF8A0B99DF81420234665
:104360000194284602F0CF04029600974022297952
:104370008DF814408DF8174002F0AEF8003818BFE1
:10438000012000E0012007B0F0BD00BF10B5C2F36E
:10439000002384B00C46017C8DF80D2043EA4402D2
:1043A000FA2402238DF80C2003AA009402F046F8A8
:1043B00018B10124204604B010BD04460A2004F0C0
:1043C00033FF204604B010BD034670B543F8042BFC
:1043D000044684B007C983E80700A37983B91A218A
:1043E0000B461E22FA2523742046ADF80C2002232A
:1043F00003AA009502F022F828B1012004B070BD94
:104400001B210B46EDE70A2004F00EFF4FF4B852D3
:1044100000950223ADF80C20204603AA217C02F06F
:104420000DF80028E9D10A2004F0FEFE41F20272E4
:1044300000950223ADF80C20204603AA217C01F050
:10444000FDFF0028D9D10A2004F0EEFE04220095D9
:104450000223ADF80C20204603AA217C01F0EEFFD8
:104460000028CAD10A2004F0DFFE062200950223AC
:10447000ADF80C20204603AA217C01F0DFFF0028C4
:10448000BBD10A2004F0D0FE41F20822009502239D
:10449000ADF80C20204603AA217C01F0CFFF0028B4
:1044A000ABD10A20064604F0BFFE0095022303AA02
:1044B000217C2046ADF80C6001F0C0FF00289CD1A3
:1044C000304604F0B1FE009522790C232046002AE4
:1044D0008DF80C3003AA4FF0020314BF6221422171
:1044E0008DF80D10217C01F0A9FF002885D1304600
:1044F00004F09AFE2279D4E902310B43DBB20AB907
:1045000043F0400362790AB143F020030E22FA25FA
:104510008DF80D302046009502238DF80C2003AA5B
:10452000217C01F08BFF00287FF467AF0A2004F0A4
:104530007BFE102200950223ADF80C20204603AA32
:10454000217C01F07BFF00287FF457AF0A2004F0A4
:104550006BFE122100950223ADF80C1003AA217CFA
:10456000204601F06BFF00287FF447AF0A2004F0DB
:104570005BFE012209212046FFF708FF003818BF23
:1045800001203BE7F0B5102387B0234C0122002522
:104590000126002702A920460195CDE902234FF408
:1045A0008052CDE904670CF00BF8642005F06CFA3A
:1045B00002A94FF480522046CDE904670226102755
:1045C000CDE902670BF0FCFF0322102302A920466D
:1045D000CDE9022300230422CDE904234FF48052C5
:1045E0000BF0EEFF40F23223042202A901931023C4
:1045F0002046CDE90223019A012305924FF480520F
:1046000004930BF0DDFF40F6060120460BF0F8FFA7
:10461000284607B0F0BD00BFDC9E00241C4B0022E2
:104620001C494FF0400C30B5054689B00220596056
:1046300007219A601A620124DA620A224FF4006E9E
:10464000DC6006922022CDE9000104200821CDE99A
:10465000020103201021CDE9040108206946C3E9C5
:1046600004024FF4C072181DC3E906C24FF4805211
:10467000C3E909E20BF07AFF38B92846FFF782FF59
:10468000003818BF012009B030BD204609B030BD48
:10469000D89E002440410052614A0021D0B51368E1
:1046A0008EB00A91002B40F0B9805E4B01214FF68D
:1046B00083700C2411600221D3F8D4200026032734
:1046C00042F48052C3F8D420D3F8D42002F48052AC
:1046D0000092009AD3F8E02042F01002C3F8E020E4
:1046E000D3F8E02002F010020192019AD3F8E02002
:1046F00042F04002C3F8E020D3F8E02002F040028C
:104700000292029AD3F8E02042F00802C3F8E020B7
:10471000D3F8E02002F008020392039AD3F8E020D5
:1047200042F48072C3F8E020D3F8E02002F48072F3
:104730000492049AD3F8E02042F08002C3F8E0200B
:10474000D3F8E02002F080020592059AD3F8E02029
:1047500042F02002C3F8E020D3F8E02002F020026B
:104760000692069AD3F8E02042F00402C3F8E02053
:10477000D3F8E0300C9403F0040307930323079A63
:104780000B93CDE9080108A9274807F015F848F26E
:104790003712022308A925480C94CDE90823CDE956
:1047A0000A6707F009F84CF20372022308A92048AF
:1047B0000C94CDE90823CDE90A6706F0FDFF40F22D
:1047C000FF62022308A91B480C94CDE90823CDE918
:1047D0000A6706F0F1FF4FF60C72022308A916488B
:1047E0000C94CDE90823CDE90A6706F0E5FF4FF602
:1047F0003F02022308A911480C94CDE90823CDE912
:104800000A6706F0D9FF2022022308A90A480C945F
:10481000CDE90A67CDE9082306F0CEFF0EB0D0BD82
:10482000D49E002400440258001002580018025878
:10483000000C025800200258001C025800140258B4
:104840002DE9F04FDFF8108406460D46144608F1B6
:1048500018002DED028B89B000AF02F065FCD8F88E
:10486000183073B3D8F81C30D8F80490002B436983
:104870000BBF4FF0080A4FF0100A4FF0020B4FF039
:10488000040BB9F1000F2AD0A200EA46012B02F175
:10489000070222F00702ADEB020D6846ADEB020DF8
:1048A000694600F03F81022B00F0D680002B6FD0CC
:1048B0002246C847D5462437BD46BDEC028BBDE82D
:1048C000F08FD8F81C30002BF5D0D8F804904FF0BA
:1048D000080A4FF0020B4369B9F1000FD4D1FB6114
:1048E000D8F80030BB61002BE5D0D54802F08EFC33
:1048F0006B46BBF1020F786108EE103AFB6900F0DD
:1049000083816A465146A2EBC40295466200EA469C
:10491000B2FBFBF2AAEBC40085460AEB8200EE462E
:10492000F861ADEB010DF8690EEB820CC7F810C011
:10493000EC46ADEB010D00EB8201CCF80400CCF8A5
:10494000081001EB82013869E946CCF80C1000EB45
:104950008201CCF800A001EB8202C9E900E0C9E9BC
:104960000212012B00F06483022B00F06C82002BFA
:1049700000F08081620849466046BB69984718EE9E
:10498000103A24379D46BD46BDEC028BBDE8F08F42
:10499000002C8DD01A46D8ED0C6A9FEDB27A844671
:1049A000331D36F922E00CF1080C07EE90EA33F9DA
:1049B00022E00232F8EEE77A944267EE877A67EEF9
:1049C000A67A4CED027A07EE90EAF8EEE77A67EE07
:1049D000877A67EEA67A4CED017AE2D8F961224631
:1049E000C847984ED8ED0D6A0020F9692B1D9FED40
:1049F0009E7A9FED9E6ADFED9E5A22E0F4EEC67A23
:104A0000F1EE10FAC0F2C88447F6FE72D1ED017AD9
:104A100045F8202066EEA77AF4EEC77AF1EE10FA98
:104A200040F2F080F4EEC67AF1EE10FAC0F2D584CE
:104A300047F6FE7243F820200230083184427FF6A8
:104A400039AFD1ED007A66EEA77AF4EEC77AF1EECF
:104A500010FAD3D83246D9E7002C3FF429AFD8ED6D
:104A60000C6A84469FED787A0022331D8E4656F8F4
:104A700022100CF1080C07EE901A53F822100232A3
:104A8000F8EEE77A944267EE877A67EEA67A4CED05
:104A9000027A07EE901AF8EEE77A67EE877A67EE09
:104AA000A67A4CED017AE2D871462246C7F81CE09E
:104AB000C847664ED8ED0D6A0020F9692B1D9FEDA1
:104AC0006A7A9FED6A6ADFF894C120E0F4EEC67A54
:104AD000F1EE10FAC0F279843246D1ED017A45F850
:104AE000202066EEA77AF4EEC77AF1EE10FA40F2D3
:104AF0008780F4EEC67AF1EE10FAC0F25E84324698
:104B000043F820200230083184427FF6D3AED1ED45
:104B1000007A66EEA77AF4EEC77AF1EE10FAD5D8ED
:104B20006246DAE7002C3FF4C3AED8ED0C6A864645
:104B30009FED477A4FF0000C331D56F82C200EF1F4
:104B4000080E82F40002A2F5000207EE902A53F844
:104B50002C200CF1020CF8EEE77A82F40002644596
:104B6000A2F5000267EE877A67EEA67A4EED027A2A
:104B700007EE902AF8EEE77A67EE877A67EEA67A74
:104B80004EED017AD9D8F9612246C847314ED8EDA9
:104B90000D6A0020F9692B1D9FED337A9FED336A72
:104BA000DFF8BCC01FE0F4EEC67AF1EE10FAC0F2F6
:104BB000FC833246D1ED017A45F8202066EEA77AD3
:104BC000F4EEC77AF1EE10FA18D9F4EEC67AF1EEE7
:104BD00010FAC0F2DA83324643F82020023008315E
:104BE00084427FF667AED1ED007A66EEA77AF4EEE6
:104BF000C77AF1EE10FAD6D86246DBE76246EBE7F9
:104C000062467DE7324615E7A100D64662080731C5
:104C100021F00701ADEB010DEA46ADEB010D694650
:104C2000ADEB0E0D0AEB8200EC46ADEB0E0D01EB89
:104C30008202F861E946CCE900A0C9E9001290E6D9
:104C40002C9F00240280FFFF000000300082FF7FC5
:104C50000000003482FF7F00109F0024007E00804F
:104C60007E0080FF0000003804FF7FBF04FF7F3F0D
:104C700000FEFF46002C00F0C982BBF1020FD8F8FD
:104C8000242000F0FA827969C7F8049002EB810EC3
:104C90005FED0C5A8A00DCF808100EF104007A610E
:104CA0001A46DCF80C303B61331DD7F810903D619B
:104CB000FD69C7E902CB8C46834636F92210D8ED50
:104CC0000C7A06EE101A33F9221006EE901A3EF90D
:104CD0002210B8EEC66A07EE101AF8EEE66A3BF943
:104CE0002210B8EEC77A26EE256A66EEA56A27EE90
:104CF000257A26EE276A66EEA76A27EE277A07EE60
:104D0000901A51080232F8EEE77A0AEB81009442D9
:104D100080ED006A05EB810067EEA57AC0ED006AC0
:104D20000CEB810009EB810180ED007A98ED0C7AA3
:104D300067EE877AC1ED007ABFD8D7F804903D6955
:104D4000D7E902CB60466208BB6949469847D8F864
:104D50002C307A69D8ED0D6A1A441FED3D7A1FEDAB
:104D60003D6A2B1D904602F1040A5FED3F5A002276
:104D7000A84ED9E900EC51E0F4EEC67AF1EE10FA53
:104D8000C0F2C78247F6FE7045F822000CEB010026
:104D9000D0ED007A66EEA77AF4EEC77AF1EE10FA5B
:104DA0004BD9F4EEC67AF1EE10FAC0F2BA8247F6A9
:104DB000FE70BBF1020F43F822002BD0D9F8080097
:104DC0000844D0ED007A66EEA77AF4EEC77AF1EEE9
:104DD00010FA36D9F4EEC67AF1EE10FAC0F2CD82AE
:104DE00047F6FE7048F82200D9F80C000144D1EDD6
:104DF000007A66EEA77AF4EEC77AF1EE10FA1ED9C1
:104E0000F4EEC67AF1EE10FAC0F2AF8247F6FE7108
:104E10004AF82210023294427FF6B1AD51080EEBEF
:104E200081008900D0ED007A66EEA77AF4EEC77AA9
:104E3000F1EE10FAA0D83046A6E73046B9E7314681
:104E4000E6E73046CEE7002C00F0E081BBF1020F30
:104E5000D8F8243000F0E1817A69DCF8081003EB1F
:104E6000820EC7F804909300DFED6B5A0EF1040038
:104E700000227B61DCF80C303B61331DD7F81090C9
:104E80003D61FD69C7E902CB8C46834656F8221086
:104E9000D8ED0C7A07EE101A53F82210B8EEC76A54
:104EA00007EE101A5EF82210F8EEC76A07EE101A25
:104EB00026EE256A5BF82210B8EEC77A66EEA56A80
:104EC00026EE276A27EE257A66EEA76A27EE277A6E
:104ED00007EE901A51080232F8EEE77A0AEB8100E9
:104EE000944280ED006A05EB810067EEA57AC0ED83
:104EF000006A0CEB810009EB810180ED007A98EDEE
:104F00000C7A67EE877AC1ED007ABFD8D7F80490A3
:104F10003D69D7E902CB60466208BB6949469847BC
:104F2000D8F82C307A69D8ED0D6A1A449FED3E7A94
:104F30009FED3E6A131D9246DFF8E4C00022FB613C
:104F40002B1D364ED9E9008E4EE0F4EEC67AF1EE16
:104F500010FAC0F2FC81304645F822000EEB010049
:104F6000D0ED007A66EEA77AF4EEC77AF1EE10FA89
:104F700049D9F4EEC67AF1EE10FAC0F2EF8130466C
:104F8000BBF1020F43F822002AD0D9F808000844E8
:104F9000D0ED007A66EEA77AF4EEC77AF1EE10FA59
:104FA00035D9F4EEC67AF1EE10FAC0F2C981304676
:104FB0004AF82200D9F80C000144D1ED007A66EEDF
:104FC000A77AF4EEC77AF1EE10FA1ED9F4EEC67A9B
:104FD000F1EE10FAC0F2AD813146F86940F82210C6
:104FE000023294427FF6CBAC510808EB8100890075
:104FF000D0ED007A66EEA77AF4EEC77AF1EE10FAF9
:10500000A3D86046A8E76046BAE76146E5E7604690
:10501000CEE700BF0280FFFF000000300082FF7F6C
:10502000007E00800000003404FF7FBF04FF7F3F4C
:10503000002C00F0EB807A690021D8F82430C7F802
:10504000109003EB820ED7F81C909300FD610EF1D7
:1050500004021FED0C6A7B61331D154656F82120B2
:105060004808D8ED0C6ABBF1020F82F40002A2F5E9
:10507000000207EE902A53F8212082F40002B8EED5
:10508000E77AA2F5000227EE067A07EE902A0AEBED
:105090008002F8EEE77A27EE267A67EE867A82EDCE
:1050A000007A09EB80024FEA800067EEA67AC2ED33
:1050B000007A27D05EF8212082F40002A2F50002D7
:1050C00007EE902A55F8212082F40002B8EEE77A24
:1050D000A2F5000227EE067A07EE902ADCF80820F7
:1050E000F8EEE77A024427EE267A67EE867A82EDBA
:1050F000007A98ED0C7ADCF80C2067EE877A02448F
:10510000C2ED007A02318C42A8D8D7F810906046E0
:105110006208BB694946FD699847D8F82C307A691E
:10512000D8ED0D6A1A441FED407A1FED406A131D39
:105130009246DFF8C4C20022FB612B1DAB4ED9E9B9
:10514000008E4EE0F4EEC67AF1EE10FAC0F2C580A1
:10515000304645F822000EEB0100D0ED007A66EEF5
:10516000A77AF4EEC77AF1EE10FA49D9F4EEC67ACE
:10517000F1EE10FAC0F2BF803046BBF1020F43F8E7
:1051800022002AD0D9F808000844D0ED007A66EE53
:10519000A77AF4EEC77AF1EE10FA35D9F4EEC67AB2
:1051A000F1EE10FAC0F2AE8030464AF82200D9F88B
:1051B0000C000144D1ED007A66EEA77AF4EEC77ACE
:1051C000F1EE10FA1ED9F4EEC67AF1EE10FAC0F242
:1051D0008B803146F86940F82210023294427FF603
:1051E000CEAB510808EB81008900D0ED007A66EE65
:1051F000A77AF4EEC77AF1EE10FAA3D86046A8E7D2
:105200006046BAE76146E5E76046CEE72246494692
:105210006046BB699847FFF7B2BBC7F810B00022E1
:1052200098ED0C6A331DDFED726AD7F81CB078690F
:1052300056F8221007EE901A53F82210B8EEE77ACB
:1052400007EE901A51080232F8EEE77A27EE267A36
:105250000AEB810E94420BEB810167EEA67A27EEF2
:10526000067A67EE867A8EED007AC1ED007ADFD895
:105270008300D7F810B07B614DE61A46C7F810B02E
:1052800098ED0C6A331DDFED5B6AD7F81CB07869C6
:1052900036F9221007EE101A33F9221007EE901A91
:1052A000B8EEC77A51080232F8EEE77A27EE267A8E
:1052B0000AEB810E94420BEB810167EEA67A27EE92
:1052C000067A67EE867A8EED007AC1ED007ADFD835
:1052D0008300D7F810B07B6134E5F0EE675AFEEE3C
:1052E000E45A15EE900A34E7F0EE675AFEEEE45AFF
:1052F00015EE901A6EE7F0EE675AFEEEE45A15EEE0
:10530000900A3AE7F0EE675AFEEEE45A15EE900A7C
:105310004BE767EEA57AFDEEE77A17EE900A00B24A
:1053200032E567EEA57AFDEEE77A17EE900A00B255
:105330003FE5F0EE675AFEEEE05A15EE901A4CE6A5
:10534000F0EE675AFEEEE05A15EE900A30E6F0EE07
:10535000675AFEEEE05A15EE900AFDE5F0EE675A48
:10536000FEEEE05A15EE900A0AE667EEA57AFDEE2B
:10537000E77A17EE901A09B24AE567EEA57AFDEED4
:10538000E77A17EE900A00B22CE5F0EE675AFEEECF
:10539000E45A15EE902A1FE467EEA57AFDEEE77A4F
:1053A00017EE902A12B2FFF731BBF0EE675AFEEE0D
:1053B000E45A15EE902AFFF7FDBBF0EE675AFEEEB9
:1053C000E05A15EE902AFFF79BBBF0EE675AFEEE0F
:1053D000E05A15EE902AFFF780BB67EEA57AFDEE46
:1053E000E77A17EE902A12B2FFF724BB82FF7F0004
:1053F00000000030000000387E0080FF30B5184CFF
:10540000154685B0046004F1080EEC460FC98EE81D
:105410000F00D4ED047AF5EEC07A8CE80F00F1EEBF
:1054200010FA1ADDB7EE006A94ED057A27EE277AB6
:10543000C6EE276A84ED0D7AC4ED0C6A6DB1204684
:1054400040F8185F01F070FE064903690020064A23
:105450002162A262E36005B030BD012005B030BD1D
:10546000109F00240020003000000030F0B51C4CDC
:1054700016461F4689B0046004F10805EE460DF19A
:10548000100C0FC985E80F00D4ED047AF5EEC07A50
:105490008EE80F00F1EE10FA8CE80F0017DDB7EE82
:1054A000006A94ED057A27EE277AC6EE276A84ED26
:1054B0000D7AC4ED0C6A56B1204640F8186F01F021
:1054C00033FE08490369084A2162A262E360074A81
:1054D0000020074BE7616262E36209B0F0BD00BFE4
:1054E000109F002400200030000000300030003009
:1054F0000010003000680830704700BFB1F5807FB1
:1055000003680A4628BF4FF48072B1F5807F9A6025
:1055100094BF0020012070470068183001F064BE7D
:1055200070B504688AB0A369E160CBB104F11805D5
:10553000284601F0F9FD8446EE46E668BCE80F0017
:10554000AEE80F00BCE80F00AEE80F009CE80300D7
:105550008EE8030069462846049601F0EDFCF8B990
:10556000E069D8B104F11C05284601F0DDFD844650
:10557000EE46E468BCE80F00AEE80F00BCE80F00A0
:10558000AEE80F009CE803008EE803006946284659
:10559000049401F0D1FC003818BF01200AB070BD9E
:1055A00001200AB070BD00BF30B5046883B00D465D
:1055B000E3694BB1A3680020E26A616A9B00009036
:1055C00004F11C0001F0B2FDA3680748A26A9B0029
:1055D000216A009004F1180001F0A8FD0020C4E940
:1055E000005003B030BD00BF4148000810B4074B65
:1055F0004FF07E5130240022032019619C60D86056
:105600005DF8044B5961C3E906227047109F0024DE
:10561000F6EE007A9FED166A20EE207A0160F7EE32
:10562000006A80ED036A80ED020A27EE277AC6EE53
:10563000877AF4EEE67AF1EE10FA11DDF0EE667A92
:105640004FF07E514FF0000C02760022C0ED017A3F
:10565000C0F814C0016143768276C0ED070A704736
:10566000F4EEC67AF1EE10FAEAD5F0EE467AE7E704
:10567000000000000268037E128807EE902AFBEE0D
:10568000C87A1BB1B7EE007A77EE677AD0ED056A7B
:1056900090ED047A77EEE67A437E67EE877A0BB177
:1056A000F1EE677A90ED030A90ED017A77EEC07A19
:1056B000A7EE270A80ED030A704700BF30B585B01A
:1056C00004460025ADF80C10ADF80820ADF8043004
:1056D00003F0A8FDBDF80C204FF48073206004F1A6
:1056E00018002283BDF808206383E383A283257119
:1056F00000F0A4FB04F11C0000F0A0FB9FED060AE3
:10570000019904F1080000F047F84FF6FF73656255
:10571000238405B030BD00BF00000000F8B504468A
:1057200003F080FD002623682671834205D104F131
:105730000800BDE8F84000F049B8012794F820506F
:10574000206004F11800BD40277100F053FC6DB2D9
:10575000284394F82150BD4084F8200004F11C0037
:1057600000F048FC94F820306DB2666203F0030349
:105770002843022BC0B284F8210009D000F00300B6
:105780000228D4D1002BD2D14FF0FF336362CEE791
:105790008307CCD16762CAE770B5044682B0C1F313
:1057A0000726CDB2ADF8041003F03CFD4FF4807233
:1057B0004FF001232060A01DA571A280E671A360B7
:1057C00002B0BDE8704000F039BB00BF38B50446F8
:1057D00003F028FD002223682271834210D00122A9
:1057E000A57AE37A954020602271A01D6DB243B97D
:1057F00000F000FC40B22843C0B27F28A0720AD05B
:1058000038BD00F0F7FBB0FA80F040092843C0B281
:105810007F28A072F4D103F005FD07EE900AF8EEA0
:10582000677AC4ED037A38BD82B04FF0000C0323D1
:10583000ADF80410BDF8042080F810C00280438049
:1058400002B070472DE9F04FBE4E00258FB0BE4C20
:10585000037006F140034260074601928846202209
:1058600029463046C4F85831C4F85461CDE903558F
:10587000CDE90555CDE90755CDE90955CDE90B55DC
:1058800010F0C8FA2022294604F59970C4F8215175
:10589000C4F82551C4F82951C4F82D5110F0BAFAB2
:1058A000019B84F8385284F820317A68002A5FD04E
:1058B0002B464146B64604F5907599464FF0010ACD
:1058C00003EB0310D1F800B0D1F804800133D1F814
:1058D00008C02218CE6844F800B0C2F80480C2F8AC
:1058E00008C0D660087C2EF8029B10740A7C05F86C
:1058F000012F002A69D07A68113184F838A29A42BF
:10590000DED84FF4802291489DF8043008214FF0F2
:1059100000084FF00009C4F874310023C4E95702AD
:105920000122C4F8643184F87031C4E95A2194F832
:105930003812C4E9608981B3C4F88821002284F850
:10594000713184F878313B78C4E96322A3B3012232
:1059500000200121013B84F89421C4E96801082B4F
:105960002CD8DFE803F0ABB0B5BABFC4C9CFD600BE
:105970009DF804300121C4F86421C4F874314FF457
:10598000802384F87021714AC4E957230823002238
:10599000C4E95A130023C4E960230123002284F8D8
:1059A0007131002384F878310323C4F888313B78BF
:1059B000C4E96322002BCAD184F89431644804F00E
:1059C0009BFC034638B1FFBEFEE77A6811319A426C
:1059D0003FF676AF95E703A95D48039304F0EAFD2F
:1059E0000546002868D1022240F2FF73CDE9082362
:1059F00000230422CDE90A2394F82031002B00F083
:105A0000D5804FF0060921E0022B00F08980012BA0
:105A100040F0C4809AF80130012B00F0C180002BC7
:105A20004C4B18BF002306A94948CDE9063904F0BC
:105A30008FF8002840F0BF80013594F82031EDB296
:105A4000AB4240F2B380444B53F825902FB207EBA2
:105A5000071704EB070A504600F0F0F905EB0513B1
:105A600023441B7C042B7DDC022B00F3918000F08F
:105A70008D806319002283F81021E35D002BC3D1D0
:105A80009AF80130062B00F08580072B00F08A8001
:105A9000022B00F09680032B00F09580002B00F085
:105AA0009680012B00F09180042B00F09280052B52
:105AB0002A4B18BF0023B6E7FFBEFEE703224023B0
:105AC000C4E966237AE707226023C4E9662375E701
:105AD0000F228023C4E9662370E71F22A023C4E9B4
