:020000040800F2
:1000000000000220110A00080D0A0008057C000803
:100010000D0A00080D0A00080D0A00080000000083
:100020000000000000000000000000000D0A0008B1
:100030000D0A0008000000000D0A0008897B000876
:100040000D0A00080D0A00080D0A00080D0A000834
:100050000D0A00080D0A00080D0A00080D0A000824
:100060000D0A00080D0A00080D0A000821690008A1
:100070002D690008E1570008396900084569000842
:100080005D230108B55D00080D0A00080D0A00088F
:100090000D0A00080D0A00080D0A00080D0A0008E4
:1000A0000D0A00080D0A00080D0A00080D0A0008D4
:1000B000311701083D17010849170108E95D0008DB
:1000C0000D0A0008F55D00080D0A0008F974000823
:1000D0000575000891210108C1210108F5210108D9
:1000E0000D0A00080D0A0008000000000D0A0008B3
:1000F0000D0A00080D0A00080D0A00080D0A000884
:100100000D0A00080D0A00085517010811750008AE
:10011000292201085D2201080D0A00080D0A0008C5
:100120000D0A00080D0A00083575000869750008F9
:10013000912301080D0A00080D0A00080D0A0008A5
:1001400000000000000000000000000000000000AF
:100150000D0A00080D0A00080D0A00089122010886
:10016000015E00080D0A0008997B0008BD7B0008AD
:100170000D0A0008E17B00080D0A00080D0A0008BE
:100180000D0A00080D0A0008C5220108F522010821
:100190001D750008297500080D0A00080D0A0008E1
:1001A0000D0A00080D0A00080D0A00080D0A0008D3
:1001B000416600080D0A00080D0A00080D0A000833
:1001C0000D0A00080D0A00080D0A00080D0A0008B3
:1001D0000D0A00080D0A00080D0A00080D0A0008A3
:1001E0000D0A00080D0A00080D0A00080D0A000893
:1001F0000D0A00080D0A00080D0A00080D0A000883
:100200000D0A00080D0A00080D0A00080D0A000872
:100210000D0A00080D0A00080D0A00080D0A000862
:100220000D0A00080D0A00080D0A00080000000071
:100230000D0A00080D0A0008000000000D0A000861
:100240000D0A00080D0A00080D0A00080D0A000832
:100250000D0A00080D0A00080D0A00080D0A000822
:100260000D0A00080D0A00080D0A00080D0A000812
:100270000D0A00080D0A00082923010800000000EB
:100280000D0A00080D0A00080D0A00080000000011
:08029000000000000D0A000847
:1002A00010B5054C237833B9044B13B10448AFF3B0
:1002B00000800123237010BD5805002400000000B9
:1002C000148B010808B5034B1BB103490348AFF376
:1002D000008008BD000000005C050024148B0108AC
:1002E000034613F8012B002AFBD1181A0138704776
:1002F00001F0FF01102A2BDB10F0070F08D010F8D7
:10030000013B013A8B422DD010F0070F42B3F6D1DA
:10031000F0B441EA012141EA014122F007047FF0F3
:1003200000070023F0E80256083C85EA010586EA4A
:10033000010685FA47F5A3FA87F586FA47F6A5FA86
:1003400087F68EB9EED1F0BC01F0FF0102F0070292
:1003500032B110F8013B013A83EA010313B1F8D13D
:100360000020704701387047002D06BF354603381E
:10037000073815F0010F07D1013015F4807F02BF57
:10038000013015F4C03F0130F0BC0138704700BFA8
:1003900081F0004102E000BF83F0004330B54FEA36
:1003A00041044FEA430594EA050F08BF90EA020FA3
:1003B0001FBF54EA000C55EA020C7FEA645C7FEA36
:1003C000655C00F0E2804FEA5454D4EB5555B8BF59
:1003D0006D420CDD2C4480EA020281EA030382EACA
:1003E000000083EA010180EA020281EA0303362D5C
:1003F00088BF30BD11F0004F4FEA01314FF4801C2F
:100400004CEA113102D0404261EB410113F0004F40
:100410004FEA03334CEA133302D0524263EB4303F7
:1004200094EA050F00F0A780A4F10104D5F1200E95
:100430000DDB02FA0EFC22FA05F2801841F10001F0
:1004400003FA0EF2801843FA05F359410EE0A5F1C4
:1004500020050EF1200E012A03FA0EFC28BF4CF0F5
:10046000020C43FA05F3C01851EBE37101F00045AB
:1004700007D54FF0000EDCF1000C7EEB00006EEBB8
:100480000101B1F5801F1BD3B1F5001F0CD3490842
:100490005FEA30004FEA3C0C04F101044FEA445299
:1004A00012F5800F80F09A80BCF1004F08BF5FEA20
:1004B000500C50F1000041EB045141EA050130BD00
:1004C0005FEA4C0C404141EB0101013C28BFB1F512
:1004D000801FE9D291F0000F04BF01460020B1FA5D
:1004E00081F308BF2033A3F10B03B3F120020CDA30
:1004F0000C3208DD02F1140CC2F10C0201FA0CF00E
:1005000021FA02F10CE002F11402D8BFC2F1200C72
:1005100001FA02F120FA0CFCDCBF41EA0C01904028
:10052000E41AA2BF01EB0451294330BD6FEA040471
:100530001F3C1CDA0C340EDC04F11404C4F120025C
:1005400020FA04F001FA02F340EA030021FA04F36E
:1005500045EA030130BDC4F10C04C4F1200220FAC5
:1005600002F001FA04F340EA0300294630BD21FA03
:1005700004F0294630BD94F0000F83F4801306BFC9
:1005800081F480110134013D4EE77FEA645C18BFBD
:100590007FEA655C29D094EA050F08BF90EA020F54
:1005A00005D054EA000C04BF1946104630BD91EA4C
:1005B000030F1EBF0021002030BD5FEA545C05D14F
:1005C0004000494128BF41F0004130BD14F580048E
:1005D0003CBF01F5801130BD01F0004545F0FE4102
:1005E00041F470014FF0000030BD7FEA645C1ABF37
:1005F000194610467FEA655C1CBF0B46024650EA6E
:10060000013406BF52EA033591EA030F41F4002199
:1006100030BD00BF90F0000F04BF0021704730B51F
:100620004FF4806404F132044FF000054FF00001F4
:1006300050E700BF90F0000F04BF0021704730B5B5
:100640004FF4806404F1320410F0004548BF40428A
:100650004FF000013EE700BF42004FEAE2014FEADF
:1006600031014FEA02701FBF12F07F4393F07F4FBA
:1006700081F06051704732F07F4208BF704793F0BD
:100680007F4F04BF41F40021704730B54FF46074D0
:1006900001F0004521F000411CE700BF50EA0102D3
:1006A00008BF704730B54FF000050AE050EA01027C
:1006B00008BF704730B511F0004502D5404261EBEC
:1006C00041014FF4806404F132045FEA915C3FF42D
:1006D000D8AE4FF003025FEADC0C18BF03325FEACA
:1006E000DC0C18BF033202EBDC02C2F1200300FA7B
:1006F00003FC20FA02F001FA03FE40EA0E0021FAA0
:1007000002F11444BDE600BF53B94AB9002908BF3D
:1007100000281CBF4FF0FF314FF0FF3000F074B9DC
:10072000ADF1080C6DE904CE00F006F8DDF804E048
:10073000DDE9022304B070472DE9F047089D044627
:100740008E46002B4DD18A42944669D9B2FA82F284
:1007500052B101FA02F3C2F1200120FA01F10CFAC0
:1007600002FC41EA030E94404FEA1C48210CBEFBF8
:10077000F8F61FFA8CF708FB16E341EA034306FB81
:1007800007F199420AD91CEB030306F1FF3080F010
:100790001F81994240F21C81023E63445B1AA4B25D
:1007A000B3FBF8F008FB103344EA034400FB07F7FF
:1007B000A7420AD91CEB040400F1FF3380F00A8140
:1007C000A74240F207816444023840EA0640E41B35
:1007D00000261DB1D4400023C5E900433146BDE8E1
:1007E000F0878B4209D9002D00F0EF800026C5E983
:1007F000000130463146BDE8F087B3FA83F6002E9B
:100800004AD18B4202D3824200F2F980841A61EB12
:10081000030301209E46002DE0D0C5E9004EDDE730
:1008200002B9FFDEB2FA82F2002A40F09280A1EB18
:100830000C014FEA1C471FFA8CFE0126200CB1FB6D
:10084000F7F307FB131140EA01410EFB03F0884266
:1008500008D91CEB010103F1FF3802D2884200F2F3
:10086000CB804346091AA4B2B1FBF7F007FB101185
:1008700044EA01440EFB00FEA64508D91CEB040423
:1008800000F1FF3102D2A64500F2BB800846A4EB7E
:100890000E0440EA03409CE7C6F12007B34022FA69
:1008A00007FC4CEA030C20FA07F401FA06F31C4398
:1008B000F9404FEA1C4900FA06F3B1FBF9F8200CA5
:1008C0001FFA8CFE09FB181140EA014108FB0EF0EB
:1008D000884202FA06F20BD91CEB010108F1FF3A3B
:1008E00080F08880884240F28580A8F10208614447
:1008F000091AA4B2B1FBF9F009FB101144EA014155
:1009000000FB0EFE8E4508D91CEB010100F1FF34FF
:100910006CD28E456AD90238614440EA0840A0FB97
:100920000294A1EB0E01A142C846A64656D353D06D
:100930005DB1B3EB080261EB0E0101FA07F722FA91
:1009400006F3F1401F43C5E9007100263146BDE8BA
:10095000F087C2F12003D8400CFA02FC21FA03F31D
:10096000914001434FEA1C471FFA8CFEB3FBF7F09E
:1009700007FB10360B0C43EA064300FB0EF69E42C3
:1009800004FA02F408D91CEB030300F1FF382FD25C
:100990009E422DD9023863449B1B89B2B3FBF7F604
:1009A00007FB163341EA034106FB0EF38B4208D9DD
:1009B0001CEB010106F1FF3816D28B4214D9023E1E
:1009C0006144C91A46EA004638E72E46284605E73C
:1009D0000646E3E61846F8E64B45A9D2B9EB02080D
:1009E00064EB0C0E0138A3E74646EAE7204694E79D
:1009F0004046D1E7D0467BE7023B614432E73046D0
:100A000009E76444023842E7704700BFFEE700BFD1
:100A10000B480C4A904203D0121A0B4914F090F87C
:100A20000A480B4A904203D0121A002114F096F89B
:100A300007F02EFB14F050F801F0CCF9FEE700BFF0
:100A40000000002454050024448B010858050024AC
:100A5000B0430024704700BF704700BF402070477C
:100A60008020704749424FF480621430C9B214F0BC
:100A700075B800BF000000002DE9F04F8DB014469E
:100A80008246884601920021202204A814F066F8CC
:100A9000002C5AD0AAF10403DFF8DC90002702935F
:100AA000A8F104030393BE0004AD0024DDE902BAFB
:100AB000E1B22F4801F020FE5BF8043F01343344DB
:100AC000042CD3ED007A5AF8043F20EE270A334471
:100AD00020EE007A83ED000A95ED006BB7EEC77A41
:100AE00037EE067BA5EC027BE2D1B6EE007A013749
:100AF000D8E9002333443244D3ED006AD2ED007AC2
:100B0000019B77EEA67ABB4267EE877AE9EC017A21
:100B1000C9D19DED040B06AC164D0CAE9FED107BBC
:100B200020EE070BB5EE400BF1EE10FA10D4B1EE4B
:100B3000C07BB442B7EEC77BA5EC017A02D0B4EC1F
:100B4000020BEBE70DB0BDE8F08F9FED070BE2E77E
:100B500013F086FFB0EE407BEBE700BFAFF3008001
:100B6000000000000000803F0000000000000000C6
:100B700074050024740900247407002410B5044689
:100B800040F2144113F061FD204610BD2DE9F04103
:100B9000B02482B000F1080600F1100500F114083D
:100BA000002728468DF807400134394604F0AEFF8F
:100BB000642301220DF107013046E4B206F000FF84
:100BC000394628468DF8077004F0A0FF01226423FF
:100BD0000DF10701304606F0F3FE10233946284692
:100BE0008DF8073004F092FF642301220DF1070114
:100BF000304606F0E5FE0121284604F087FF8022FA
:100C0000414664233046904406F0DAFEB82CC7D142
:100C100002B0BDE8F08100BF2DE9F04F89B008AC0B
:100C20009DF84870019104E90C000B78002B00F04E
:100C3000AB801A469DF818809DF819300646454647
:100C400090460393079B0593A8F12004E3B25E2B23
:100C500000F29E8033685E4ADB68934240F09B80DE
:100C60008020B3882B44834200F392803368594A32
:100C70009B68934240F092804020F188039A029151
:100C80008B18834200F38480002A00F0918002FBDD
:100C900004F46FF00049059BA1441444B6F804B075
:100CA00003EB4909023BCDF8108003EB44030C46EB
:100CB0009A4639F802CFA5B304F007034FF0010EAE
:100CC000E20859460EFA03FE0BF114034FFA8EFEAA
:100CD00003EBC21200236FEA0E0832440DE07F29B5
:100CE00006D83F2C04D8107897B14EEA0000107057
:100CF000013301320131AB4213D00CFA03F000048E
:100D0000EDD47F29F4D83F2CF2D81078002FECD006
:100D1000013308EA000001320131AB4202F8010C54
:100D2000EBD1D14504F10104C3D1DDF81080326864
:100D30000BEB05042649D368A4B28B4234D1802042
:100D4000844204D3D36822498B423AD17F249368EA
:100D5000204AB480934224D14020029B834206D390
:100D600033681C4A9B68934225D13F230293029B20
:100D7000F380019B1878404507D113F8018F019348
:100D8000B8F1000F7FF460AF002009B0BDE8F08F2C
:100D90004FF00008EDE73046984762E73046984745
:100DA0006BE730469847D8E7304698473268C7E740
:100DB000B6F804B0BBE730469847013883B20293D7
:100DC000D5E7304698470138326884B2BFE700BFA4
:100DD000610A00085D0A00082DE9F04F85B0A1F115
:100DE000200504AC9DF83870009104E90C00EBB2CA
:100DF0005E2B00F29580036880465D4ADB689DF8B3
:100E0000084093429DF8096040F094808020B8F833
:100E100004302344834200F38380D8F80030554ADD
:100E20009B68934240F088804020B8F806209319D0
:100E30000192834274DC002E00F0898006FB05F5E8
:100E40006FF00040039B964628442E44B8F804A057
:100E500003EB4000023B03EB460B30F8026FBCB3E0
:100E60000EF007034FF0010C4FEADE0251460CFA78
:100E700003FC0AF114034FFA8CFC03EBC2120023AB
:100E80006FEA0C0942440EE07F2907D8BEF13F0FFC
:100E900004D815789FB14CEA05051570013301326D
:100EA00001319C4214D006FA03F52D04ECD47F29BD
:100EB000F4D8BEF13F0FF1D81578002FEBD00133F5
:100EC00009EA0505013201319C4202F8015CEAD1D0
:100ED00058450EF1010EC0D1D8F8003054442449D1
:100EE000DA68A4B28A422DD1802084421CD29B6849
:100EF000204AA8F80440934221D14020019B83421C
:100F000007D3D8F800301B4A9B68934229D13F236E
:100F10000193DDE90003A8F8063005B0BDE8F08FC5
:100F2000002005B0BDE8F08FDA6811498A4211D17E
:100F30007F24DCE798476AE74046984775E74046D4
:100F40009847DBE740469047D8F80030CDE7B8F83F
:100F500004A0C1E7404690470138D8F8003084B279
:100F6000C5E740469847013883B20193D1E700BFF7
:100F7000610A00085D0A00082DE9F04F89B01D469E
:100F8000884606901046129C10F8013B13999DF874
:100F90005060009233B1002210F8013B0132002B67
:100FA000FAD193B22A78687812FB03F302B21BB22B
:100FB00023EAE373082900F2A681DFE811F00101BA
:100FC00013011F01330141014F0166016F01090047
:100FD000A18827880F44B4F90610FF1A0029BFB270
:100FE000C0F2FE806488069804EB6104C280A4EB22
:100FF00052028380078094B24480A64AD8F8003019
:1010000011460192DA688A4240F08B818020B84212
:1010100005D8DA6801998A4240F098817F279E4A74
:101020009B68A8F804709342039240F087814020A7
:10103000A04207D8D8F80030039A9B68934240F04A
:1010400080813F24009BA8F8064093F800B06B789D
:101050002C7804936B680793BBF1000F00F0AC8011
:10106000ABF12005EBB25E2B00F22C81D8F80030FA
:10107000019ADB68934240F028818020B8F8043060
:1010800023449842C0F21E81D8F80030039A9B682E
:10109000934240F01D814020B8F80610049A029156
:1010A0008B189842C0F20E81002A00F01C8102FBCE
:1010B00005F56FF0004E079BAE441544CDF814B013
:1010C00003EB4E0E023BB8F804A003EB45030D46BC
:1010D0009B463EF8027FA4B305F007034FF0010CD6
:1010E000EA0851460CFA03FC0AF114034FFA8CFC8F
:1010F00003EBC21200236FEA0C0942440DE07F2982
:1011000006D83F2D04D8107896B14CEA0000107034
:101110000133013201319C4213D007FA03F000047D
:10112000EDD47F29F4D83F2DF2D81078002EECD0E2
:10113000013309EA0000013201319C4202F8010C3E
:10114000EBD1F34505F10105C3D1DDF814B0D8F8B2
:1011500000200AEB04050199D368ADB28B4240F040
:10116000BD808020854205D3D36801998B4240F031
:10117000C3807F259368039AA8F80450934240F0F7
:10118000AA804020029B834208D3D8F80030039AFB
:101190009B68934240F0AA803F230293029BA8F8E9
:1011A0000630009A13785B4506D112F801BF009211
:1011B000BBF1000F7FF454AF069809B0BDE8F08F83
:1011C000B4F9041027880029B8BF013107EB610783
:1011D000B4F90610A7EB63070029BFB2BFF602AF50
:1011E0000131FFE6B4F900700699B4F902400F80AE
:1011F000BFB24C80A4B28B80CA80FEE6B4F9041062
:1012000027880029B4F90240B8BF013107EB610714
:1012100006998B80A7EB63034C80A4B29FB2CA806F
:101220000F80EAE6A1882788B4F902400F440699A6
:101230008B80FB1A4C80A4B29FB2CA800F80DCE680
:10124000E78861883944B4F90070081A069984B2B5
:101250000F808B80BFB2CA804C80CEE6B4F90410F8
:1012600027880029B8BF013107EB6107A7EB6307A7
:10127000B4F802C0BFB2E488069964448B80201A97
:10128000CA800F8084B24C80B7E62788A1880F44BB
:10129000FF1AEDE7610A00085D0A0008B4F90610BC
:1012A000B4F90070002964880698B8BF0131C28083
:1012B00004EB610407808380BFB2A4EB520294B2B6
:1012C00044809AE64FF0000B6BE740469847D5E61E
:1012D00040469847E0E64046984753E740469847DF
:1012E000D8F800203EE7B8F804A030E74046984719
:1012F000013883B2029351E7404698470138D8F845
:10130000002085B236E7D8F800300024069A134949
:10131000148054809480D480DA6801918A4205D088
:10132000274640469047D8F8003070E69B680C4A44
:10133000A8F80440934203923FF484AE4046984795
:1013400076E640469847013884B27BE640469047AF
:101350000138D8F8003087B261E600BF610A0008A2
:101360005D0A00087F291ED83F2A1CD86BB1D3081C
:101370004FF0010C02F0070201EBC3130CFA02F26A
:10138000C1180B7D1A430A757047D3084FF0010C42
:1013900002F0070201EBC3130CFA02FCC1180A7D2C
:1013A00022EA0C020A7570472DE9F04F83B05C1AEF
:1013B0000C9E002C9DF83490A6EB0208B8BF644246
:1013C000B8F1000FB8BFC8F100088B428CBF4FF0D6
:1013D000010A4FF0FF3A9642A4EB080C51D84FF0A7
:1013E000FF357F2B019512D83F2E10D8F50806F057
:1013F000070E012703EBC5150544B9F1000F47D0CF
:1014000007FA0EF795F814E047EA0E072F75964293
:1014100001D18B4229D0C8F100077F2914D83F2A77
:1014200012D8D50802F0070B4FF0010E01EBC515DD
:101430000544B9F1000F1BD00EFA0BFE95F814B05D
:101440004EEA0B0E85F814E0B7EB4C0F4FEA4C0553
:1014500002DAACEB080C5144AC4202DD019DA4441D
:101460002A449942D9D19642D7D103B0BDE8F08F32
:101470000EFA0BFB95F814E02EEA0B0E85F814E03B
:10148000E2E701257F2B0195C5D83F2EAED9C2E7F3
:1014900007FA0EFE2F7D964227EA0E072F75B8D069
:1014A000B9E700BF000000002DE9F04F2DED068BDD
:1014B00083B01F4680460D469DF850301646019376
:1014C000139B002BC0F22182129A134406EE103AAD
:1014D000DDED127AB8EEC66B9FEDCD4BB8EEE77B33
:1014E0009FEDCD5B27EE047B26EE046B87EE050BAC
:1014F00086EE05ABF7EEC08BB0EE680A13F0ACF8E1
:1015000007EE907AB7EECAABF8EE679AB0EE408A73
:10151000B0EE680A13F09CF960EE698AB0EE4A0AF0
:1015200013F09AF8B0EE409AB0EE4A0A13F090F930
:1015300020EE690A29EE888A29EE899A70EE687A87
:10154000F0EE006A39EE487A67EEA77AE7EE077A9E
:10155000F4EEE67AF1EE10FA06D5139BB42B40F3C5
:1015600096804FF0010901E04FF000090124784214
:101570004FF0000C0095E31B214627462246A3406E
:10158000B9F1000F6AD1424206EE90CACCF10001D7
:1015900007EE102AB8EEE66A07EE901A06EE900AF9
:1015A000B8EEC77A139A66EE084AF8EEE77AB42ADC
:1015B00027EE284AF8EEE66A67EE885A74EEC43AD7
:1015C00026EEA85A26EE096A66EE806A67EE897AE8
:1015D00027EE007AF5EEC03A40F3F280F1EE10FA11
:1015E00000F17F8176EE473A74EEC54AF5EEC03AD7
:1015F000F1EE10FAF5EEC04ACCBF01220022F1EE66
:1016000010FA00F1778136EE666A35EEC55AB5EE0E
:10161000C06AF1EE10FAB5EEC05ACCBF012100212C
:10162000F1EE10FA00F16F8177EEE66AF5EEC06A2E
:10163000F1EE10FACCBF0127002775EEC45AF5EE83
:10164000C05AF1EE10FA00F1478177EEC77AF5EE55
:10165000C07AF1EE10FACCBF01240024002A40F039
:101660008A80002964D1BFB9C4BB9C4558DB0CF10A
:10167000010C03EB4C0E1CEB000F0EF1010E00F001
:10168000C08098424FDB734600287FF779AF03B0E4
:10169000BDEC068BBDE8F08F009DA6EB0C0E00EBB9
:1016A000050ABAF17F0FDFD8BEF13F0FDCD84FEA51
:1016B000DE0B019D0AEBCB1A002D00F0B1800EF07D
:1016C000070BC2444FF0010E0EFA0BFE9AF814B04D
:1016D0004EEA0B0E8AF814E0002CC6D0009DA6EB53
:1016E0000C0EA5EB000ABAF17F0FBED8BEF13F0F7A
:1016F000BBD84FEADE0B019D0AEBCB1A002D00F0A0
:10170000AE800EF0070BC2444FF0010E9C450EFA5E
:101710000BFE9AF814B04EEA0B0E8AF814E0A6DA23
:1017200098429E46AFDA01300EEB40030133ABE73F
:10173000009D0CEB060E00EB050ABAF17F0F92D864
:10174000BEF13F0F8FD84FEADE0B019D0AEBCB1A9B
:10175000002D73D00EF0070BC2444FF0010E0EFAAD
:101760000BFE9AF814B04EEA0B0E8AF814E0002F24
:101770003FF47AAF90E7009D0CEB060EA5EB000A54
:10178000BAF17F0F3FF66DAFBEF13F0F3FF669AF85
:101790004FEADE0B019D0AEBCB1A002D6DD00EF047
:1017A000070BC2444FF0010E0EFA0BFE9AF814B06C
:1017B0004EEA0B0E8AF814E000293FF454AFB7E765
:1017C000F1EE10FA7ED44A4674EEC54AF5EEC04AF0
:1017D000F1EE10FA6CD4002135EEC55AB5EEC05AC0
:1017E000F1EE10FA5AD4002775EEC45AF5EEC05A3D
:1017F000F1EE10FA3FF529AF0024002A3FF431AF93
:10180000B9E798428FDB00233BE700BFAFF30080CE
:101810007A008BFCFA21094000000000008066403D
:10182000C2444FF0010B0EF0070E0BFA0EFE9AF8B1
:1018300014B02BEA0E0E8AF814E015E7C2444FF0FC
:10184000010B0EF0070E0BFA0EFE9AF814B02BEAFD
:101850000E0E8AF814E0002F3FF406AF1CE7C244D6
:101860004FF0010B0EF0070E0BFA0EFE9AF814B0B3
:101870002BEA0E0E8AF814E0F7E6C2444FF0010B93
:101880000EF0070E0BFA0EFE9AF814B02BEA0E0EAD
:101890008AF814E000293FF4E6AE49E777EEE66AFD
:1018A000F5EEC06AF1EE10FACCBF012700279BE7E6
:1018B00036EE666AB5EEC06AF1EE10FACCBF0121D1
:1018C000002189E776EE473AF5EEC03AF1EE10FADC
:1018D000CCBF0122002277E70124002A3FF4C1AEE9
:1018E00049E774EEC54A0122F5EEC04AF1EE10FA5E
:1018F0007FF589AE35EEC55A0121B5EEC05AF1EE3D
:1019000010FA7FF591AE012797E6DDE91223134423
:1019100006EE102A1293139B5B421393D8E500BF87
:101920002DE9F04F87B09DF84850109C2E46019548
:101930009DF844509EB399422ED89946A24228D889
:101940007F29164694BF0023012308E09CF81480E9
:101950004EEA080E8CF814E00136B44219D33F2E3B
:10196000FAD8002BF8D14FEAD60C06F0070E4FF04C
:10197000010801EBCC1C08FA0EFE8444002DE5D1D1
:101980009CF814B001362BEA0E0AB4428CF814A06D
:10199000E5D201318945D1D207B0BDE8F08FA3EB84
:1019A0000108B8F1000FB8BFC8F100089942C0F0B3
:1019B0004E817F2B4FF0FF3A94BF002601263F2A2D
:1019C000009694BF002701270297A6B99FB9D608B1
:1019D00002F0070C012703EBC6160644002D00F0A9
:1019E000948107FA0CF796F814C047EA0C0737758C
:1019F000002602960096994200F09781464694464A
:101A00008E46BEF17F0F16D8BCF13F0F13D84FEAB8
:101A1000DC070CF0070B4FF001090EEBC71707446A
:101A2000002D00F0398109FA0BF997F814B049EA52
:101A30000B0987F81490770018BFD644B84502DD2B
:101A400046440CF1FF3C7345DBD16245D9D10026F9
:101A50000496A4EB0209009FB9F1000FB8BFC9F1C9
:101A600000093F2C94BF00260126A242C9F10008BC
:101A70000396C0F02381002F40F05081002E40F0EB
:101A80004D814FF0FF360096E60803EBC61606447C
:101A9000002D00F01E814FF0010C04F007070CFA36
:101AA00007F796F814C047EA0C0737750026039627
:101AB000A24200F03D81C44616461F4605927F2F84
:101AC00015D83F2E13D84FEAD60E06F0070B4FF06D
:101AD000010A07EBCE1E8644002D00F0E6800AFACC
:101AE0000BFA9EF814B04AEA0B0A8EF814A0B8EB71
:101AF0004C0F4FEA4C0E02DAACEB090C013FBEF181
:101B0000000F01D0009A1644BB42D8D1B442D6D1BE
:101B1000059AA1EB030EBEF1000FB8BFCEF1000E87
:101B20007F2994BF4FF0000A4FF0010A99428CBF01
:101B30004FF001094FF0FF39BAF1000F13D1039EA6
:101B40008EB9E60801EBC6160644002D00F0D380DE
:101B50004FF0010C04F007070CFA07F796F814C0D1
:101B600047EA0C073775049E26BB774626467F2B2F
:101B700014D83F2E12D84FEAD60C06F0070B4FF0C0
:101B8000010803EBCC1C8444002D73D008FA0BF839
:101B90009CF814B048EA0B088CF814805FEA470CF4
:101BA00018BF4B44E64501DD7744013E9942DED142
:101BB000B442DCD1A2EB040EBEF1000FB8BFCEF1EF
:101BC000000EA2428CBF4FF001084FF0FF38CEF15B
:101BD000000CBAF1000F0ED1029B63B9D30802F0DA
:101BE0000707012601EBC3130344002D7CD0BE4040
:101BF0001F7D3E431E75019B002B7FF4CDAE6646D4
:101C00000B467F2B12D83F2C10D8E70804F0070AA8
:101C10004FF0010903EBC7170744A5B309FA0AF906
:101C200097F814A049EA0A0987F81490BCEB460F0C
:101C30004FEA460702DAA6EB0E06013B07B1444421
:101C40009942DED1A242DCD107B0BDE8F08F3F2A35
:101C50004FF0010A94BF002601267F2B029694BF05
:101C6000002701270097002E7FF4C8AE002F3FF415
:101C7000AEAEC3E608FA0BFB9CF8148028EA0B080A
:101C80008CF814808AE709FA0AFA97F8149029EA7E
:101C90000A0987F81490C9E709FA0BFB97F8149022
:101CA00029EA0B0987F81490C5E60AFA0BFB9EF89F
:101CB00014A02AEA0B0A8EF814A018E797BB8EBB73
:101CC00001260096E60803EBC6160644002D7FF4B5
:101CD000E2AE012704F0070C039507FA0CFC377DF0
:101CE00027EA0C073775E3E606FA07F71E7D26EAB2
:101CF00007061E757FE7012704F0070C07FA0CFCA6
:101D0000377D27EA0C0737752DE707FA0CFC377D7E
:101D1000029527EA0C07009537756CE64FF0FF3601
:101D20000096C5E601260096C5E60126049690E6D3
:101D300001260196EDE600BF244B2DE9F041044653
:101D400003F11C0703F1340C002504F10C0804F125
:101D50005C0604F1740E93E8070084E8070003F1C1
:101D60000C020FCA88E80F000FCFE5612563E56319
:101D7000A4F858500FC697E8030086E80300BCE8B3
:101D80000F00AEE80F00BCE80F00AEE80F009CE8C3
:101D90000F008EE80F004FF400722946A01812F0D1
:101DA000DDFE0B4908222046C4F80054C4F8045450
:101DB000C4F80854C4F80C54C4F81014C4F81854E7
:101DC000C4F8242884F82858BDE8F081C4740108B8
:101DD000CC75010808B50021134801F0E3FE134853
:101DE00001F0E0FD8021104801F054FE03210E486F
:101DF00001F034FE0D4800F06DFC0C4800F062FA72
:101E00004FF47A7005F070FF0949074801F022FE8F
:101E100000220648114601F081FA044800F05AFCFD
:101E2000024801F03DFBF8E790050024740500240A
:101E3000790A000810B5054C2046FFF77DFF2046C3
:101E4000034A0449BDE8104012F0FABB74050024AF
:101E500000000024550A00082DE9F04F82460125B4
:101E600089B005F03FFFCAF82C080122D30802F020
:101E70000701012405EBC31304FA01F02244534483
:101E8000342A93F8241421EA000183F82414EDD1B4
:101E900025447F2DE9D100230AF50072A1461826BA
:101EA0000193049206E0019B09F1010926467E3365
:101EB00001932B46049A9FED617AF2EC017A67EE6A
:101EC000877A0492FDEEE77A17EE902AD2F1180491
:101ED00000F1AD80312C40F3AB803224019AB9F18E
:101EE000010F4FEAD21505F10105DCD0EF1AA4EB82
:101EF000060E19463246002FB8BF7F42BEF1000FD2
:101F0000B8BFCEF1000E9D428CBF01204FF0FF30D4
:101F1000A6420290A7EB0E000590C0F08B804FF018
:101F2000FF3003904FEAD40C4FF0010B04F0070888
:101F30009D4205EBCC1C0BFA08F8D4449CF824B461
:101F400048EA0B088CF8248401D1A64228D0CEF1AF
:101F5000000805984FF0010CD30802F007067F290E
:101F600001EBC31300FA0CFB0CFA06F608D83F2A63
:101F7000534405D893F824C446EA0C0683F8246435
:101F8000B8EB400F03DA029BA0EB0E0019445F454B
:101F900002DD039B38441A448D42DBD19442D9D1EF
:101FA000B9F1800F7FF47FAF0AF583670AF5846685
:101FB0000AF22444B0254FF0000830468DF81F5037
:101FC0000135414603F0A2FD642301220DF11F01FA
:101FD0003846EDB205F0F4FC414630468DF81F80DE
:101FE00003F094FD012264230DF11F01384605F032
:101FF000E7FC1023414630468DF81F3003F086FD84
:10200000642301220DF11F01384605F0D9FC01219E
:10201000304603F07BFD8022214664233846144479
:1020200005F0CEFCB82DC6D109B0BDE8F08F002474
:10203000013453E70120039074E700BF000016430A
:10204000F0B50546A3B01220002401F0EDFC0346D4
:1020500008A805F13406ADF8083005F11C0702990F
:1020600005F58E7503F05EF90F2001F0DDFC0346E7
:102070000DF13100ADF80C30039903F053F9152040
:1020800001F0D2FC03460DF14200ADF81030049986
:1020900003F048F9162001F0C7FC03460DF1530088
:1020A000ADF81430059903F03DF9102001F0BCFCA7
:1020B000034619A8ADF81830069903F033F9142037
:1020C00001F0B2FC03460DF17500ADF81C30079924
:1020D00003F028F90423062208A9304603F030F95A
:1020E000E1B2304603F026FB014601343846019147
:1020F00001F0ECFC2846DFED070A002301220199DC
:10210000203502F0F9FF062CEAD1304603F0FCFA44
:1021100023B0F0BD6F12033B10B5044682B02020FF
:1021200001F082FC01A90122ADF8040004F5EE7073
:1021300003F0A6F8172001F077FC01A90122ADF801
:10214000040004F2E31003F09BF8112001F06CFC92
:1021500001A90122ADF8040004F5F57003F090F830
:10216000132001F061FC01A90122ADF8040004F282
:10217000F11003F085F8032001F056FC012203461C
:1021800001A904F5FC70ADF8043003F079F802B051
:1021900010BD00BF0B4600214FF480629B022DE969
:1021A000F04F824687B000F224408B4601930390A3
:1021B00012F0D4FC4FF01E13CAF814340BF224436F
:1021C0004FF00009029309F007023B4801240BEB92
:1021D000C9114FEAD903944000EBE10102980722AC
:1021E00064B200EBC3130198E543085C534440FA22
:1021F00002F1013A013311F0010F13F8011C14BF71
:102200002143294003F8011C511CF0D12B4B2C4ACF
:1022100003FB09F3B2EB730F0CD209F10109B9F119
:10222000400FD0D10BF1080BBBF1800FC6D107B026
:10223000BDE8F08F0AF583660AF58465DDF80C8049
:10224000B024002128468DF8174001340F4603F0D2
:102250005DFC642301220DF11701304605F0B0FB4F
:10226000394628468DF8177003F050FC012264238C
:102270000DF117013046E4B205F0A2FB10233946F8
:1022800028468DF8173003F041FC642301220DF13C
:102290001701304605F094FB0121284603F036FC77
:1022A000414664238022304608F1800805F088FB0F
:1022B000B82CC6D1B1E700BF10760108ABAAAAAA14
:1022C000AAAAAA2A0021FFF765BF00BF4B1CD0F8BD
:1022D0002428C3EB43132DE9F04F02EB41159A1A62
:1022E0008BB04C019542944602910594069318D800
:1022F0002E460121CB0801F0070701247F2E06EBB3
:10230000C313214404FA07F4034405D893F8247452
:1023100027EA040483F824443429EBD10136B2427D
:10232000E7D29DF80830F7EE007A9FEDC97AA2EB6C
:10233000050A00EB4313BAF1000FD3ED4A6AB8BFA8
:10234000CAF1000A954277EEE67AF0EEE77A67EE98
:10235000877AFDEEE77A17EE903A03F1010780F0F5
:102360008D817F2A00F583644FF0010B94BF002319
:1023700001233F2F039394BF00210121049113B93E
:10238000002900F08B81D0463E46AE46F10806F0AB
:1023900007034FF00109BEF17F0F0EEBC11109FADF
:1023A00003F308D83F2E014405D891F8249443EA5A
:1023B000090381F824345FEA480318BFDE449A45D4
:1023C00001DDD044013E7245E0D1B742DED10023A9
:1023D0000793C7F13303332F83EAE371A1EBE37172
:1023E0000B46B4BF01234FF0FF33C1F1000A009147
:1023F0000193039B43B902F54073034493F82414FB
:1024000041F0080183F82414332F29D05646394669
:1024100096464FF0010BCB0801F00708BEF17F0F85
:102420000EEBC31306FA0BF90BFA08F808D83F298C
:10243000034405D893F824B448EA0B0883F82484AD
:10244000BAEB460F03DA009B0EF1FF3EF61AB9F124
:10245000000F01D0019B19447245DAD13329D8D13C
:10246000A5EB020895428CBF01224FF0FF32B8F174
:10247000000FB8BFC8F100087F2D08D805F54073DC
:10248000034493F8241441F0080183F82414079BB3
:102490000BBBC6463326F30806F007090121BCF141
:1024A0007F0F0CEBC31301FA09F108D83F2E034448
:1024B00005D893F8249441EA090183F824145FEACB
:1024C0004E0318BF9444984501DDC644013E65455E
:1024D000E1D1332EDFD117EE903AA3F1320CBCF1EB
:1024E000000FB8BFCCF1000C332FCCF1000600F385
:1024F000B1807F2D4FF0FF3A03D8049B002B00F0F2
:10250000AF80332F26D0B146294633224FF0010B3E
:10251000D30802F0070E7F2901EBC31306FA0BF86C
:102520000BFA0EFE08D83F2A034405D893F824B4CA
:102530004EEA0B0E83F824E4B9EB460F02DA0139B8
:10254000A6EB0C06B8F1000F00D052448D42DDD14D
:102550009742DBD1029BF1EE046AFFEE007A9FED19
:102560003C7A03F58073059D069A00EB830393ED97
:10257000006AD0F82438E6EE267A1D44A2EB030C5C
:102580006545F0EEE77A67EE877AFDEEE77A17EEBB
:10259000906A06F1010618D8332E13DC3246D308B0
:1025A00002F0070701217F2D05EBC3130A4401FA4E
:1025B00007F1034404D893F82474394383F82414AE
:1025C000342AECD10135AC45E6D200F5846704F13C
:1025D0000C0604F20C49B0254FF0000838468DF87F
:1025E00027500135414603F091FA642301220DF191
:1025F00027012046EDB205F0E3F9414638468DF853
:10260000278003F083FA012264230DF1270120467D
:1026100005F0D6F91023414638468DF8273003F0EF
:1026200075FA642301220DF12701204605F0C8F94F
:102630000121384603F06AFA8022314664231644A9
:10264000204605F0BDF9B145C6D10BB0BDE8F08F0D
:1026500000004C427F2D38D8049BB3BB4FF0010AD9
:10266000FB0807F00701012205EBC3138A4003446E
:1026700093F824140A4383F8242442E77F2A00F5C0
:1026800083644FF0FF3B94BF002301233F2F03934C
:1026900094BF0021012104918BB981B9FB08012667
:1026A00007F0070102EBC31306FA01F1034493F8A4
:1026B0002464314383F824140023CDE90333954285
:1026C0007FF461AE0123079383E6B1464FF0010A20
:1026D0001AE700BF70B5064600F58E7400F5EE757A
:1026E0002046203402F03AFDAC42F9D106F1F40064
:1026F000BDE8704002F086BD00EB411191ED4A0A41
:10270000704700BF2DE9F0410746A2B01C303F4D95
:1027100001F0C0FA01284FF000016DD02B88012292
:10272000ADF84230AB88CDE91612ADF844302B89B4
:10273000002401264FF00308ADF83E3009A9AB890B
:1027400068460E94ADF83C302B8A0994ADF84030C1
:10275000AB8A0094ADF828302B8BADF82A301023CB
:10276000CDE91446CDE90B648DF83430CDE91286FD
:1027700003F04CFB264B009901A8DA6822F4702282
:10278000DA60DA6842F4A022DA60019401F0BCFA5F
:10279000AB8B18A92A8C03A8ADF866304FF4807370
:1027A000ADF86A20ADF864304FF40073ADF86C40BA
:1027B000ADF868301896CDE91E64CDE92046CDE924
:1027C0000344CDE91C8604F037F90EA904A84FF0A4
:1027D0007C5404F031F930214FF07E52049B78187C
:1027E0000591089205A9039ACDF81880079402F084
:1027F000B1FB22B0BDE8F0812A88AB881690179112
:10280000ADF84220ADF8443091E700BF28750108CB
:10281000000402582DE9F04390F858E0044600F512
:10282000826585B000EB0E13586FD3F88060D3E952
:102830001EC840451ED8B44519D87F28634694BFAA
:1028400000270127DA0803F0070901213F2B00EBDD
:10285000C2120B4401FA09F107D822442FB992F8A9
:10286000249441EA090182F824149E42EAD20130FC
:102870008045E0D227460026DFF88481B7F85C90D7
:10288000BEEB060EB7F860C0284618BF4FF0010E29
:10289000B9F17F0F54F8261006F1010628BF4FF05A
:1028A0007F09BCF13F0F07F1080728BF4FF03F0C2D
:1028B000A4F8149498E80C00A4F816C4CDF800E02D
:1028C000FEF7AAF9032E02D094F858E0D6E794F860
:1028D000A32404F5836604F2244104F2234342F066
:1028E000010204F2A24084F8A32413F8012F42F05D
:1028F000010298421A70F8D194F8A327002342F0FD
:10290000100284F8A3271A0103F00705012042F002
:102910007F020344A8402244342B92F8245440EA16
:10292000050082F82404EED194F8242704F2A47060
:1029300042F0100704F2257284F8247710F8015D44
:1029400045F0100582420570F8D194F82424062041
:1029500042F0010284F8242403E004EBC01292F850
:10296000247403F00705012204EBC010013B02FAB6
:1029700005F242EA070280F824244FEAD300ECD1A2
:1029800004F584648846B025002720468DF80F5052
:102990000135394603F0BAF8642301220DF10F0125
:1029A0003046EDB205F00CF8394620468DF80F7030
:1029B00003F0ACF8012264230DF10F01304604F05E
:1029C000FFFF1023394620468DF80F3003F09EF8A4
:1029D000642301220DF10F01304604F0F1FF0121C3
:1029E000204603F093F88022414664233046904409
:1029F00004F0E6FFB82DC7D105B0BDE8F08300BFF5
:102A0000840100242DE9F04F04464FF48062002138
:102A100000F2244004F582632DED028B8DB008EEA8
:102A2000103A12F09BF894F8583004EB0312D2E9F4
:102A30001D73D2E91F620393A6EB07093046049287
:102A4000B9F1000FB8BFC9F10009B742C0F0BB81AE
:102A50007F2E04F583654FF0FF3B94BF00210121D9
:102A60003F2B069194BF00230123089399B993B992
:102A70000399CB0801F0070C012106EBC31301FAFF
:102A80000CF1234493F824C441EA0C0183F8241484
:102A9000002308930693B74200F0C881C846DDF8CA
:102AA0000CC0BE464FEADC030CF007014FF0010AF0
:102AB000BEF17F0F0EEBC3130AFA01F109D8BCF186
:102AC0003F0F234405D893F824A441EA0A0183F870
:102AD00024145FEA480318BFDE44994502DDC84468
:102AE0000CF1FF3C7645DDD1039B6345DAD1002331
:102AF0000993DDE90331CB1A83EAE37CACEBE37C99
:102B0000039B8B42CDF814C0C0F073813F2963460C
:102B10000699CCF1000A94BF0023012307930029F2
:102B200040F07981002B40F076814FF0FF3306931F
:102B300004994FF0010CCB0801F0070106EBC31319
:102B40000CFA01F1234493F824C441EA0C0183F800
:102B5000241400230793DDE903318B4200F06381E5
:102B6000D6460399B4464FF0010BCB0801F0070895
:102B7000BCF17F0F0CEBC3130EFA0BF90BFA08F83C
:102B800008D83F29234405D893F824B448EA0B0811
:102B900083F82484BAEB4E0F04DA059B0CF1FF3C5A
:102BA000AEEB030EB9F1000F01D0069B1944664548
:102BB000D9D1049B8B42D6D14FF0000BA7EB060E68
:102BC000B7428CBF01264FF0FF36079BBEF1000FC6
:102BD000B8BFCEF1000E7F2F94BF4FF0000A4FF028
:102BE000010A9BB9BAF1000F10D104994FF0010C02
:102BF000CB0801F0070107EBC3130CFA01F12344E2
:102C000093F824C441EA0C0183F82414099B33BBD4
:102C1000F046DDF810C04FEADC030CF007014FF07E
:102C200001097F2800EBC31309FA01F109D8BCF1AF
:102C30003F0F234405D893F8249441EA090183F80F
:102C400024145FEA480318BF80199E4502DDF04452
:102C50000CF1FF3C8742DED1049B6345DBD1DDE90B
:102C60000331A3EB010E8B428CBF4FF001084FF0F4
:102C7000FF380899BEF1000FB8BFCEF1000ECEF1BB
:102C8000000C81B9BAF1000F0DD11946DB0807EB32
:102C9000C31301F0070001212344814093F8240469
:102CA000014383F82414BBF1000F25D16046394657
:102CB0000126D30802F0070A7F2900FA06F901EB82
:102CC000C31306FA0AF608D83F2A234405D893F816
:102CD00024A446EA0A0683F82464BCEB400F02DA17
:102CE0000139A0EB0E00B9F1000F00D042448F4231
:102CF000DED1039B9342DBD12646A4F1040804F104
:102D000018094C4F18EE10AAB6F85C000123B6F86B
:102D1000601008367F28009328BF7F203F2928BFF6
:102D20003F21A4F814045046A4F8161458F8041FC0
:102D300097E80C00FDF770FFB145E5D104F5846418
:102D400005F10C0705F20C49B0264FF000082046AB
:102D50008DF82F600136414602F0D8FE642301222F
:102D60000DF12F012846F6B204F02AFE4146204616
:102D70008DF82F8002F0CAFE012264230DF12F018D
:102D8000284604F01DFE1023414620468DF82F30C2
:102D900002F0BCFE642301220DF12F01284604F04D
:102DA0000FFE0121204602F0B1FE80223946642345
:102DB0001744284604F004FE4F45C6D10DB0BDECC3
:102DC000028BBDE8F08F039B04F583654FF0010B88
:102DD0003F2B94BF002301237F2E089394BF002133
:102DE00001210691002B7FF459AE00293FF440AE3B
:102DF00054E6049B05993F2BC1F1000A94BF0023C0
:102E00000123079323B9069B13B9012306938FE689
:102E100001230693A4E64FF0FF330693DDE9033167
:102E20008B427FF49DAE4FF0010BC7E6012309935F
:102E30005FE600BF8401002400F582632DE9F04FB6
:102E4000012405462DED028B08EE103A8FB00122C9
:102E5000D308012102F0070004EBC3130A4401FA6E
:102E600000F02B44342A93F8241421EA000183F85B
:102E70002414EDD101347F2CE9D105F10C03032298
:102E8000CDE905530023CDE9023203980521012441
:102E9000324BA5F816040698A5F8141450F8041B34
:102EA0000CCB069018EE100A0094FDF7B5FE95F8CD
:102EB0005930029A934253D0039B029A05990A33E0
:102EC000013210319BB2042A029205910393DCD1A6
:102ED00005F5836705F5846605F22444B0254FF0B7
:102EE000000830468DF837500135414602F00EFE9D
:102EF000642301220DF137013846EDB204F060FD84
:102F0000414630468DF8378002F000FE01226423EE
:102F10000DF13701384604F053FD10234146304689
:102F20008DF8373002F0F2FD642301220DF13701F4
:102F3000384604F045FD0121304602F0E7FD8022CD
:102F4000214664233846144404F03AFDB82DC6D116
:102F50000FB0BDEC028BBDE8F08F00BF84010024F0
:102F6000059BD3F8AC60D3F8A470D3F8B0C030465A
:102F7000A6EB0709D3F8A8306246B9F1000F049315
:102F8000B8BFC9F10009B742C0F03E817F2E4FF0B3
:102F9000FF3B94BF002101213F2B089194BF0023E8
:102FA0000123099391B98BB904990124CB0801F04D
:102FB000070106EBC31304FA01F12B4493F82444F0
:102FC000214383F824140023CDE90833B74200F0ED
:102FD0004381C846049CBE46E30804F007014FF055
:102FE000010ABEF17F0F0EEBC3130AFA01F108D8F4
:102FF0003F2C2B4405D893F824A441EA0A0183F816
:1030000024145FEA480318BFDE44994501DDC84433
:10301000013C7645E0D1049BA342DDD100230B9314
:103020000499ACEB0103614583EAE374A4EBE37418
:1030300023460794C0F0F780BCF13F0F0899C4F114
:10304000000A94BF002301230A93002940F0FA806C
:10305000002B40F0F7804FF0FF3308934FEADC037A
:1030600001240CF0070106EBC31304FA01F12B4411
:1030700093F82444214383F8241400230A93049BE7
:10308000634500F0EC80D646049934464FF00109C0
:10309000CB0801F007087F2C04EBC3130EFA09FBE1
:1030A00009FA08F808D83F292B4405D893F8249446
:1030B00048EA090883F82484BAEB4E0F03DA079B29
:1030C000013CAEEB030EBBF1000F01D0089B19448D
:1030D000A642DBD18C45D9D14FF0000BA7EB0608F7
:1030E000B7428CBF01264FF0FF360A9BB8F1000FA4
:1030F000B8BFC8F100087F2F94BF4FF0000A4FF00F
:10310000010A8BB9BAF1000F0ED14FEADC0301249A
:103110000CF0070107EBC31304FA01F12B4493F8F9
:103120002444214383F824140B9B0BBBC6466446FE
:10313000E30804F007014FF001097F2800EBC313F7
:1031400009FA01F108D83F2C2B4405D893F82494B0
:1031500041EA090183F824145FEA4E0318BF80197D
:10316000984501DDC644013C8742E1D1A445DFD149
:103170000499099BA1EB0C0861458CBF4FF0010C31
:103180004FF0FF3CB8F1000FB8BFC8F10008C8F11C
:10319000000E83B9BAF1000F0DD1CB08012001F068
:1031A000070107EBC31300FA01F12B4493F8240441
:1031B000014383F82414BBF1000F7FF47DAE704609
:1031C00039460124D30802F007097F2900FA04F6E2
:1031D00001EBC31304FA09F408D83F2A2B4405D89D
:1031E00093F8249444EA090483F82444BEEB400F86
:1031F00002DA0139A0EB080006B162448F42E0D147
:10320000049B9342DDD157E604997F2E94BF00239F
:1032100001233F29089394BF002101210991C3B9DB
:10322000B9B9A346C0E6079BBCF13F0F0899C3F1AB
:10323000000A94BF002301230A9339B933B901234B
:1032400008930BE74FF0FF33089318E70123089327
:1032500019E74FF0010BBCE601230B93E0E64FF0BA
:10326000010B3BE790F858302DE9F041074682B05A
:10327000002B46D0022B01D1FFF7DEFD07F5836658
:1032800007F58465B02407F224474FF0000828466C
:103290008DF807400134414602F038FC64230122D6
:1032A0000DF107013046E4B204F08AFB414628469E
:1032B0008DF8078002F02AFC012264230DF107013A
:1032C000304604F07DFB1023414628468DF8073038
:1032D00002F01CFC642301220DF10701304604F0CA
:1032E0006FFB0121284602F011FC8022394664233D
:1032F0003046174404F064FBB82CC6D102B0BDE8D8
:10330000F08104F0EFFCD7F82C28D7F83038801A79
:103310009842B3D93846FEF79FFDAFE7012990F8F0
:1033200058302DE9F041074682B0144654D0002BA6
:1033300054D107F224484FF480620021404611F036
:103340000DFC3846002C44D0FFF764FA384607F5E8
:10335000836607F58465B024FFF784FF00272846BD
:103360008DF807400134394602F0D0FB6423012276
:103370000DF107013046E4B204F022FB394628463D
:103380008DF8077002F0C2FB012264230DF10701E2
:10339000304604F015FB1023394628468DF80730D7
:1033A00002F0B4FB642301220DF10701304604F062
:1033B00007FB0121284602F0A9FB80224146642335
:1033C0003046904404F0FCFAB82CC7D102B0BDE8F6
:1033D000F081FFF717FBB9E7012BAAD80B4487F858
:1033E0005830A6E72DE9F041012184B00546294C6B
:1033F000FEF7D0FE0120284B05F58367C5F814447D
:1034000005F58466B02425490CCB009005F5826053
:1034100005F22445FDF700FC4FF0000830468DF81A
:103420000F400134414602F071FB642301220DF18B
:103430000F013846E4B204F0C3FA414630468DF835
:103440000F8002F063FB012264230DF10F01384667
:1034500004F0B6FA1023414630468DF80F3002F0E2
:1034600055FB642301220DF10F01384604F0A8FA40
:103470000121304602F04AFB802229466423384667
:10348000154404F09DFAB82CC6D104B0BDE8F04153
:1034900004F02CBC140037008401002400760108DD
:1034A00038B590F806310446FF2B0CD090F8583010
:1034B000012B59D0022B00F09580002B47D094F8B7
:1034C0002838CBBB38BD04F00DFC07EE900AD4EDD4
:1034D000426AF8EE677A9FED547A77EEE67AF4EE78
:1034E000C77AF1EE10FA0ADD94F82838002B51D093
:1034F00094F8F8301BB1D4F81811002955D194F87C
:103500005830012B30D0022B54D003B394F806313D
:10351000FF2BD4D104F0E6FB07EE900AD4ED426A0B
:10352000F8EE677A9FED407A77EEE67AF4EEC77AA6
:10353000F1EE10FAC3D438BD0023204684F82838B1
:10354000FFF760FA2046BDE83840FFF78BBE04F075
:10355000C9FBD4F82C28D4F83038801A9842D5D931
:103560002046FEF779FCD1E704F0BCFBD4F82C2808
:10357000D4F83038801A9842C8D9002504F0B2FB3C
:10358000C4F82C08294601352046FEF79FFE042D7D
:10359000F8D1BBE72046FFF73DF9012384F828382E
:1035A00094F8F830002BAAD0A5E701222046FFF7B7
:1035B000B5FEA4E794F80631FF2B13D194F85930E7
:1035C000032B21D094F8F830002BA3D0D4F8183175
:1035D000002B9BD094F8282852B194F80631FF2B89
:1035E000AAD197E794F8F830002B3FF468AFEDE7E5
:1035F000012B94F859200FD082B11344204684F84F
:103600005930FFF719FC81E72046FFF7EBFE94F8ED
:10361000F830002BDAD179E7022AEED994F8063196
:10362000FF2B3FF477AF38BD0000964384B02DE9FF
:10363000F04182B00125064604460DF1240885724A
:10364000274688E80E00BDF84C3026F8083F304683
:1036500002F072F9BDF84E30A57127F8043F3846E4
:1036600002F06AF94146204604F024F90021384668
:1036700002F04CFA0A2004F037FB2946384602F0E3
:1036800045FA0A2004F030FBAE23304600218DF8C5
:10369000073002F03BFA2A460DF107016423204669
:1036A00004F08EF9D523304600218DF8073002F062
:1036B0002DFA2A460DF107016423204604F080F913
:1036C0008023304600218DF8073002F01FFA2A4689
:1036D0000DF107016423204604F072F9A823304657
:1036E00000218DF8073002F011FA2A460DF107018A
:1036F0006423204604F064F93F23304600218DF80E
:10370000073002F003FA2A460DF107016423204630
:1037100004F056F9DA23304600218DF8073002F024
:10372000F5F92A460DF107016423204604F048F913
:103730001223304600218DF8073002F0E7F92A46BF
:103740000DF107016423204604F03AF90021D32348
:1037500030460F468DF8073002F0D8F92A46642328
:103760000DF10701204604F02BF9394630468DF85B
:10377000077002F0CBF92A460DF1070164232046B9
:1037800004F01EF94023394630468DF8073002F028
:10379000BDF92A460DF107016423204604F010F913
:1037A000A623394630468DF8073002F0AFF92A4695
:1037B0000DF107016423204604F002F9A4233946E1
:1037C00030468DF8073002F0A1F92A460DF10701C5
:1037D0006423204604F0F4F88D23394630468DF8F2
:1037E000073002F093F92A460DF1070164232046C1
:1037F00004F0E6F81423394630468DF8073002F01D
:1038000085F92A460DF107016423204604F0D8F813
:10381000A123394630468DF8073002F077F92A4661
:103820000DF107016423204604F0CAF8C823394685
:1038300030468DF8073002F069F92A460DF107018C
:103840006423204604F0BCF88123394630468DF8C5
:10385000073002F05BF92A460DF107016423204688
:1038600004F0AEF88F23394630468DF8073002F069
:103870004DF92A460DF107016423204604F0A0F813
:10388000D923394630468DF8073002F03FF92A46F1
:103890000DF107016423204604F092F825233946F0
:1038A00030468DF8073002F031F92A460DF1070154
:1038B0006423204604F084F8DB23394630468DF833
:1038C000073002F023F92A460DF107016423204650
:1038D00004F076F83423394630468DF8073002F08C
:1038E00015F92A460DF107016423204604F068F813
:1038F000AF23394630468DF8073002F007F96423CC
:103900002A460DF10701204604F05AF802B0BDE83E
:10391000F04104B0704700BFF0B540F606329FB0EA
:103920001F4B0646092016AD6C46CDE9082300F072
:103930007BF803461F20ADF8483000F075F80222EE
:103940000B2100230DF1200EADF822100121ADF85E
:103950004A000DF14C0C0A936746CDE9102208226B
:10396000CDE90E33CDE90B310D92BEE80F00ACE886
:103970000F00BEE80F00ACE80F009EE807008CE8DF
:1039800007000FCD0FC495E80F0084E80F0006F57F
:10399000836097E80E00FFF749FE1FB0F0BD00BF3F
:1039A0000105060A30B5054685B0FEF749FB2846F5
:1039B000FEF7B2FB1123C5F8303804F093F92B461B
:1039C0000122C5F82C08C3F8A82001240A323F219F
:1039D000C3F8A4401033332AC3E92712F3D1284691
:1039E000FFF79AFF062000F01FF803460520ADF808
:1039F000043000F019F803460420ADF8083000F058
:103A000013F8ADF80C0005F1F4009FED060A039BD6
:103A1000DDE9011201F0C6FB284605B0BDE83040E3
:103A2000FEF770BE00000000202882B009D8084BC5
:103A300003EB400213F81030507843EA002002B044
:103A4000704701230C2043EA002002B0704700BFFA
:103A5000107E0108143001F01BBB00BF38B500F127
:103A6000140504462DED028B284601F0CDFA2846B8
:103A700001F0C6FA2846B0EE408A01F0AFFAD0ED68
:103A8000007AF8EE677A88EE277ABDEC028B84ED37
:103A90000E7A38BD38B500F1140504462DED028BC1
:103AA000284601F09FFA284601F0AAFA2846B0EE0F
:103AB000408A01F093FAD0ED007AF8EE677A88EE4A
:103AC000277ABDEC028B84ED0E7A38BD90ED0E0A9C
:103AD000704700BFF0B5032399B00027012512936A
:103AE00006462C4B09A81595CDE90E7340F20453F8
:103AF000ADF84030284BCDE91357099301F01CFF76
:103B000009A801F0F5FF002836D1244B04AF044684
:103B10000090CDF842301023394604958DF82030BE
:103B20001F4BCDE91650CDE906506846059302F0CB
:103B30006DF90823009A01A909A8ADF804508DF881
:103B4000064009940295039300F0B2F900230EA9F0
:103B500038463024049302F06FFF03224FF07E5367
:103B600009A906F114000B930C93CDE90942049ABC
:103B700001F0B8F919B0F0BD40F60132074B1697C5
:103B800004AFADF824200998CDF84230179500F025
:103B900099F8DBE7040204040303000104060403AC
:103BA0000704010B2DE9F04304462DED028B83B091
:103BB000002948D0012140F2011200230091ADF804
:103BC00004208DF80630304A0126304B271D30493D
:103BD00004F12908626040F20272A36040F60663B5
:103BE000E16004F125092682A4F8252084F82760E5
:103BF000A4F8293084F82B6004F000FA69460546E1
:103C000048B304F130008DF8066004F055F9072D33
:103C100034D104F114052046FFF75CFF284601F07B
:103C2000EFF92846B0EE408A01F0D8F9D0ED007ADD
:103C3000F8EE677A88EE277A84ED0E7A03B0BDEC51
:103C4000028BBDE8F08340F2011300918DF806105D
:103C5000ADF80430B7E704F1300004F02DF939462F
:103C6000204602F069FB484601F066FE404601F03E
:103C700063FE04F1120000F045FACAE73946204617
:103C800002F05AFBC5E700BF050805090507050650
:103C9000050A06060A4B4FF4807200B583B01B88F4
:103CA00001A8ADF80620ADF8043001F045FE01A8EA
:103CB00001F01EFFB0FA80F0400903B05DF804FB8C
:103CC0004C75010810B584B003460124ADF804001A
:103CD00003A8ADF80C30ADF80E4001F02DFE2146E2
:103CE00003A801F013FF204603F0FEFF002103A804
:103CF00001F00CFF204603F0F7FF214603A801F076
:103D000005FF04B010BD00BFF0B58C2387B0016083
:103D1000002203710124FA26194605AB8DF8142000
:103D200002964022009323460194054602F02CF9A6
:103D3000002840F09B809DF814300DF117074022B9
:103D4000284603F07F030097CDE901468DF8143033
:103D50008DF817302346297902F03CF9002840F00D
:103D60008580042003F0C0FF05AB40222846009365
:103D70002346CDE90146297902F006F9002875D1DC
:103D80009DF8143040220097284603F0BF03CDE988
:103D900001468DF814308DF817302346297902F04A
:103DA00019F9002862D1042003F09EFF0DF11503DC
:103DB0004322284600932346CDE90146297902F0A3
:103DC000E3F8002852D10DF116034822284600934B
:103DD0002346CDE90146297902F0D6F8002845D1DD
:103DE0009DF8153043220097284643F001038DF8D3
:103DF00015308DF817309DF8163043F00103CDE9EA
:103E000001468DF816302346297902F0E3F868BBA5
:103E10009DF816304822009728468DF81730234623
:103E2000CDE90146297902F0D5F8F8B905AB402271
:103E3000284600932346CDE90146297902F0A4F8EB
:103E4000A0B99DF8142023460194284602F0CF041F
:103E500002960097402229798DF814408DF817407A
:103E600002F0B8F8003818BF012000E0012007B0C8
:103E7000F0BD00BF10B5C2F3002384B00C46017C36
:103E80008DF80D2043EA4402FA2402238DF80C2019
:103E900003AA009402F050F818B10124204604B09F
:103EA00010BD04460A2003F01FFF204604B010BDD9
:103EB000034670B543F8042B044684B007C983E871
:103EC0000700A37983B91A210B461E22FA25237411
:103ED0002046ADF80C20022303AA009502F02CF82E
:103EE00028B1012004B070BD1B210B46EDE70A206C
:103EF00003F0FAFE4FF4B85200950223ADF80C20FF
:103F0000204603AA217C02F017F80028E9D10A20F4
:103F100003F0EAFE41F2027200950223ADF80C2094
:103F2000204603AA217C02F007F80028D9D10A20F4
:103F300003F0DAFE042200950223ADF80C2020469F
:103F400003AA217C01F0F8FF0028CAD10A2003F05F
:103F5000CBFE062200950223ADF80C20204603AAD2
:103F6000217C01F0E9FF0028BBD10A2003F0BCFE50
:103F700041F2082200950223ADF80C20204603AA46
:103F8000217C01F0D9FF0028ABD10A20064603F0BE
:103F9000ABFE0095022303AA217C2046ADF80C60FD
:103FA00001F0CAFF00289CD1304603F09DFE009529
:103FB00022790C232046002A8DF80C3003AA4FF0FA
:103FC000020314BF622142218DF80D10217C01F003
:103FD000B3FF002885D1304603F086FE2279D4E96C
:103FE00002310B43DBB20AB943F0400362790AB1F4
:103FF00043F020030E22FA258DF80D30204600955F
:1040000002238DF80C2003AA217C01F095FF0028E3
:104010007FF467AF0A2003F067FE102200950223A9
:10402000ADF80C20204603AA217C01F085FF002872
:104030007FF457AF0A2003F057FE122100950223A8
:10404000ADF80C1003AA217C204601F075FF002872
:104050007FF447AF0A2003F047FE012209212046E2
:10406000FFF708FF003818BF01203BE7F0B5102329
:1040700087B0234C012200250126002702A92046F3
:104080000195CDE902234FF48052CDE904670AF08F
:10409000F7FF642004F058FA02A94FF4805220463A
:1040A000CDE9046702261027CDE902670AF0E8FF90
:1040B0000322102302A92046CDE902230023042273
:1040C000CDE904234FF480520AF0DAFF40F23223A4
:1040D000042202A9019310232046CDE90223019A6C
:1040E000012305924FF4805204930AF0C9FF40F671
:1040F000060120460AF0E4FF284607B0F0BD00BFE5
:10410000B00D00241C4B00221C494FF0400C30B570
:10411000054689B00220596007219A601A6201247D
:10412000DA620A224FF4006EDC6006922022CDE9AA
:10413000000104200821CDE9020103201021CDE96E
:10414000040108206946C3E904024FF4C072181D37
:10415000C3E906C24FF48052C3E909E20AF066FFE0
:1041600038B92846FFF782FF003818BF012009B090
:1041700030BD204609B030BDAC0D00244041005296
:10418000614A0021D0B513688EB00A91002B40F02F
:10419000B9805E4B01214FF683700C24116002211F
:1041A000D3F8D4200026032742F48052C3F8D42049
:1041B000D3F8D42002F480520092009AD3F8E02081
:1041C00042F01002C3F8E020D3F8E02002F0100221
:1041D0000192019AD3F8E02042F04002C3F8E020B7
:1041E000D3F8E02002F040020292029AD3F8E020D5
:1041F00042F00802C3F8E020D3F8E02002F0080201
:104200000392039AD3F8E02042F48072C3F8E020CE
:10421000D3F8E02002F480720492049AD3F8E020EC
:1042200042F08002C3F8E020D3F8E02002F08002E0
:104230000592059AD3F8E02042F02002C3F8E0206E
:10424000D3F8E02002F020020692069AD3F8E0208C
:1042500042F00402C3F8E020D3F8E0300C9403F0FD
:10426000040307930323079A0B93CDE9080108A9D8
:10427000274806F001F848F23712022308A925481A
:104280000C94CDE90823CDE90A6705F0F5FF4CF25F
:104290000372022308A920480C94CDE90823CDE934
:1042A0000A6705F0E9FF40F2FF62022308A91B48F4
:1042B0000C94CDE90823CDE90A6705F0DDFF4FF640
:1042C0000C72022308A916480C94CDE90823CDE905
:1042D0000A6705F0D1FF4FF63F02022308A91148F3
:1042E0000C94CDE90823CDE90A6705F0C5FF20222B
:1042F000022308A90A480C94CDE90A67CDE90823EE
:1043000005F0BAFF0EB0D0BDA80D0024004402583D
:104310000010025800180258000C025800200258E1
:10432000001C0258001402582DE9F04FDFF81084E9
:1043300006460D46144608F118002DED028B89B093
:1043400000AF02F071FCD8F8183073B3D8F81C3005
:10435000D8F80490002B43690BBF4FF0080A4FF0C8
:10436000100A4FF0020B4FF0040BB9F1000F2AD0E6
:10437000A200EA46012B02F1070222F00702ADEB90
:10438000020D6846ADEB020D694600F03F81022B3D
:1043900000F0D680002B6FD02246C847D546243780
:1043A000BD46BDEC028BBDE8F08FD8F81C30002B69
:1043B000F5D0D8F804904FF0080A4FF0020B43698B
:1043C000B9F1000FD4D1FB61D8F80030BB61002BEC
:1043D000E5D0D54802F09AFC6B46BBF1020F78613C
:1043E00008EE103AFB6900F083816A465146A2EB61
:1043F000C40295466200EA46B2FBFBF2AAEBC40097
:1044000085460AEB8200EE46F861ADEB010DF869D6
:104410000EEB820CC7F810C0EC46ADEB010D00EBC3
:104420008201CCF80400CCF8081001EB8201386955
:10443000E946CCF80C1000EB8201CCF800A001EBAF
:104440008202C9E900E0C9E90212012B00F064838D
:10445000022B00F06C82002B00F08081620849463C
:104460006046BB69984718EE103A24379D46BD4612
:10447000BDEC028BBDE8F08F002C8DD01A46D8ED34
:104480000C6A9FEDB27A8446331D36F922E00CF1B6
:10449000080C07EE90EA33F922E00232F8EEE77AF0
:1044A000944267EE877A67EEA67A4CED027A07EEC1
:1044B00090EAF8EEE77A67EE877A67EEA67A4CED37
:1044C000017AE2D8F9612246C847984ED8ED0D6AC4
:1044D0000020F9692B1D9FED9E7A9FED9E6ADFED0E
:1044E0009E5A22E0F4EEC67AF1EE10FAC0F2C884C9
:1044F00047F6FE72D1ED017A45F8202066EEA77AE4
:10450000F4EEC77AF1EE10FA40F2F080F4EEC67ADB
:10451000F1EE10FAC0F2D58447F6FE7243F820207F
:104520000230083184427FF639AFD1ED007A66EE71
:10453000A77AF4EEC77AF1EE10FAD3D83246D9E76B
:10454000002C3FF429AFD8ED0C6A84469FED787AB1
:104550000022331D8E4656F822100CF1080C07EE8F
:10456000901A53F822100232F8EEE77A944267EE7E
:10457000877A67EEA67A4CED027A07EE901AF8EE8B
:10458000E77A67EE877A67EEA67A4CED017AE2D891
:1045900071462246C7F81CE0C847664ED8ED0D6A42
:1045A0000020F9692B1D9FED6A7A9FED6A6ADFF89A
:1045B00094C120E0F4EEC67AF1EE10FAC0F27984EC
:1045C0003246D1ED017A45F8202066EEA77AF4EE66
:1045D000C77AF1EE10FA40F28780F4EEC67AF1EE77
:1045E00010FAC0F25E84324643F8202002300831CF
:1045F00084427FF6D3AED1ED007A66EEA77AF4EE70
:10460000C77AF1EE10FAD5D86246DAE7002C3FF40B
:10461000C3AED8ED0C6A86469FED477A4FF0000C8A
:10462000331D56F82C200EF1080E82F40002A2F57C
:10463000000207EE902A53F82C200CF1020CF8EE41
:10464000E77A82F400026445A2F5000267EE877AF9
:1046500067EEA67A4EED027A07EE902AF8EEE77A38
:1046600067EE877A67EEA67A4EED017AD9D8F961BE
:104670002246C847314ED8ED0D6A0020F9692B1D3E
:104680009FED337A9FED336ADFF8BCC01FE0F4EE94
:10469000C67AF1EE10FAC0F2FC833246D1ED017A0F
:1046A00045F8202066EEA77AF4EEC77AF1EE10FA0C
:1046B00018D9F4EEC67AF1EE10FAC0F2DA83324677
:1046C00043F820200230083184427FF667AED1EDF6
:1046D000007A66EEA77AF4EEC77AF1EE10FAD6D831
:1046E0006246DBE76246EBE762467DE7324615E766
:1046F000A100D6466208073121F00701ADEB010D9C
:10470000EA46ADEB010D6946ADEB0E0D0AEB8200FA
:10471000EC46ADEB0E0D01EB8202F861E946CCE907
:1047200000A0C9E9001290E6000E00240280FFFFFD
:10473000000000300082FF7F0000003482FF7F0015
:10474000E40D0024007E00807E0080FF0000003821
:1047500004FF7FBF04FF7F3F00FEFF46002C00F0F8
:10476000C982BBF1020FD8F8242000F0FA827969DF
:10477000C7F8049002EB810E5FED0C5A8A00DCF85A
:1047800008100EF104007A611A46DCF80C303B6127
:10479000331DD7F810903D61FD69C7E902CB8C4607
:1047A000834636F92210D8ED0C7A06EE101A33F94A
:1047B000221006EE901A3EF92210B8EEC66A07EEF5
:1047C000101AF8EEE66A3BF92210B8EEC77A26EE28
:1047D000256A66EEA56A27EE257A26EE276A66EE3A
:1047E000A76A27EE277A07EE901A51080232F8EEF0
:1047F000E77A0AEB8100944280ED006A05EB8100C4
:1048000067EEA57AC0ED006A0CEB810009EB81012F
:1048100080ED007A98ED0C7A67EE877AC1ED007A28
:10482000BFD8D7F804903D69D7E902CB604662084B
:10483000BB6949469847D8F82C307A69D8ED0D6A9B
:104840001A441FED3D7A1FED3D6A2B1D904602F183
:10485000040A5FED3F5A0022A84ED9E900EC51E06E
:10486000F4EEC67AF1EE10FAC0F2C78247F6FE7097
:1048700045F822000CEB0100D0ED007A66EEA77A35
:10488000F4EEC77AF1EE10FA4BD9F4EEC67AF1EEF7
:1048900010FAC0F2BA8247F6FE70BBF1020F43F87D
:1048A00022002BD0D9F808000844D0ED007A66EE3B
:1048B000A77AF4EEC77AF1EE10FA36D9F4EEC67A9A
:1048C000F1EE10FAC0F2CD8247F6FE7048F82200F1
:1048D000D9F80C000144D1ED007A66EEA77AF4EE27
:1048E000C77AF1EE10FA1ED9F4EEC67AF1EE10FA9C
:1048F000C0F2AF8247F6FE714AF8221002329442AB
:104900007FF6B1AD51080EEB81008900D0ED007A41
:1049100066EEA77AF4EEC77AF1EE10FAA0D8304628
:10492000A6E73046B9E73146E6E73046CEE7002C49
:1049300000F0E081BBF1020FD8F8243000F0E181F3
:104940007A69DCF8081003EB820EC7F80490930034
:10495000DFED6B5A0EF1040000227B61DCF80C30B5
:104960003B61331DD7F810903D61FD69C7E902CB6B
:104970008C46834656F82210D8ED0C7A07EE101AB2
:1049800053F82210B8EEC76A07EE101A5EF822102C
:10499000F8EEC76A07EE101A26EE256A5BF82210B9
:1049A000B8EEC77A66EEA56A26EE276A27EE257A64
:1049B00066EEA76A27EE277A07EE901A51080232B0
:1049C000F8EEE77A0AEB8100944280ED006A05EB8D
:1049D000810067EEA57AC0ED006A0CEB810009EB5F
:1049E000810180ED007A98ED0C7A67EE877AC1ED4F
:1049F000007ABFD8D7F804903D69D7E902CB60466A
:104A00006208BB6949469847D8F82C307A69D8EDD6
:104A10000D6A1A449FED3E7A9FED3E6A131D924641
:104A2000DFF8E4C00022FB612B1D364ED9E9008E71
:104A30004EE0F4EEC67AF1EE10FAC0F2FC81304698
:104A400045F822000EEB0100D0ED007A66EEA77A61
:104A5000F4EEC77AF1EE10FA49D9F4EEC67AF1EE27
:104A600010FAC0F2EF813046BBF1020F43F822008A
:104A70002AD0D9F808000844D0ED007A66EEA77A6B
:104A8000F4EEC77AF1EE10FA35D9F4EEC67AF1EE0B
:104A900010FAC0F2C98130464AF82200D9F80C0059
:104AA0000144D1ED007A66EEA77AF4EEC77AF1EE12
:104AB00010FA1ED9F4EEC67AF1EE10FAC0F2AD810A
:104AC0003146F86940F82210023294427FF6CBACAE
:104AD000510808EB81008900D0ED007A66EEA77AD4
:104AE000F4EEC77AF1EE10FAA3D86046A8E7604664
:104AF000BAE76146E5E76046CEE700BF0280FFFF08
:104B0000000000300082FF7F007E00800000003443
:104B100004FF7FBF04FF7F3F002C00F0EB807A6929
:104B20000021D8F82430C7F8109003EB820ED7F894
:104B30001C909300FD610EF104021FED0C6A7B6175
:104B4000331D154656F821204808D8ED0C6ABBF1F4
:104B5000020F82F40002A2F5000207EE902A53F839
:104B6000212082F40002B8EEE77AA2F5000227EED7
:104B7000067A07EE902A0AEB8002F8EEE77A27EE33
:104B8000267A67EE867A82ED007A09EB80024FEA98
:104B9000800067EEA67AC2ED007A27D05EF8212069
:104BA00082F40002A2F5000207EE902A55F82120B7
:104BB00082F40002B8EEE77AA2F5000227EE067A48
:104BC00007EE902ADCF80820F8EEE77A024427EE98
:104BD000267A67EE867A82ED007A98ED0C7ADCF818
:104BE0000C2067EE877A0244C2ED007A02318C42D3
:104BF000A8D8D7F8109060466208BB694946FD699D
:104C00009847D8F82C307A69D8ED0D6A1A441FED10
:104C1000407A1FED406A131D9246DFF8C4C200229D
:104C2000FB612B1DAB4ED9E9008E4EE0F4EEC67A47
:104C3000F1EE10FAC0F2C580304645F822000EEBC6
:104C40000100D0ED007A66EEA77AF4EEC77AF1EEB5
:104C500010FA49D9F4EEC67AF1EE10FAC0F2BF802C
:104C60003046BBF1020F43F822002AD0D9F80800E1
:104C70000844D0ED007A66EEA77AF4EEC77AF1EE3A
:104C800010FA35D9F4EEC67AF1EE10FAC0F2AE8021
:104C900030464AF82200D9F80C000144D1ED007AE0
:104CA00066EEA77AF4EEC77AF1EE10FA1ED9F4EEAA
:104CB000C67AF1EE10FAC0F28B803146F86940F8FE
:104CC0002210023294427FF6CEAB510808EB8100ED
:104CD0008900D0ED007A66EEA77AF4EEC77AF1EE9D
:104CE00010FAA3D86046A8E76046BAE76146E5E750
:104CF0006046CEE7224649466046BB699847FFF7C3
:104D0000B2BBC7F810B0002298ED0C6A331DDFED7E
:104D1000726AD7F81CB0786956F8221007EE901A1C
:104D200053F82210B8EEE77A07EE901A51080232D3
:104D3000F8EEE77A27EE267A0AEB810E94420BEB27
:104D4000810167EEA67A27EE067A67EE867A8EED07
:104D5000007AC1ED007ADFD88300D7F810B07B610C
:104D60004DE61A46C7F810B098ED0C6A331DDFED1A
:104D70005B6AD7F81CB0786936F9221007EE101A72
:104D800033F9221007EE901AB8EEC77A51080232B2
:104D9000F8EEE77A27EE267A0AEB810E94420BEBC7
:104DA000810167EEA67A27EE067A67EE867A8EEDA7
:104DB000007AC1ED007ADFD88300D7F810B07B61AC
:104DC00034E5F0EE675AFEEEE45A15EE900A34E749
:104DD000F0EE675AFEEEE45A15EE901A6EE7F0EE2A
:104DE000675AFEEEE45A15EE900A3AE7F0EE675A7B
:104DF000FEEEE45A15EE900A4BE767EEA57AFDEE5B
:104E0000E77A17EE900A00B232E567EEA57AFDEE7A
:104E1000E77A17EE900A00B23FE5F0EE675AFEEE31
:104E2000E05A15EE901A4CE6F0EE675AFEEEE05AA4
:104E300015EE900A30E6F0EE675AFEEEE05A15EEF7
:104E4000900AFDE5F0EE675AFEEEE05A15EE900A84
:104E50000AE667EEA57AFDEEE77A17EE901A09B238
:104E60004AE567EEA57AFDEEE77A17EE900A00B202
:104E70002CE5F0EE675AFEEEE45A15EE902A1FE498
:104E800067EEA57AFDEEE77A17EE902A12B2FFF7E9
:104E900031BBF0EE675AFEEEE45A15EE902AFFF7AA
:104EA000FDBBF0EE675AFEEEE05A15EE902AFFF7D2
:104EB0009BBBF0EE675AFEEEE05A15EE902AFFF724
:104EC00080BB67EEA57AFDEEE77A17EE902A12B264
:104ED000FFF724BB82FF7F00000000300000003895
:104EE0007E0080FF30B5184C154685B0046004F193
:104EF000080EEC460FC98EE80F00D4ED047AF5EEEB
:104F0000C07A8CE80F00F1EE10FA1ADDB7EE006AF5
:104F100094ED057A27EE277AC6EE276A84ED0D7A9E
:104F2000C4ED0C6A6DB1204640F8185F01F07CFEBC
:104F3000064903690020064A2162A262E36005B0C7
:104F400030BD012005B030BDE40D0024002000304C
:104F500000000030F0B51C4C16461F4689B00460B6
:104F600004F10805EE460DF1100C0FC985E80F009D
:104F7000D4ED047AF5EEC07A8EE80F00F1EE10FA67
:104F80008CE80F0017DDB7EE006A94ED057A27EE86
:104F9000277AC6EE276A84ED0D7AC4ED0C6A56B105
:104FA000204640F8186F01F03FFE08490369084A9F
:104FB0002162A262E360074A0020074BE761626258
:104FC000E36209B0F0BD00BFE40D00240020003012
:104FD0000000003000300030001000300068083061
:104FE000704700BFB1F5807F03680A4628BF4FF4C1
:104FF0008072B1F5807F9A6094BF002001207047D5
:105000000068183001F070BE70B504688AB0A369FA
:10501000E160CBB104F11805284601F005FE844695
:10502000EE46E668BCE80F00AEE80F00BCE80F00F3
:10503000AEE80F009CE803008EE8030069462846AE
:10504000049601F0F9FCF8B9E069D8B104F11C0547
:10505000284601F0E9FD8446EE46E468BCE80F000E
:10506000AEE80F00BCE80F00AEE80F009CE80300BC
:105070008EE8030069462846049401F0DDFC003800
:1050800018BF01200AB070BD01200AB070BD00BF7A
:1050900030B5046883B00D46E3694BB1A3680020C6
:1050A000E26A616A9B00009004F11C0001F0BEFD01
:1050B000A3680748A26A9B00216A009004F11800C7
:1050C00001F0B4FD0020C4E9005003B030BD00BFC2
:1050D0002943000810B4074B4FF07E5130240022C2
:1050E000032019619C60D8605DF8044B5961C3E9E5
:1050F00006227047E40D0024F6EE007A9FED166A52
:1051000020EE207A0160F7EE006A80ED036A80ED00
:10511000020A27EE277AC6EE877AF4EEE67AF1EEF7
:1051200010FA11DDF0EE667A4FF07E514FF0000C70
:1051300002760022C0ED017AC0F814C00161437606
:105140008276C0ED070A7047F4EEC67AF1EE10FAE7
:10515000EAD5F0EE467AE7E7000000000268037E39
:10516000128807EE902AFBEEC87A1BB1B7EE007AE0
:1051700077EE677AD0ED056A90ED047A77EEE67AFD
:10518000437E67EE877A0BB1F1EE677A90ED030A02
:1051900090ED017A77EEC07AA7EE270A80ED030A38
:1051A000704700BF30B585B004460025ADF80C103F
:1051B000ADF80820ADF8043002F094FDBDF80C20E5
:1051C0004FF48073206004F118002283BDF808209A
:1051D0006383E383A283257100F0AEFB04F11C001E
:1051E00000F0AAFB9FED060A019904F1080000F007
:1051F00051F84FF6FF736562238405B030BD00BFE0
:1052000000000000F8B5044602F06CFD002623689B
:105210002671834205D104F10800BDE8F84000F092
:1052200053B8012794F82050206004F11800BD40C5
:10523000277100F05DFC6DB2284394F82150BD4009
:1052400084F8200004F11C0000F052FC94F8203097
:105250006DB2666203F003032843022BC0B284F8E8
:10526000210009D000F003000228D4D1002BD2D1B4
:105270004FF0FF336362CEE78307CCD16762CAE7A2
:1052800009884FF0000C8271C0F802C0018000F064
:1052900053BB00BF70B5044682B0C1F30726CDB240
:1052A000ADF8041002F01EFD4FF480724FF00123A0
:1052B0002060A01DA571A280E671A36002B0BDE8C8
:1052C000704000F039BB00BF38B5044602F00AFD5B
:1052D000002223682271834210D00122A57AE37A4A
:1052E000954020602271A01D6DB243B900F000FC12
:1052F00040B22843C0B27F28A0720AD038BD00F067
:10530000F7FBB0FA80F040092843C0B27F28A072B2
:10531000F4D102F0E7FC07EE900AF8EE677AC4EDEC
:10532000037A38BD82B04FF0000C0323ADF80410AF
:10533000BDF8042080F810C00280438002B070479E
:105340002DE9F04FBE4E00258FB0BE4C037006F124
:105350004003426007460192884620222946304693
:10536000C4F85831C4F85461CDE90355CDE9055569
:10537000CDE90755CDE90955CDE90B550FF0EEFB09
:105380002022294604F59970C4F82151C4F825510A
:10539000C4F82951C4F82D510FF0E0FB019B84F8AB
:1053A000385284F820317A68002A5FD02B46414673
:1053B000B64604F5907599464FF0010A03EB0310C9
:1053C000D1F800B0D1F804800133D1F808C0221818
:1053D000CE6844F800B0C2F80480C2F808C0D660B5
:1053E000087C2EF8029B10740A7C05F8012F002A15
:1053F00069D07A68113184F838A29A42DED84FF425
:10540000802291489DF8043008214FF000084FF0A9
:105410000009C4F874310023C4E957020122C4F81A
:10542000643184F87031C4E95A2194F83812C4E91F
:10543000608981B3C4F88821002284F8713184F82E
:1054400078313B78C4E96322A3B301220020012113
:10545000013B84F89421C4E96801082B2CD8DFE8CB
:1054600003F0ABB0B5BABFC4C9CFD6009DF80430C5
:105470000121C4F86421C4F874314FF4802384F806
:105480007021714AC4E9572308230022C4E95A1342
:105490000023C4E960230123002284F87131002332
:1054A00084F878310323C4F888313B78C4E9632257
:1054B000002BCAD184F89431644803F07DFC034684
:1054C00038B1FFBEFEE77A6811319A423FF676AFF7
:1054D00095E703A95D48039303F0CCFD054600283A
:1054E00068D1022240F2FF73CDE908230023042291
:1054F000CDE90A2394F82031002B00F0D5804FF03D
:10550000060921E0022B00F08980012B40F0C480C5
:105510009AF80130012B00F0C180002B4C4B18BFD2
:10552000002306A94948CDE9063903F071F800289F
:1055300040F0BF80013594F82031EDB2AB4240F22B
:10554000B380444B53F825902FB207EB071704EBB9
:10555000070A504600F0F0F905EB051323441B7CC5
:10556000042B7DDC022B00F3918000F08D80631909
:10557000002283F81021E35D002BC3D19AF801309B
:10558000062B00F08580072B00F08A80022B00F0AC
:105590009680032B00F09580002B00F09680012B65
:1055A00000F09180042B00F09280052B2A4B18BF4D
:1055B0000023B6E7FFBEFEE703224023C4E96623CB
:1055C0007AE707226023C4E9662375E70F22802368
:1055D000C4E9662370E71F22A023C4E966236BE7B2
:1055E0003F22C023C4E9662366E77F22E023C4E9A3
:1055F000662361E7FF224FF48073C4E966235BE70B
:1056000040F2FF124FF49073C4E9662354E740F26E
:10561000FF324FF4A073C4E966234DE79AF80130D6
:10562000042B37D0052B3DD0002B40D0012B42D08E
:10563000022B42D0032B094B18BF002371E700BF98
:1056400000400030200E0024002002407C0F002487
:105650000002B025547E01080000B84F00209036AB
:1056600003233E1D04EB05084FF0000B264488F889
:10567000103130460BF1010B00F05EF998F8103153
:1056800004365B45F5DC76E70123EAE70223E8E729
:10569000104B46E7104B44E7002342E70F4B40E72F
:1056A0000F4B3EE70F4B3CE70FB0BDE8F08F0E4BC2
:1056B00037E7FFBEFEE70D4B33E70D4B31E70D4BF0
:1056C0002FE70D4B2DE70D4B2BE70D4B29E70D4B2E
:1056D00027E700BF0800900C1000C0102000F01455
:1056E0008000501D000180210004002A0008302E97
:1056F000001060320040C03A0080F03E0000524787
:10570000000021430000844B38B5094C40F2FF7281
:105710004FF0011104F5AE75284603F059FC94F8DA
:105720002021D4F854112846BDE8384003F0C4B90C
:10573000200E0024034B0F29D3F8540198BF00EB2F
:1057400041007047200E0024214B02689A4200D08D
:105750007047204A00232048D2F8D81030B51F4C9B
:1057600041F0200183B0C4F8C001092004F5E075C0
:10577000C4E971034FF48060C2F8D810D2F8D82081
:105780004FF40061C4E9733094F8380202F020024B
:10579000C4F8D4114FF40051984201922846C4F83D
:1057A000D811C4E97833019B14BF00234FF48073F0
:1057B000C4F8DC3103F096FE08B1FFBEFEE704F545
:1057C000AE73C4F8A851C4F8F83103B030BD00BFBF
:1057D000002002400044025840000240200E0024F5
:1057E000014804F0F7B900BFE00F002402682DE97A
:1057F000F84F4B4B9A4201D0BDE8F88F494D95F8D0
:105800003832002BF8D095F82031002B77D00024C7
:1058100005F10C0905F5997605F59077A04613E09A
:1058200003F0010117F811BCA9F1080000F06EF9AE
:10583000BBF1010F25D895F82031013409F1110988
:105840000236A2B293422BD917F8012F002AF4D0C6
:10585000D5F854310021327833F81400D5F8583196
:1058600003EB041323F81200338801339BB2338017
:105870005FFA83FA3A789A42D2D88A46A6F800802C
:10588000D0E7CAF34001A9F1040000F03FF9BBF1F1
:10589000020FCAF38001CED0484600F037F9CAE7BC
:1058A000002395F83802204909229842C5F8C831EA
:1058B0004FF48060C5F8C011C5F8C4214FF40061F1
:1058C0004FF40052C5F8CC3108BF4FF48073C5F8CF
:1058D000D821C5E9740100221448C5E97732C5F81A
:1058E000E42103F0FFFD08B1FFBEFEE795F820219B
:1058F000D5F854110E48BDE8F84F03F0DDB80A4959
:1059000009224FF48060C5F8C831C5E970124FF420
:1059100000614FF40052C5E97330C5E97512DAE74A
:1059200000200240200E002440000240E00F00242E
:105930007C0F0024704700BF8378022B30B50446EB
:105940008FB037D0032B33D0012B31D000230A93F3
:10595000E378012B2AD0022B28D000230B930023BD
:1059600020460C9302F0CEFC0546204602F0D2FC05
:1059700023780990082B13D8DFE803F01F3245582D
:105980006B7E91A40500594BD3F8E02042F480725D
:10599000C3F8E020D3F8E03003F480730893089B49
:1059A00009A9284604F068FC0FB030BD0B93D6E778
:1059B0000A93CDE711230A93CAE74C4B09A928465D
:1059C000D3F8E02042F00102C3F8E020D3F8E03041
:1059D00003F001030093009B04F04EFC0FB030BDB8
:1059E000424B09A92846D3F8E02042F00202C3F84E
:1059F000E020D3F8E03003F002030193019B04F0B0
:105A00003BFC0FB030BD394B09A92846D3F8E02044
:105A100042F00402C3F8E020D3F8E03003F00403BE
:105A20000293029B04F028FC0FB030BD2F4B09A954
:105A30002846D3F8E02042F00802C3F8E020D3F86B
:105A4000E03003F008030393039B04F015FC0FB050
:105A500030BD264B09A92846D3F8E02042F01002B9
:105A6000C3F8E020D3F8E03003F010030493049B64
:105A700004F002FC0FB030BD1C4B09A92846D3F836
:105A8000E02042F02002C3F8E020D3F8E03003F039
:105A900020030593059B04F0EFFB0FB030BD134BC3
:105AA00009A92846D3F8E02042F04002C3F8E020DC
:105AB000D3F8E03003F040030693069B04F0DCFBD0
:105AC0000FB030BD094B09A92846D3F8E02042F0B9
:105AD0008002C3F8E020D3F8E03003F0800307939E
